{
  "transactions": [
    {
      "hash": "0x739135cbc5839b5a9e7e5cf977d6f7f28ccdf5cf463944c357f09ab73909e4e0",
      "transactionType": "CREATE",
      "contractName": "IW",
      "contractAddress": "0x24757E4b5AD64e6b48d78Dc800D45b4061698757",
      "function": null,
      "arguments": null,
      "rpc": "https://rpc2.alto.build",
      "transaction": {
        "type": "0x02",
        "from": "0xb912354202419695ae69e38aa77d56856cc850f4",
        "gas": "0x1a1b83",
        "value": "0x0",
        "data": "0x60806040523480156200001157600080fd5b50604080518082018252600280825261495760f01b60208084018290528451808601909552918452908301529060006200004c8382620001fe565b5060016200005b8282620001fe565b50505062000078620000726200010360201b60201c565b62000107565b46611e1403620000fd57604051630981022760e31b8152603c600482015273ecf044c5b4b867cfda001101c617ecd347095b4490634c081138906024016020604051808303816000875af1158015620000d5573d6000803e3d6000fd5b505050506040513d601f19601f82011682018060405250810190620000fb9190620002ca565b505b620002e4565b3390565b600680546001600160a01b038381166001600160a01b0319831681179093556040519116919082907f8be0079c531659141344cd1fd0a4f28419497f9722a3daafe3b4186f6b6457e090600090a35050565b634e487b7160e01b600052604160045260246000fd5b600181811c908216806200018457607f821691505b602082108103620001a557634e487b7160e01b600052602260045260246000fd5b50919050565b601f821115620001f957600081815260208120601f850160051c81016020861015620001d45750805b601f850160051c820191505b81811015620001f557828155600101620001e0565b5050505b505050565b81516001600160401b038111156200021a576200021a62000159565b62000232816200022b84546200016f565b84620001ab565b602080601f8311600181146200026a5760008415620002515750858301515b600019600386901b1c1916600185901b178555620001f5565b600085815260208120601f198616915b828110156200029b578886015182559484019460019091019084016200027a565b5085821015620002ba5787850151600019600388901b60f8161c191681555b5050505050600190811b01905550565b600060208284031215620002dd57600080fd5b5051919050565b61147480620002f46000396000f3fe608060405234801561001057600080fd5b50600436106101215760003560e01c806370a08231116100ad578063b88d4fde11610071578063b88d4fde1461024d578063c87b56dd14610260578063dbddb26a14610273578063e985e9c51461027b578063f2fde38b1461028e57600080fd5b806370a0823114610206578063715018a6146102195780638da5cb5b1461022157806395d89b4114610232578063a22cb4651461023a57600080fd5b806323b872dd116100f457806323b872dd146101a35780633771aaa1146101b657806342842e0e146101c957806361b8ce8c146101dc5780636352211e146101f357600080fd5b806301ffc9a71461012657806306fdde031461014e578063081812fc14610163578063095ea7b31461018e575b600080fd5b610139610134366004610f29565b6102a1565b60405190151581526020015b60405180910390f35b6101566102f3565b6040516101459190610f93565b610176610171366004610fa6565b610385565b6040516001600160a01b039091168152602001610145565b6101a161019c366004610fdb565b6103ac565b005b6101a16101b1366004611005565b6104c6565b6101a16101c4366004611041565b6104f7565b6101a16101d7366004611005565b610555565b6101e560075481565b604051908152602001610145565b610176610201366004610fa6565b610570565b6101e56102143660046110b6565b6105d0565b6101a1610656565b6006546001600160a01b0316610176565b61015661066a565b6101a16102483660046110d1565b610679565b6101a161025b366004611123565b610688565b61015661026e366004610fa6565b6106ba565b6101566106e4565b6101396102893660046111ff565b610700565b6101a161029c3660046110b6565b61072e565b60006001600160e01b031982166380ac58cd60e01b14806102d257506001600160e01b03198216635b5e139f60e01b145b806102ed57506301ffc9a760e01b6001600160e01b03198316145b92915050565b60606000805461030290611232565b80601f016020809104026020016040519081016040528092919081815260200182805461032e90611232565b801561037b5780601f106103505761010080835404028352916020019161037b565b820191906000526020600020905b81548152906001019060200180831161035e57829003601f168201915b5050505050905090565b6000610390826107a7565b506000908152600460205260409020546001600160a01b031690565b60006103b782610570565b9050806001600160a01b0316836001600160a01b0316036104295760405162461bcd60e51b815260206004820152602160248201527f4552433732313a20617070726f76616c20746f2063757272656e74206f776e656044820152603960f91b60648201526084015b60405180910390fd5b336001600160a01b038216148061044557506104458133610700565b6104b75760405162461bcd60e51b815260206004820152603d60248201527f4552433732313a20617070726f76652063616c6c6572206973206e6f7420746f60448201527f6b656e206f776e6572206f7220617070726f76656420666f7220616c6c0000006064820152608401610420565b6104c18383610806565b505050565b6104d03382610874565b6104ec5760405162461bcd60e51b81526004016104209061126c565b6104c18383836108d3565b6104ff610a44565b8060005b8181101561054f5761053d848483818110610520576105206112b9565b905060200201602081019061053591906110b6565b600754610a9e565b60078054600190810190915501610503565b50505050565b6104c183838360405180602001604052806000815250610688565b6000818152600260205260408120546001600160a01b0316806102ed5760405162461bcd60e51b8152602060048201526018602482015277115490cdcc8c4e881a5b9d985b1a59081d1bdad95b88125160421b6044820152606401610420565b60006001600160a01b03821661063a5760405162461bcd60e51b815260206004820152602960248201527f4552433732313a2061646472657373207a65726f206973206e6f7420612076616044820152683634b21037bbb732b960b91b6064820152608401610420565b506001600160a01b031660009081526003602052604090205490565b61065e610a44565b6106686000610c37565b565b60606001805461030290611232565b610684338383610c89565b5050565b6106923383610874565b6106ae5760405162461bcd60e51b81526004016104209061126c565b61054f84848484610d57565b60606106c5826107a7565b6040518060800160405280604281526020016113fd6042913992915050565b6040518060800160405280604281526020016113fd6042913981565b6001600160a01b03918216600090815260056020908152604080832093909416825291909152205460ff1690565b610736610a44565b6001600160a01b03811661079b5760405162461bcd60e51b815260206004820152602660248201527f4f776e61626c653a206e6577206f776e657220697320746865207a65726f206160448201526564647265737360d01b6064820152608401610420565b6107a481610c37565b50565b6000818152600260205260409020546001600160a01b03166107a45760405162461bcd60e51b8152602060048201526018602482015277115490cdcc8c4e881a5b9d985b1a59081d1bdad95b88125160421b6044820152606401610420565b600081815260046020526040902080546001600160a01b0319166001600160a01b038416908117909155819061083b82610570565b6001600160a01b03167f8c5be1e5ebec7d5bd14f71427d1e84f3dd0314c0f7b2291e5b200ac8c7c3b92560405160405180910390a45050565b60008061088083610570565b9050806001600160a01b0316846001600160a01b031614806108a757506108a78185610700565b806108cb5750836001600160a01b03166108c084610385565b6001600160a01b0316145b949350505050565b826001600160a01b03166108e682610570565b6001600160a01b03161461090c5760405162461bcd60e51b8152600401610420906112cf565b6001600160a01b03821661096e5760405162461bcd60e51b8152602060048201526024808201527f4552433732313a207472616e7366657220746f20746865207a65726f206164646044820152637265737360e01b6064820152608401610420565b61097b8383836001610d8a565b826001600160a01b031661098e82610570565b6001600160a01b0316146109b45760405162461bcd60e51b8152600401610420906112cf565b600081815260046020908152604080832080546001600160a01b03199081169091556001600160a01b0387811680865260038552838620805460001901905590871680865283862080546001019055868652600290945282852080549092168417909155905184937fddf252ad1be2c89b69c2b068fc378daa952ba7f163c4a11628f55a4df523b3ef91a4505050565b6006546001600160a01b031633146106685760405162461bcd60e51b815260206004820181905260248201527f4f776e61626c653a2063616c6c6572206973206e6f7420746865206f776e65726044820152606401610420565b6001600160a01b038216610af45760405162461bcd60e51b815260206004820181905260248201527f4552433732313a206d696e7420746f20746865207a65726f20616464726573736044820152606401610420565b6000818152600260205260409020546001600160a01b031615610b595760405162461bcd60e51b815260206004820152601c60248201527f4552433732313a20746f6b656e20616c7265616479206d696e746564000000006044820152606401610420565b610b67600083836001610d8a565b6000818152600260205260409020546001600160a01b031615610bcc5760405162461bcd60e51b815260206004820152601c60248201527f4552433732313a20746f6b656e20616c7265616479206d696e746564000000006044820152606401610420565b6001600160a01b038216600081815260036020908152604080832080546001019055848352600290915280822080546001600160a01b0319168417905551839291907fddf252ad1be2c89b69c2b068fc378daa952ba7f163c4a11628f55a4df523b3ef908290a45050565b600680546001600160a01b038381166001600160a01b0319831681179093556040519116919082907f8be0079c531659141344cd1fd0a4f28419497f9722a3daafe3b4186f6b6457e090600090a35050565b816001600160a01b0316836001600160a01b031603610cea5760405162461bcd60e51b815260206004820152601960248201527f4552433732313a20617070726f766520746f2063616c6c6572000000000000006044820152606401610420565b6001600160a01b03838116600081815260056020908152604080832094871680845294825291829020805460ff191686151590811790915591519182527f17307eab39ab6107e8899845ad3d59bd9653f200f220920489ca2b5937696c31910160405180910390a3505050565b610d628484846108d3565b610d6e84848484610e12565b61054f5760405162461bcd60e51b815260040161042090611314565b600181111561054f576001600160a01b03841615610dd0576001600160a01b03841660009081526003602052604081208054839290610dca90849061137c565b90915550505b6001600160a01b0383161561054f576001600160a01b03831660009081526003602052604081208054839290610e0790849061138f565b909155505050505050565b60006001600160a01b0384163b15610f0857604051630a85bd0160e11b81526001600160a01b0385169063150b7a0290610e569033908990889088906004016113a2565b6020604051808303816000875af1925050508015610e91575060408051601f3d908101601f19168201909252610e8e918101906113df565b60015b610eee573d808015610ebf576040519150601f19603f3d011682016040523d82523d6000602084013e610ec4565b606091505b508051600003610ee65760405162461bcd60e51b815260040161042090611314565b805181602001fd5b6001600160e01b031916630a85bd0160e11b1490506108cb565b506001949350505050565b6001600160e01b0319811681146107a457600080fd5b600060208284031215610f3b57600080fd5b8135610f4681610f13565b9392505050565b6000815180845260005b81811015610f7357602081850181015186830182015201610f57565b506000602082860101526020601f19601f83011685010191505092915050565b602081526000610f466020830184610f4d565b600060208284031215610fb857600080fd5b5035919050565b80356001600160a01b0381168114610fd657600080fd5b919050565b60008060408385031215610fee57600080fd5b610ff783610fbf565b946020939093013593505050565b60008060006060848603121561101a57600080fd5b61102384610fbf565b925061103160208501610fbf565b9150604084013590509250925092565b6000806020838503121561105457600080fd5b823567ffffffffffffffff8082111561106c57600080fd5b818501915085601f83011261108057600080fd5b81358181111561108f57600080fd5b8660208260051b85010111156110a457600080fd5b60209290920196919550909350505050565b6000602082840312156110c857600080fd5b610f4682610fbf565b600080604083850312156110e457600080fd5b6110ed83610fbf565b91506020830135801515811461110257600080fd5b809150509250929050565b634e487b7160e01b600052604160045260246000fd5b6000806000806080858703121561113957600080fd5b61114285610fbf565b935061115060208601610fbf565b925060408501359150606085013567ffffffffffffffff8082111561117457600080fd5b818701915087601f83011261118857600080fd5b81358181111561119a5761119a61110d565b604051601f8201601f19908116603f011681019083821181831017156111c2576111c261110d565b816040528281528a60208487010111156111db57600080fd5b82602086016020830137600060208483010152809550505050505092959194509250565b6000806040838503121561121257600080fd5b61121b83610fbf565b915061122960208401610fbf565b90509250929050565b600181811c9082168061124657607f821691505b60208210810361126657634e487b7160e01b600052602260045260246000fd5b50919050565b6020808252602d908201527f4552433732313a2063616c6c6572206973206e6f7420746f6b656e206f776e6560408201526c1c881bdc88185c1c1c9bdd9959609a1b606082015260800190565b634e487b7160e01b600052603260045260246000fd5b60208082526025908201527f4552433732313a207472616e736665722066726f6d20696e636f72726563742060408201526437bbb732b960d91b606082015260800190565b60208082526032908201527f4552433732313a207472616e7366657220746f206e6f6e20455243373231526560408201527131b2b4bb32b91034b6b83632b6b2b73a32b960711b606082015260800190565b634e487b7160e01b600052601160045260246000fd5b818103818111156102ed576102ed611366565b808201808211156102ed576102ed611366565b6001600160a01b03858116825284166020820152604081018390526080606082018190526000906113d590830184610f4d565b9695505050505050565b6000602082840312156113f157600080fd5b8151610f4681610f1356fe697066733a2f2f6261666b726569637564766d6236756c6f796d3374706b75376b787678736d3767346f646a356b6872616e7434366b6f366671363636663261676da2646970667358221220ce52c089287ed69c72c7327c3c881f42460921f2373f1fce11afc78eccc8494164736f6c63430008110033",
        "nonce": "0xc",
        "accessList": []
      },
      "additionalContracts": []
    },
    {
      "hash": "0x724c8164f9878d82c5c588571dd29ad9253a80cbac3c82117073cf7c064d98cc",
      "transactionType": "CALL",
      "contractName": "IW",
      "contractAddress": "0x24757E4b5AD64e6b48d78Dc800D45b4061698757",
      "function": "bulkMint(address[])",
      "arguments": [
        "[0x0FF104944594bbd7Aa2953a5bea1dAc1C7F330a0, 0x1160387A36953aFC5d80C0Ea7b6B5447774aF8E5, 0x1166Ae53a4d8779532260dfdd84Dc065Bcc5B1a4, 0x145EB0c7F29E0d9481473623eF3c2182A58EDE01, 0x14aB49bda0bC2d0f939135F715EE7CcB8FEe62f3, 0x14b16Ab34fB80f7Bdfd694394600898416a1821c, 0x15D3FfAc9B7D5dBbEE095910Db6380040222b99f, 0x1a8a81651582F74b283A6f46BEc63394cd01572B, 0x1aB709906Bb19663e7593426EF04909F185DF0f1, 0x1B4E1EB068A67F9840104cA55170Ace627890067, 0x1dDe7b19fa3150a06e3307341E9b8cC5E95122D4, 0x1E01e1a27Eb079820055D97830A1C663a3ad8fFe, 0x1E2fA044A25bCA1576eD94562Db50F51dCc24cA8, 0x1e7F2ef8BbdE7FCaea03Ba0C83d5D293D066f41c, 0x2302426a34796a3883d524d3731f539dEa696e60, 0x239D7a7574941C5c00f8C072c17Be154DD69ab20, 0x245c7A1dD726f0D7238aD63C2F2B282eAac72482, 0x2612b77E5ee1b5feeDdD5eC08731749bC2217F54, 0x27407CaDAd03b2194f96674cf8CFaB5121F09248, 0x27F8602E403B6EA18f8711A7858fa4a94ef3269b, 0x2808370606f07A16442A77bA45b9994bEeC6aEd2, 0x2844A1F5c5164B9adAE211DF8931838A2d33b5ED, 0x2856cf9905D923469bB749e9787Fc953B0a321e8, 0x2891F651ffb4706A3ACFE3d9c889Ea83E2bd6582, 0x2A7051d7CBbEF7B6889f8e14774020b1653b94C1, 0x2DF8063c53ebd6270acde4E996a925c531fCFDfE, 0x304F380c57Ff3df85578A06e81b89fb210BDcE71, 0x31AE2c2cAEC2Bc9211cC6E55D73Dc3e874BaBdbb, 0x32cb4d6093B854061c63C1D3f243347a45A17E0B, 0x38Ef64162B682703CeB0E425827958E9f5dB02C1, 0x38FD9E0966dFab3CB59d6d5E5CcC7c05aabef8AE, 0x3a021BA306d8E595d120BBb1a0dC05dd9F2af5d9, 0x3C2d6d7144241F1F1203c29C124585e55B58975E, 0x3Eb04D134DC9F2b9111E020Df1614aC53722266F, 0x3F049E5850229d18f01460DFda38c3ea6422b5a4, 0x3fA99Ea896f716D0cFBe370A8f6bEc32a880F6dC, 0x4129b4337d5A2F7278A02Ff15Bb1e4E548D8eE60, 0x4444A136b1445B1f5e4a20656854adCF6Fa3d667, 0x451782b1FaC3B8020309c1fa9203b01BF82dEabE, 0x452a9b6432CD228410f01A1Da754449C8bAfc85a, 0x458Aa8Eb5D673D6f9bAe964aF2c25d64f4a19878, 0x45faDDEa1c17a97Cf61DD605226d511Fd09DFF7f, 0x478aEfbBaDE4fed8E527c98552B68404Ea0a304B, 0x48Cf51dD57A69266E0B2eA463931daE3820147d4, 0x49E3cF47606a5Da7B11b270A790E2112a467485f, 0x49f8247F494AEBf1Cdb5b431Ee6dD780F89A98EB, 0x4a0f8323a112944d54C4630E10Eb77C198FA9e4c, 0x4Bce1d711EA4e033aD5E7d48d2F63fB24FE4b5E3, 0x5122b4D90185958FAa110a3A02B647C755B977Fd, 0x53Ad76dacfAdE8789684aEBb5dC3f7E079bf8596]"
      ],
      "rpc": "https://rpc2.alto.build",
      "transaction": {
        "type": "0x02",
        "from": "0xb912354202419695ae69e38aa77d56856cc850f4",
        "to": "0x24757e4b5ad64e6b48d78dc800d45b4061698757",
        "gas": "0x335958",
        "value": "0x0",
        "data": "0x3771aaa1000000000000000000000000000000000000000000000000000000000000002000000000000000000000000000000000000000000000000000000000000000320000000000000000000000000ff104944594bbd7aa2953a5bea1dac1c7f330a00000000000000000000000001160387a36953afc5d80c0ea7b6b5447774af8e50000000000000000000000001166ae53a4d8779532260dfdd84dc065bcc5b1a4000000000000000000000000145eb0c7f29e0d9481473623ef3c2182a58ede0100000000000000000000000014ab49bda0bc2d0f939135f715ee7ccb8fee62f300000000000000000000000014b16ab34fb80f7bdfd694394600898416a1821c00000000000000000000000015d3ffac9b7d5dbbee095910db6380040222b99f0000000000000000000000001a8a81651582f74b283a6f46bec63394cd01572b0000000000000000000000001ab709906bb19663e7593426ef04909f185df0f10000000000000000000000001b4e1eb068a67f9840104ca55170ace6278900670000000000000000000000001dde7b19fa3150a06e3307341e9b8cc5e95122d40000000000000000000000001e01e1a27eb079820055d97830a1c663a3ad8ffe0000000000000000000000001e2fa044a25bca1576ed94562db50f51dcc24ca80000000000000000000000001e7f2ef8bbde7fcaea03ba0c83d5d293d066f41c0000000000000000000000002302426a34796a3883d524d3731f539dea696e60000000000000000000000000239d7a7574941c5c00f8c072c17be154dd69ab20000000000000000000000000245c7a1dd726f0d7238ad63c2f2b282eaac724820000000000000000000000002612b77e5ee1b5feeddd5ec08731749bc2217f5400000000000000000000000027407cadad03b2194f96674cf8cfab5121f0924800000000000000000000000027f8602e403b6ea18f8711a7858fa4a94ef3269b0000000000000000000000002808370606f07a16442a77ba45b9994beec6aed20000000000000000000000002844a1f5c5164b9adae211df8931838a2d33b5ed0000000000000000000000002856cf9905d923469bb749e9787fc953b0a321e80000000000000000000000002891f651ffb4706a3acfe3d9c889ea83e2bd65820000000000000000000000002a7051d7cbbef7b6889f8e14774020b1653b94c10000000000000000000000002df8063c53ebd6270acde4e996a925c531fcfdfe000000000000000000000000304f380c57ff3df85578a06e81b89fb210bdce7100000000000000000000000031ae2c2caec2bc9211cc6e55d73dc3e874babdbb00000000000000000000000032cb4d6093b854061c63c1d3f243347a45a17e0b00000000000000000000000038ef64162b682703ceb0e425827958e9f5db02c100000000000000000000000038fd9e0966dfab3cb59d6d5e5ccc7c05aabef8ae0000000000000000000000003a021ba306d8e595d120bbb1a0dc05dd9f2af5d90000000000000000000000003c2d6d7144241f1f1203c29c124585e55b58975e0000000000000000000000003eb04d134dc9f2b9111e020df1614ac53722266f0000000000000000000000003f049e5850229d18f01460dfda38c3ea6422b5a40000000000000000000000003fa99ea896f716d0cfbe370a8f6bec32a880f6dc0000000000000000000000004129b4337d5a2f7278a02ff15bb1e4e548d8ee600000000000000000000000004444a136b1445b1f5e4a20656854adcf6fa3d667000000000000000000000000451782b1fac3b8020309c1fa9203b01bf82deabe000000000000000000000000452a9b6432cd228410f01a1da754449c8bafc85a000000000000000000000000458aa8eb5d673d6f9bae964af2c25d64f4a1987800000000000000000000000045faddea1c17a97cf61dd605226d511fd09dff7f000000000000000000000000478aefbbade4fed8e527c98552b68404ea0a304b00000000000000000000000048cf51dd57a69266e0b2ea463931dae3820147d400000000000000000000000049e3cf47606a5da7b11b270a790e2112a467485f00000000000000000000000049f8247f494aebf1cdb5b431ee6dd780f89a98eb0000000000000000000000004a0f8323a112944d54c4630e10eb77c198fa9e4c0000000000000000000000004bce1d711ea4e033ad5e7d48d2f63fb24fe4b5e30000000000000000000000005122b4d90185958faa110a3a02b647c755b977fd00000000000000000000000053ad76dacfade8789684aebb5dc3f7e079bf8596",
        "nonce": "0xd",
        "accessList": []
      },
      "additionalContracts": []
    },
    {
      "hash": "0x7be72974c62c79aba2f799f4fe93fe461e9a5a32e70d54e7ca0db070af2284c1",
      "transactionType": "CALL",
      "contractName": "IW",
      "contractAddress": "0x24757E4b5AD64e6b48d78Dc800D45b4061698757",
      "function": "bulkMint(address[])",
      "arguments": [
        "[0x53E262Aa44D9fd193BE60ab035C41f97ef4eEA2a, 0x54a1FAAC5cF50040CA24c0B4b36998902C7C247A, 0x5823443272C330e1A28cEa0038e70196b785dBdd, 0x5833869fdEB4D371b854D7474F5F84B43320FD05, 0x59eAf2855d16AfFa5eE35F4A1B9F01FebD450925, 0x5a7749f83b81B301cAb5f48EB8516B986DAef23D, 0x5b6DC4073fC99b4Af64fe7E19868f11964F80D1A, 0x5B7BEb30A2009D1b6d388Ce319572556b24861Af, 0x5C461A0C595d6B2a4b0f4a42fD55bE7aAeD8aF80, 0x5C49d4a6Bb9A4c393a0680cEdc46EC7F8D49E4a1, 0x5CAfbD5aE3EBEEfEAE0a1ef6ef21177df4e961a4, 0x5d96D8F927a7bf5F342017CAF70039B9e9CFC216, 0x5e0a088942EC09C9Ea98aE237625f063A3BeD237, 0x5fbe0aE423F1767028f150aA92545267507588eF, 0x5FD2E3ba05C862E62a34B9F63c45C0DF622Ac112, 0x62CFCd9B95c0Fa404bCD14d6163BC6d84003904c, 0x64DcbEaD3B25B94c1C07158c8a6aD6517B95513E, 0x659E763336606A3CEdF05d70baa34A5644C1afFE, 0x65a7C3Cb6d1C3cEf361063C57936d9d4c9D7bCAB, 0x66d4908E053F7150038b1bF3579cF384fde0BA72, 0x67D9057494e2E1B7361251043843Db3c2ABF8177, 0x691a2B9522EEfcEfc870Ec35ee43AD8E60a0bC8f, 0x694367eA528240fec8172581282FF171A6ec39Aa, 0x69C38C760634C23F3a3D9bE441ecCbD2e50e5F73, 0x6a946845A742a80a07Ce1181E68d91D3F0232EC0, 0x6A9e6d86475A3061674aBea97B1Cbd9f67815eAD, 0x6B38b2f7f357CF97Bd58Eb5D2f94e3cDc8A7e70c, 0x6Ca7B32902EA9dCf9E184830b85C7Ba40B742811, 0x6D526f6b4C86FBdc8e359e6bef4Cd6a42aceA2d7, 0x6d7d0B5EDa14e33Bf1c1D05dd4f1B1Ce4fb06581, 0x6dA0a1784De1aBDDe1734bA37eCa3d560bf044c0, 0x6dE3e46cCE02A39D74e55EB8D23E5b175cab882a, 0x70Ac5FaE65E0f80c737916cF2F5e36C065b74Ada, 0x716722C80757FFF31DA3F3C392A1736b7cfa3A3e, 0x71b99DA67FdBAb5A90F0eae8581E29259a259856, 0x71D5daa6A7Dc1b94918c8768749b5F9982200660, 0x7310943e6a4CA96F56cF627D20b50b575BD2d97F, 0x73393c2608F9AEaF15fCB2b89af777112ea12947, 0x74dF3F79e48220Af12c8DA4737bE2de223836C99, 0x7848e1d2D6046c5e75a98268afbec4e0c5b2bBe0, 0x79077aDAd716e1351dFC7e386fD5D19CB130c779, 0x7C09c4155901Ca623E2f9Fe9205d5621a821a5dD, 0x81D042efe63A578188B258CE02f2eA78510f00a6, 0x82e8e8565AFF16A68E31972755C55dF22b2E3938, 0x82f659531DEf6e3893Aa584Ca242ccD338AE1F0e, 0x835FaE1cdcF149D0C6b73B04cA82e9376E924A0C, 0x84641137BaC4Db68DE94Ec3D2ED89acE0AA88f20, 0x8625AfdbF3744D433D850c681Ba881d028253c8A, 0x8Bf64312bE1d4E502dCC0533d5cadf0a4f8D551e, 0x8f99B0b48b23908Da9f727B5083052d5099e6aea]"
      ],
      "rpc": "https://rpc2.alto.build",
      "transaction": {
        "type": "0x02",
        "from": "0xb912354202419695ae69e38aa77d56856cc850f4",
        "to": "0x24757e4b5ad64e6b48d78dc800d45b4061698757",
        "gas": "0x32fd05",
        "value": "0x0",
        "data": "0x3771aaa10000000000000000000000000000000000000000000000000000000000000020000000000000000000000000000000000000000000000000000000000000003200000000000000000000000053e262aa44d9fd193be60ab035c41f97ef4eea2a00000000000000000000000054a1faac5cf50040ca24c0b4b36998902c7c247a0000000000000000000000005823443272c330e1a28cea0038e70196b785dbdd0000000000000000000000005833869fdeb4d371b854d7474f5f84b43320fd0500000000000000000000000059eaf2855d16affa5ee35f4a1b9f01febd4509250000000000000000000000005a7749f83b81b301cab5f48eb8516b986daef23d0000000000000000000000005b6dc4073fc99b4af64fe7e19868f11964f80d1a0000000000000000000000005b7beb30a2009d1b6d388ce319572556b24861af0000000000000000000000005c461a0c595d6b2a4b0f4a42fd55be7aaed8af800000000000000000000000005c49d4a6bb9a4c393a0680cedc46ec7f8d49e4a10000000000000000000000005cafbd5ae3ebeefeae0a1ef6ef21177df4e961a40000000000000000000000005d96d8f927a7bf5f342017caf70039b9e9cfc2160000000000000000000000005e0a088942ec09c9ea98ae237625f063a3bed2370000000000000000000000005fbe0ae423f1767028f150aa92545267507588ef0000000000000000000000005fd2e3ba05c862e62a34b9f63c45c0df622ac11200000000000000000000000062cfcd9b95c0fa404bcd14d6163bc6d84003904c00000000000000000000000064dcbead3b25b94c1c07158c8a6ad6517b95513e000000000000000000000000659e763336606a3cedf05d70baa34a5644c1affe00000000000000000000000065a7c3cb6d1c3cef361063c57936d9d4c9d7bcab00000000000000000000000066d4908e053f7150038b1bf3579cf384fde0ba7200000000000000000000000067d9057494e2e1b7361251043843db3c2abf8177000000000000000000000000691a2b9522eefcefc870ec35ee43ad8e60a0bc8f000000000000000000000000694367ea528240fec8172581282ff171a6ec39aa00000000000000000000000069c38c760634c23f3a3d9be441eccbd2e50e5f730000000000000000000000006a946845a742a80a07ce1181e68d91d3f0232ec00000000000000000000000006a9e6d86475a3061674abea97b1cbd9f67815ead0000000000000000000000006b38b2f7f357cf97bd58eb5d2f94e3cdc8a7e70c0000000000000000000000006ca7b32902ea9dcf9e184830b85c7ba40b7428110000000000000000000000006d526f6b4c86fbdc8e359e6bef4cd6a42acea2d70000000000000000000000006d7d0b5eda14e33bf1c1d05dd4f1b1ce4fb065810000000000000000000000006da0a1784de1abdde1734ba37eca3d560bf044c00000000000000000000000006de3e46cce02a39d74e55eb8d23e5b175cab882a00000000000000000000000070ac5fae65e0f80c737916cf2f5e36c065b74ada000000000000000000000000716722c80757fff31da3f3c392a1736b7cfa3a3e00000000000000000000000071b99da67fdbab5a90f0eae8581e29259a25985600000000000000000000000071d5daa6a7dc1b94918c8768749b5f99822006600000000000000000000000007310943e6a4ca96f56cf627d20b50b575bd2d97f00000000000000000000000073393c2608f9aeaf15fcb2b89af777112ea1294700000000000000000000000074df3f79e48220af12c8da4737be2de223836c990000000000000000000000007848e1d2d6046c5e75a98268afbec4e0c5b2bbe000000000000000000000000079077adad716e1351dfc7e386fd5d19cb130c7790000000000000000000000007c09c4155901ca623e2f9fe9205d5621a821a5dd00000000000000000000000081d042efe63a578188b258ce02f2ea78510f00a600000000000000000000000082e8e8565aff16a68e31972755c55df22b2e393800000000000000000000000082f659531def6e3893aa584ca242ccd338ae1f0e000000000000000000000000835fae1cdcf149d0c6b73b04ca82e9376e924a0c00000000000000000000000084641137bac4db68de94ec3d2ed89ace0aa88f200000000000000000000000008625afdbf3744d433d850c681ba881d028253c8a0000000000000000000000008bf64312be1d4e502dcc0533d5cadf0a4f8d551e0000000000000000000000008f99b0b48b23908da9f727b5083052d5099e6aea",
        "nonce": "0xe",
        "accessList": []
      },
      "additionalContracts": []
    },
    {
      "hash": "0x0f3aa0d634bc0305146d85bb6413932db10ca54926f6e05b7c01a4e4ba7e3b48",
      "transactionType": "CALL",
      "contractName": "IW",
      "contractAddress": "0x24757E4b5AD64e6b48d78Dc800D45b4061698757",
      "function": "bulkMint(address[])",
      "arguments": [
        "[0x911Bb65A13AF3f83cd0b60bf113B644b53D7E438, 0x917cf39cff45328cd63fb25312861b3bcC0B2626, 0x94F5a2C492A0Ab1c3dA2187bB2ED6FaD696920Ec, 0x967b073201215CaBBbC0F1c1f2b258683B495CB4, 0x96a77560146501eAEB5e6D5B7d8DD1eD23DEfa23, 0x98CCf605c43A0bF9D6795C3cf3b5fEd836330511, 0x9935eabEf41C6F9932579F2Eb86bdb77ffd63327, 0x9A15235379CF1111EA102850d442b743BF586FC5, 0x9A7d2514f0C404707A378e07D47e2CFfB065AB81, 0x9AF481276b075e036BC23E887a8Bd275e69Ef74C, 0x9afDbc669f83f2Eb81f5cB3c12d26454cB9c0e27, 0x9BB5173C7615f12892c64eab2A60059E785B8cDE, 0x9be8e4E9D4A68bBdAa8DEcaE9f728Ed50599Be7c, 0x9C0790Eb0F96B16Ea1806e20B0D0E21A31DC93BC, 0x9D0F63a1f277F96Fa7361AF622B0d719B22A37F5, 0x9E7A5b836Da4d55D681Eed4495370e96295c785f, 0x9eBd10B46B43351097caB2D3c03Ccf440957A2a9, 0x9Ee498513B382ccE8be6586F1Eb617799eF27073, 0x9ee73ec148b8f68DA65598Ebb497F1E7E9957219, 0x9eEC0B5Bd8A48047f0Dcc61E98B4b92951480F98, 0x9f7064DfE6CA5856B3aFd7A3B3974686A35bDaB5, 0x9FeCf056375A973308bB3D6fb6b1c230CfD21456, 0xA05B981B6FF59Ab94F6c4C589428C7e85B49e257, 0xa2e9eC27b948d85B11f7935728cB68E11D73D8Fd, 0xA3e51498579Db0f7bb1ec9E3093B2F44158E25a5, 0xa6a2b356718faf8CcE70E78f06712f1Ce5917D04, 0xA7269C74294E399D700A58Be9f035B652dd67e48, 0xA796d2204261770cb4045b00462A1edE3ff485EF, 0xAC9ba72fb61aA7c31A95df0A8b6ebA6f41EF875e, 0xAf0F0b5C4110dF25Ab46DD9F025084229A9f8352, 0xb012A1bDCA34E1d0c2267bb50e6c53C8042eB4b6, 0xb09A022D4114696324A54a80e6a62A24f8E38599, 0xB109e15Bb4f808e8CB64aad7d1e4588E0A1f4608, 0xB26000E692C74fC0E83534403624d3Af7a188f1F, 0xb4D372D55fd82EfD734f91813c0EBE1E77493f75, 0xB57aaE22f8Ce7524cae1704Dcc68EFDeDf1A4b8d, 0xB618aaCb9DcDc21Ca69D310A6fC04674D293A193, 0xB7A31346433430D92846f0181C55Fc506B9b22d8, 0xB909d06C30C63cC9229b64c28F65D6cAA3012BAc, 0xB96A4bc4ae0Bad1043FEB96147fc18B17176b138, 0xBC9a9fe486E471F33d68B442e699adD34a8D1689, 0xBd72D021d3cb334dEb3151Db905EE073b8eEE518, 0xbF6516bA27F3a26b90e11712a04767222E977FD7, 0xBFC9f6C46715755E2ee8b01f20AB36D22cB4Ad4f, 0xC1BD21eCd832ef3c3b1a393a0D66dD2B92c0a944, 0xC24D5B145C21f570A38CbB95CFD8EbB923182732, 0xC2EdF07f6823506a386e82aa595a2B5EBB9BDCE6, 0xC316f415096223561e2077c30A26043499d579aD, 0xC3DE4f9C763EC015DEB165D0A96FBAfA390286bc, 0xC438E5d32f9381b59072b9a0c730Cbac41575A4E]"
      ],
      "rpc": "https://rpc2.alto.build",
      "transaction": {
        "type": "0x02",
        "from": "0xb912354202419695ae69e38aa77d56856cc850f4",
        "to": "0x24757e4b5ad64e6b48d78dc800d45b4061698757",
        "gas": "0x35fd0d",
        "value": "0x0",
        "data": "0x3771aaa100000000000000000000000000000000000000000000000000000000000000200000000000000000000000000000000000000000000000000000000000000032000000000000000000000000911bb65a13af3f83cd0b60bf113b644b53d7e438000000000000000000000000917cf39cff45328cd63fb25312861b3bcc0b262600000000000000000000000094f5a2c492a0ab1c3da2187bb2ed6fad696920ec000000000000000000000000967b073201215cabbbc0f1c1f2b258683b495cb400000000000000000000000096a77560146501eaeb5e6d5b7d8dd1ed23defa2300000000000000000000000098ccf605c43a0bf9d6795c3cf3b5fed8363305110000000000000000000000009935eabef41c6f9932579f2eb86bdb77ffd633270000000000000000000000009a15235379cf1111ea102850d442b743bf586fc50000000000000000000000009a7d2514f0c404707a378e07d47e2cffb065ab810000000000000000000000009af481276b075e036bc23e887a8bd275e69ef74c0000000000000000000000009afdbc669f83f2eb81f5cb3c12d26454cb9c0e270000000000000000000000009bb5173c7615f12892c64eab2a60059e785b8cde0000000000000000000000009be8e4e9d4a68bbdaa8decae9f728ed50599be7c0000000000000000000000009c0790eb0f96b16ea1806e20b0d0e21a31dc93bc0000000000000000000000009d0f63a1f277f96fa7361af622b0d719b22a37f50000000000000000000000009e7a5b836da4d55d681eed4495370e96295c785f0000000000000000000000009ebd10b46b43351097cab2d3c03ccf440957a2a90000000000000000000000009ee498513b382cce8be6586f1eb617799ef270730000000000000000000000009ee73ec148b8f68da65598ebb497f1e7e99572190000000000000000000000009eec0b5bd8a48047f0dcc61e98b4b92951480f980000000000000000000000009f7064dfe6ca5856b3afd7a3b3974686a35bdab50000000000000000000000009fecf056375a973308bb3d6fb6b1c230cfd21456000000000000000000000000a05b981b6ff59ab94f6c4c589428c7e85b49e257000000000000000000000000a2e9ec27b948d85b11f7935728cb68e11d73d8fd000000000000000000000000a3e51498579db0f7bb1ec9e3093b2f44158e25a5000000000000000000000000a6a2b356718faf8cce70e78f06712f1ce5917d04000000000000000000000000a7269c74294e399d700a58be9f035b652dd67e48000000000000000000000000a796d2204261770cb4045b00462a1ede3ff485ef000000000000000000000000ac9ba72fb61aa7c31a95df0a8b6eba6f41ef875e000000000000000000000000af0f0b5c4110df25ab46dd9f025084229a9f8352000000000000000000000000b012a1bdca34e1d0c2267bb50e6c53c8042eb4b6000000000000000000000000b09a022d4114696324a54a80e6a62a24f8e38599000000000000000000000000b109e15bb4f808e8cb64aad7d1e4588e0a1f4608000000000000000000000000b26000e692c74fc0e83534403624d3af7a188f1f000000000000000000000000b4d372d55fd82efd734f91813c0ebe1e77493f75000000000000000000000000b57aae22f8ce7524cae1704dcc68efdedf1a4b8d000000000000000000000000b618aacb9dcdc21ca69d310a6fc04674d293a193000000000000000000000000b7a31346433430d92846f0181c55fc506b9b22d8000000000000000000000000b909d06c30c63cc9229b64c28f65d6caa3012bac000000000000000000000000b96a4bc4ae0bad1043feb96147fc18b17176b138000000000000000000000000bc9a9fe486e471f33d68b442e699add34a8d1689000000000000000000000000bd72d021d3cb334deb3151db905ee073b8eee518000000000000000000000000bf6516ba27f3a26b90e11712a04767222e977fd7000000000000000000000000bfc9f6c46715755e2ee8b01f20ab36d22cb4ad4f000000000000000000000000c1bd21ecd832ef3c3b1a393a0d66dd2b92c0a944000000000000000000000000c24d5b145c21f570a38cbb95cfd8ebb923182732000000000000000000000000c2edf07f6823506a386e82aa595a2b5ebb9bdce6000000000000000000000000c316f415096223561e2077c30a26043499d579ad000000000000000000000000c3de4f9c763ec015deb165d0a96fbafa390286bc000000000000000000000000c438e5d32f9381b59072b9a0c730cbac41575a4e",
        "nonce": "0xf",
        "accessList": []
      },
      "additionalContracts": []
    },
    {
      "hash": "0x6e9dac9ec26d0dca05138417a051abe25345d08e8192eebc74d727a8181c957b",
      "transactionType": "CALL",
      "contractName": "IW",
      "contractAddress": "0x24757E4b5AD64e6b48d78Dc800D45b4061698757",
      "function": "bulkMint(address[])",
      "arguments": [
        "[0xC46aA1c8eCd21ECed811EC5B93Bef4aF3B54597d, 0xC864B0Ab18B0ED0BeAb72F915Bacb12971FDb73a, 0xc93C7f71581DFEAAb59BEd908888dAC5689F312a, 0xCA6F3Defbc6041299837725f6430f33B0F24e5C0, 0xCb5d4b21FeD74EDc68782fE07d084759c9c54151, 0xcBdccb3e11777dA45a2f2c9B3aE323D90B1F8A87, 0xCCa178a04D83Af193330C7927fb9a42212Fb1C25, 0xD0a2Fe011342c2E59A81866aE5Bbd6E13C6C572f, 0xd319f112bf73eAe5e3cf06bF8D4076cC5f8B1cD5, 0xd35fC346e15BA5b446917C9fD23A9471d6144701, 0xd5781432F72b4a63127eb2046703a208bC6271d0, 0xD674d9DBEa02B7457408Ed2Cd21051498ec8d13c, 0xD8404763Bce69672B42d9409f3aC9B4b2E684CFb, 0xDadB0d23F30Ea579256C224F7319acAE8a61A993, 0xDaf6f334d49AbF1065E6D1Dbf5EA04F563D424C2, 0xdBF12DA73B3Fa72835acE6C943a0A59fDA69E48a, 0xE2b424053b9ebFCEdF89ECB8Bf2972974E98700C, 0xe66ae95575349194bB1621e2adc09975d240c784, 0xE9EDDde6aF419faAB642921e24f68349Ec5B9071, 0xeA310C966D3Ff5E09c65487f1763B21361Eb71eF, 0xEc7EAF1f54A1b8080EC7026C0E09F5f6BeD2604c, 0xEe4e40B6c014AeA60DA6d095b3F1aEDD2574410F, 0xeF0429B038740d98598427980Ad78399b8Ca0ba2, 0xf1D7e1856a75374B5965a1AA10C5da8DA5d16567, 0xF396923a852Cb675AA52604ECD6489385dA4b9Cf, 0xF3D9281fa183B74F32B96E1c5244596045f4edE8, 0xF76432B894E8F44BF154859662F6EBa60394D70D, 0xf88F0343791260ED716DE416C3bb03219aB54B90, 0xF8e07D60D9b7651A319eda851D9579590bDE12e3, 0xfb40034905B34753b7d74223e496518D43548336, 0xFbE66EE60FBF7B4B1659604472C8A251eC7AaB64, 0xFc61cC811C53C7A71b1806A1eaB14FE13E0dBB32, 0xFCB33fbe33e1f0f066b41c24D91E994D8fd8e526, 0xFF79B76AdcAf2D31Bc58152d7e4De5509dC43A39, 0x00f1403069DC9459E897b74CD3eda1b6236445f6, 0x02F910d5B36dCDD9Ddd96e3c7F1292B8ff9Fd68B, 0x037dFD569DeFBC08aE28001159b4c49f6d006cfF, 0x047C4d7Af709ae19D3BBbD5F9E10461d2554dA00, 0x05d340eF6f07F8A5D676B6f019A3b4EBcdf8f959, 0x0aa0Bc25769C52e623D09A9764e079A221BeA2a1, 0x0af80D3FE4BAbEbCBC991100b5Ed5f7e6364d37f, 0x0Bb75bEf057da63a0ae4B25fe9aDaFd35cd92B87, 0x0DD399a7ED92283e4983C2974FE377070D67f4eB, 0x0ef004C406374Cda5115422a218c45f4b22Cf290]"
      ],
      "rpc": "https://rpc2.alto.build",
      "transaction": {
        "type": "0x02",
        "from": "0xb912354202419695ae69e38aa77d56856cc850f4",
        "to": "0x24757e4b5ad64e6b48d78dc800d45b4061698757",
        "gas": "0x2f960b",
        "value": "0x0",
        "data": "0x3771aaa10000000000000000000000000000000000000000000000000000000000000020000000000000000000000000000000000000000000000000000000000000002c000000000000000000000000c46aa1c8ecd21eced811ec5b93bef4af3b54597d000000000000000000000000c864b0ab18b0ed0beab72f915bacb12971fdb73a000000000000000000000000c93c7f71581dfeaab59bed908888dac5689f312a000000000000000000000000ca6f3defbc6041299837725f6430f33b0f24e5c0000000000000000000000000cb5d4b21fed74edc68782fe07d084759c9c54151000000000000000000000000cbdccb3e11777da45a2f2c9b3ae323d90b1f8a87000000000000000000000000cca178a04d83af193330c7927fb9a42212fb1c25000000000000000000000000d0a2fe011342c2e59a81866ae5bbd6e13c6c572f000000000000000000000000d319f112bf73eae5e3cf06bf8d4076cc5f8b1cd5000000000000000000000000d35fc346e15ba5b446917c9fd23a9471d6144701000000000000000000000000d5781432f72b4a63127eb2046703a208bc6271d0000000000000000000000000d674d9dbea02b7457408ed2cd21051498ec8d13c000000000000000000000000d8404763bce69672b42d9409f3ac9b4b2e684cfb000000000000000000000000dadb0d23f30ea579256c224f7319acae8a61a993000000000000000000000000daf6f334d49abf1065e6d1dbf5ea04f563d424c2000000000000000000000000dbf12da73b3fa72835ace6c943a0a59fda69e48a000000000000000000000000e2b424053b9ebfcedf89ecb8bf2972974e98700c000000000000000000000000e66ae95575349194bb1621e2adc09975d240c784000000000000000000000000e9eddde6af419faab642921e24f68349ec5b9071000000000000000000000000ea310c966d3ff5e09c65487f1763b21361eb71ef000000000000000000000000ec7eaf1f54a1b8080ec7026c0e09f5f6bed2604c000000000000000000000000ee4e40b6c014aea60da6d095b3f1aedd2574410f000000000000000000000000ef0429b038740d98598427980ad78399b8ca0ba2000000000000000000000000f1d7e1856a75374b5965a1aa10c5da8da5d16567000000000000000000000000f396923a852cb675aa52604ecd6489385da4b9cf000000000000000000000000f3d9281fa183b74f32b96e1c5244596045f4ede8000000000000000000000000f76432b894e8f44bf154859662f6eba60394d70d000000000000000000000000f88f0343791260ed716de416c3bb03219ab54b90000000000000000000000000f8e07d60d9b7651a319eda851d9579590bde12e3000000000000000000000000fb40034905b34753b7d74223e496518d43548336000000000000000000000000fbe66ee60fbf7b4b1659604472c8a251ec7aab64000000000000000000000000fc61cc811c53c7a71b1806a1eab14fe13e0dbb32000000000000000000000000fcb33fbe33e1f0f066b41c24d91e994d8fd8e526000000000000000000000000ff79b76adcaf2d31bc58152d7e4de5509dc43a3900000000000000000000000000f1403069dc9459e897b74cd3eda1b6236445f600000000000000000000000002f910d5b36dcdd9ddd96e3c7f1292b8ff9fd68b000000000000000000000000037dfd569defbc08ae28001159b4c49f6d006cff000000000000000000000000047c4d7af709ae19d3bbbd5f9e10461d2554da0000000000000000000000000005d340ef6f07f8a5d676b6f019a3b4ebcdf8f9590000000000000000000000000aa0bc25769c52e623d09a9764e079a221bea2a10000000000000000000000000af80d3fe4babebcbc991100b5ed5f7e6364d37f0000000000000000000000000bb75bef057da63a0ae4b25fe9adafd35cd92b870000000000000000000000000dd399a7ed92283e4983c2974fe377070d67f4eb0000000000000000000000000ef004c406374cda5115422a218c45f4b22cf290",
        "nonce": "0x10",
        "accessList": []
      },
      "additionalContracts": []
    }
  ],
  "receipts": [
    {
      "transactionHash": "0x739135cbc5839b5a9e7e5cf977d6f7f28ccdf5cf463944c357f09ab73909e4e0",
      "transactionIndex": "0x1",
      "blockHash": "0xc7f84b9df741019fc2847905adfb42c9b9af489fbc2272ac8ea70038e7be19fa",
      "blockNumber": "0x2eba98",
      "from": "0xb912354202419695Ae69E38aA77d56856Cc850f4",
      "to": null,
      "cumulativeGasUsed": "0x1a2faa",
      "gasUsed": "0x14152a",
      "contractAddress": "0x24757E4b5AD64e6b48d78Dc800D45b4061698757",
      "logs": [
        {
          "address": "0x24757E4b5AD64e6b48d78Dc800D45b4061698757",
          "topics": [
            "0x8be0079c531659141344cd1fd0a4f28419497f9722a3daafe3b4186f6b6457e0",
            "0x0000000000000000000000000000000000000000000000000000000000000000",
            "0x000000000000000000000000b912354202419695ae69e38aa77d56856cc850f4"
          ],
          "data": "0x",
          "blockHash": "0xc7f84b9df741019fc2847905adfb42c9b9af489fbc2272ac8ea70038e7be19fa",
          "blockNumber": "0x2eba98",
          "transactionHash": "0x739135cbc5839b5a9e7e5cf977d6f7f28ccdf5cf463944c357f09ab73909e4e0",
          "transactionIndex": "0x1",
          "logIndex": "0xb",
          "removed": false
        },
        {
          "address": "0xEcf044C5B4b867CFda001101c617eCd347095B44",
          "topics": [
            "0x8a0e37b73a0d9c82e205d4d1a3ff3d0b57ce5f4d7bccf6bac03336dc101cb7ba"
          ],
          "data": "0x00000000000000000000000024757e4b5ad64e6b48d78dc800d45b4061698757000000000000000000000000000000000000000000000000000000000000003c",
          "blockHash": "0xc7f84b9df741019fc2847905adfb42c9b9af489fbc2272ac8ea70038e7be19fa",
          "blockNumber": "0x2eba98",
          "transactionHash": "0x739135cbc5839b5a9e7e5cf977d6f7f28ccdf5cf463944c357f09ab73909e4e0",
          "transactionIndex": "0x1",
          "logIndex": "0xc",
          "removed": false
        }
      ],
      "status": "0x1",
      "logsBloom": "0x02000000000000000000000000000000000000000000000000800000000000000000000000000000000000000000000000000000000000000000000000000000000000000000000000000000000000000001000000000000000000000000000000000000020000000000000000008800000010000000000000000040000000400000000000000000000100800000000000000000000000000000000000000080000000000004000000000000000000000000000000000000000000000000000000000000000000000000000000000000000000000000000000000000000020000000000000000000002020000000000000000000000000000040000000000002",
      "effectiveGasPrice": "0xf761ef6100"
    },
    {
      "transactionHash": "0x724c8164f9878d82c5c588571dd29ad9253a80cbac3c82117073cf7c064d98cc",
      "transactionIndex": "0x0",
      "blockHash": "0xeda38a7bbc365267f0c055e6db5028bb58d2f240df8c6f1b3c58a86a697f282f",
      "blockNumber": "0x2eba9a",
      "from": "0xb912354202419695Ae69E38aA77d56856Cc850f4",
      "to": "0x24757E4b5AD64e6b48d78Dc800D45b4061698757",
      "cumulativeGasUsed": "0x252cff",
      "gasUsed": "0x252cff",
      "contractAddress": null,
      "logs": [
        {
          "address": "0x24757E4b5AD64e6b48d78Dc800D45b4061698757",
          "topics": [
            "0xddf252ad1be2c89b69c2b068fc378daa952ba7f163c4a11628f55a4df523b3ef",
            "0x0000000000000000000000000000000000000000000000000000000000000000",
            "0x0000000000000000000000000ff104944594bbd7aa2953a5bea1dac1c7f330a0",
            "0x0000000000000000000000000000000000000000000000000000000000000000"
          ],
          "data": "0x",
          "blockHash": "0xeda38a7bbc365267f0c055e6db5028bb58d2f240df8c6f1b3c58a86a697f282f",
          "blockNumber": "0x2eba9a",
          "transactionHash": "0x724c8164f9878d82c5c588571dd29ad9253a80cbac3c82117073cf7c064d98cc",
          "transactionIndex": "0x0",
          "logIndex": "0x0",
          "removed": false
        },
        {
          "address": "0x24757E4b5AD64e6b48d78Dc800D45b4061698757",
          "topics": [
            "0xddf252ad1be2c89b69c2b068fc378daa952ba7f163c4a11628f55a4df523b3ef",
            "0x0000000000000000000000000000000000000000000000000000000000000000",
            "0x0000000000000000000000001160387a36953afc5d80c0ea7b6b5447774af8e5",
            "0x0000000000000000000000000000000000000000000000000000000000000001"
          ],
          "data": "0x",
          "blockHash": "0xeda38a7bbc365267f0c055e6db5028bb58d2f240df8c6f1b3c58a86a697f282f",
          "blockNumber": "0x2eba9a",
          "transactionHash": "0x724c8164f9878d82c5c588571dd29ad9253a80cbac3c82117073cf7c064d98cc",
          "transactionIndex": "0x0",
          "logIndex": "0x1",
          "removed": false
        },
        {
          "address": "0x24757E4b5AD64e6b48d78Dc800D45b4061698757",
          "topics": [
            "0xddf252ad1be2c89b69c2b068fc378daa952ba7f163c4a11628f55a4df523b3ef",
            "0x0000000000000000000000000000000000000000000000000000000000000000",
            "0x0000000000000000000000001166ae53a4d8779532260dfdd84dc065bcc5b1a4",
            "0x0000000000000000000000000000000000000000000000000000000000000002"
          ],
          "data": "0x",
          "blockHash": "0xeda38a7bbc365267f0c055e6db5028bb58d2f240df8c6f1b3c58a86a697f282f",
          "blockNumber": "0x2eba9a",
          "transactionHash": "0x724c8164f9878d82c5c588571dd29ad9253a80cbac3c82117073cf7c064d98cc",
          "transactionIndex": "0x0",
          "logIndex": "0x2",
          "removed": false
        },
        {
          "address": "0x24757E4b5AD64e6b48d78Dc800D45b4061698757",
          "topics": [
            "0xddf252ad1be2c89b69c2b068fc378daa952ba7f163c4a11628f55a4df523b3ef",
            "0x0000000000000000000000000000000000000000000000000000000000000000",
            "0x000000000000000000000000145eb0c7f29e0d9481473623ef3c2182a58ede01",
            "0x0000000000000000000000000000000000000000000000000000000000000003"
          ],
          "data": "0x",
          "blockHash": "0xeda38a7bbc365267f0c055e6db5028bb58d2f240df8c6f1b3c58a86a697f282f",
          "blockNumber": "0x2eba9a",
          "transactionHash": "0x724c8164f9878d82c5c588571dd29ad9253a80cbac3c82117073cf7c064d98cc",
          "transactionIndex": "0x0",
          "logIndex": "0x3",
          "removed": false
        },
        {
          "address": "0x24757E4b5AD64e6b48d78Dc800D45b4061698757",
          "topics": [
            "0xddf252ad1be2c89b69c2b068fc378daa952ba7f163c4a11628f55a4df523b3ef",
            "0x0000000000000000000000000000000000000000000000000000000000000000",
            "0x00000000000000000000000014ab49bda0bc2d0f939135f715ee7ccb8fee62f3",
            "0x0000000000000000000000000000000000000000000000000000000000000004"
          ],
          "data": "0x",
          "blockHash": "0xeda38a7bbc365267f0c055e6db5028bb58d2f240df8c6f1b3c58a86a697f282f",
          "blockNumber": "0x2eba9a",
          "transactionHash": "0x724c8164f9878d82c5c588571dd29ad9253a80cbac3c82117073cf7c064d98cc",
          "transactionIndex": "0x0",
          "logIndex": "0x4",
          "removed": false
        },
        {
          "address": "0x24757E4b5AD64e6b48d78Dc800D45b4061698757",
          "topics": [
            "0xddf252ad1be2c89b69c2b068fc378daa952ba7f163c4a11628f55a4df523b3ef",
            "0x0000000000000000000000000000000000000000000000000000000000000000",
            "0x00000000000000000000000014b16ab34fb80f7bdfd694394600898416a1821c",
            "0x0000000000000000000000000000000000000000000000000000000000000005"
          ],
          "data": "0x",
          "blockHash": "0xeda38a7bbc365267f0c055e6db5028bb58d2f240df8c6f1b3c58a86a697f282f",
          "blockNumber": "0x2eba9a",
          "transactionHash": "0x724c8164f9878d82c5c588571dd29ad9253a80cbac3c82117073cf7c064d98cc",
          "transactionIndex": "0x0",
          "logIndex": "0x5",
          "removed": false
        },
        {
          "address": "0x24757E4b5AD64e6b48d78Dc800D45b4061698757",
          "topics": [
            "0xddf252ad1be2c89b69c2b068fc378daa952ba7f163c4a11628f55a4df523b3ef",
            "0x0000000000000000000000000000000000000000000000000000000000000000",
            "0x00000000000000000000000015d3ffac9b7d5dbbee095910db6380040222b99f",
            "0x0000000000000000000000000000000000000000000000000000000000000006"
          ],
          "data": "0x",
          "blockHash": "0xeda38a7bbc365267f0c055e6db5028bb58d2f240df8c6f1b3c58a86a697f282f",
          "blockNumber": "0x2eba9a",
          "transactionHash": "0x724c8164f9878d82c5c588571dd29ad9253a80cbac3c82117073cf7c064d98cc",
          "transactionIndex": "0x0",
          "logIndex": "0x6",
          "removed": false
        },
        {
          "address": "0x24757E4b5AD64e6b48d78Dc800D45b4061698757",
          "topics": [
            "0xddf252ad1be2c89b69c2b068fc378daa952ba7f163c4a11628f55a4df523b3ef",
            "0x0000000000000000000000000000000000000000000000000000000000000000",
            "0x0000000000000000000000001a8a81651582f74b283a6f46bec63394cd01572b",
            "0x0000000000000000000000000000000000000000000000000000000000000007"
          ],
          "data": "0x",
          "blockHash": "0xeda38a7bbc365267f0c055e6db5028bb58d2f240df8c6f1b3c58a86a697f282f",
          "blockNumber": "0x2eba9a",
          "transactionHash": "0x724c8164f9878d82c5c588571dd29ad9253a80cbac3c82117073cf7c064d98cc",
          "transactionIndex": "0x0",
          "logIndex": "0x7",
          "removed": false
        },
        {
          "address": "0x24757E4b5AD64e6b48d78Dc800D45b4061698757",
          "topics": [
            "0xddf252ad1be2c89b69c2b068fc378daa952ba7f163c4a11628f55a4df523b3ef",
            "0x0000000000000000000000000000000000000000000000000000000000000000",
            "0x0000000000000000000000001ab709906bb19663e7593426ef04909f185df0f1",
            "0x0000000000000000000000000000000000000000000000000000000000000008"
          ],
          "data": "0x",
          "blockHash": "0xeda38a7bbc365267f0c055e6db5028bb58d2f240df8c6f1b3c58a86a697f282f",
          "blockNumber": "0x2eba9a",
          "transactionHash": "0x724c8164f9878d82c5c588571dd29ad9253a80cbac3c82117073cf7c064d98cc",
          "transactionIndex": "0x0",
          "logIndex": "0x8",
          "removed": false
        },
        {
          "address": "0x24757E4b5AD64e6b48d78Dc800D45b4061698757",
          "topics": [
            "0xddf252ad1be2c89b69c2b068fc378daa952ba7f163c4a11628f55a4df523b3ef",
            "0x0000000000000000000000000000000000000000000000000000000000000000",
            "0x0000000000000000000000001b4e1eb068a67f9840104ca55170ace627890067",
            "0x0000000000000000000000000000000000000000000000000000000000000009"
          ],
          "data": "0x",
          "blockHash": "0xeda38a7bbc365267f0c055e6db5028bb58d2f240df8c6f1b3c58a86a697f282f",
          "blockNumber": "0x2eba9a",
          "transactionHash": "0x724c8164f9878d82c5c588571dd29ad9253a80cbac3c82117073cf7c064d98cc",
          "transactionIndex": "0x0",
          "logIndex": "0x9",
          "removed": false
        },
        {
          "address": "0x24757E4b5AD64e6b48d78Dc800D45b4061698757",
          "topics": [
            "0xddf252ad1be2c89b69c2b068fc378daa952ba7f163c4a11628f55a4df523b3ef",
            "0x0000000000000000000000000000000000000000000000000000000000000000",
            "0x0000000000000000000000001dde7b19fa3150a06e3307341e9b8cc5e95122d4",
            "0x000000000000000000000000000000000000000000000000000000000000000a"
          ],
          "data": "0x",
          "blockHash": "0xeda38a7bbc365267f0c055e6db5028bb58d2f240df8c6f1b3c58a86a697f282f",
          "blockNumber": "0x2eba9a",
          "transactionHash": "0x724c8164f9878d82c5c588571dd29ad9253a80cbac3c82117073cf7c064d98cc",
          "transactionIndex": "0x0",
          "logIndex": "0xa",
          "removed": false
        },
        {
          "address": "0x24757E4b5AD64e6b48d78Dc800D45b4061698757",
          "topics": [
            "0xddf252ad1be2c89b69c2b068fc378daa952ba7f163c4a11628f55a4df523b3ef",
            "0x0000000000000000000000000000000000000000000000000000000000000000",
            "0x0000000000000000000000001e01e1a27eb079820055d97830a1c663a3ad8ffe",
            "0x000000000000000000000000000000000000000000000000000000000000000b"
          ],
          "data": "0x",
          "blockHash": "0xeda38a7bbc365267f0c055e6db5028bb58d2f240df8c6f1b3c58a86a697f282f",
          "blockNumber": "0x2eba9a",
          "transactionHash": "0x724c8164f9878d82c5c588571dd29ad9253a80cbac3c82117073cf7c064d98cc",
          "transactionIndex": "0x0",
          "logIndex": "0xb",
          "removed": false
        },
        {
          "address": "0x24757E4b5AD64e6b48d78Dc800D45b4061698757",
          "topics": [
            "0xddf252ad1be2c89b69c2b068fc378daa952ba7f163c4a11628f55a4df523b3ef",
            "0x0000000000000000000000000000000000000000000000000000000000000000",
            "0x0000000000000000000000001e2fa044a25bca1576ed94562db50f51dcc24ca8",
            "0x000000000000000000000000000000000000000000000000000000000000000c"
          ],
          "data": "0x",
          "blockHash": "0xeda38a7bbc365267f0c055e6db5028bb58d2f240df8c6f1b3c58a86a697f282f",
          "blockNumber": "0x2eba9a",
          "transactionHash": "0x724c8164f9878d82c5c588571dd29ad9253a80cbac3c82117073cf7c064d98cc",
          "transactionIndex": "0x0",
          "logIndex": "0xc",
          "removed": false
        },
        {
          "address": "0x24757E4b5AD64e6b48d78Dc800D45b4061698757",
          "topics": [
            "0xddf252ad1be2c89b69c2b068fc378daa952ba7f163c4a11628f55a4df523b3ef",
            "0x0000000000000000000000000000000000000000000000000000000000000000",
            "0x0000000000000000000000001e7f2ef8bbde7fcaea03ba0c83d5d293d066f41c",
            "0x000000000000000000000000000000000000000000000000000000000000000d"
          ],
          "data": "0x",
          "blockHash": "0xeda38a7bbc365267f0c055e6db5028bb58d2f240df8c6f1b3c58a86a697f282f",
          "blockNumber": "0x2eba9a",
          "transactionHash": "0x724c8164f9878d82c5c588571dd29ad9253a80cbac3c82117073cf7c064d98cc",
          "transactionIndex": "0x0",
          "logIndex": "0xd",
          "removed": false
        },
        {
          "address": "0x24757E4b5AD64e6b48d78Dc800D45b4061698757",
          "topics": [
            "0xddf252ad1be2c89b69c2b068fc378daa952ba7f163c4a11628f55a4df523b3ef",
            "0x0000000000000000000000000000000000000000000000000000000000000000",
            "0x0000000000000000000000002302426a34796a3883d524d3731f539dea696e60",
            "0x000000000000000000000000000000000000000000000000000000000000000e"
          ],
          "data": "0x",
          "blockHash": "0xeda38a7bbc365267f0c055e6db5028bb58d2f240df8c6f1b3c58a86a697f282f",
          "blockNumber": "0x2eba9a",
          "transactionHash": "0x724c8164f9878d82c5c588571dd29ad9253a80cbac3c82117073cf7c064d98cc",
          "transactionIndex": "0x0",
          "logIndex": "0xe",
          "removed": false
        },
        {
          "address": "0x24757E4b5AD64e6b48d78Dc800D45b4061698757",
          "topics": [
            "0xddf252ad1be2c89b69c2b068fc378daa952ba7f163c4a11628f55a4df523b3ef",
            "0x0000000000000000000000000000000000000000000000000000000000000000",
            "0x000000000000000000000000239d7a7574941c5c00f8c072c17be154dd69ab20",
            "0x000000000000000000000000000000000000000000000000000000000000000f"
          ],
          "data": "0x",
          "blockHash": "0xeda38a7bbc365267f0c055e6db5028bb58d2f240df8c6f1b3c58a86a697f282f",
          "blockNumber": "0x2eba9a",
          "transactionHash": "0x724c8164f9878d82c5c588571dd29ad9253a80cbac3c82117073cf7c064d98cc",
          "transactionIndex": "0x0",
          "logIndex": "0xf",
          "removed": false
        },
        {
          "address": "0x24757E4b5AD64e6b48d78Dc800D45b4061698757",
          "topics": [
            "0xddf252ad1be2c89b69c2b068fc378daa952ba7f163c4a11628f55a4df523b3ef",
            "0x0000000000000000000000000000000000000000000000000000000000000000",
            "0x000000000000000000000000245c7a1dd726f0d7238ad63c2f2b282eaac72482",
            "0x0000000000000000000000000000000000000000000000000000000000000010"
          ],
          "data": "0x",
          "blockHash": "0xeda38a7bbc365267f0c055e6db5028bb58d2f240df8c6f1b3c58a86a697f282f",
          "blockNumber": "0x2eba9a",
          "transactionHash": "0x724c8164f9878d82c5c588571dd29ad9253a80cbac3c82117073cf7c064d98cc",
          "transactionIndex": "0x0",
          "logIndex": "0x10",
          "removed": false
        },
        {
          "address": "0x24757E4b5AD64e6b48d78Dc800D45b4061698757",
          "topics": [
            "0xddf252ad1be2c89b69c2b068fc378daa952ba7f163c4a11628f55a4df523b3ef",
            "0x0000000000000000000000000000000000000000000000000000000000000000",
            "0x0000000000000000000000002612b77e5ee1b5feeddd5ec08731749bc2217f54",
            "0x0000000000000000000000000000000000000000000000000000000000000011"
          ],
          "data": "0x",
          "blockHash": "0xeda38a7bbc365267f0c055e6db5028bb58d2f240df8c6f1b3c58a86a697f282f",
          "blockNumber": "0x2eba9a",
          "transactionHash": "0x724c8164f9878d82c5c588571dd29ad9253a80cbac3c82117073cf7c064d98cc",
          "transactionIndex": "0x0",
          "logIndex": "0x11",
          "removed": false
        },
        {
          "address": "0x24757E4b5AD64e6b48d78Dc800D45b4061698757",
          "topics": [
            "0xddf252ad1be2c89b69c2b068fc378daa952ba7f163c4a11628f55a4df523b3ef",
            "0x0000000000000000000000000000000000000000000000000000000000000000",
            "0x00000000000000000000000027407cadad03b2194f96674cf8cfab5121f09248",
            "0x0000000000000000000000000000000000000000000000000000000000000012"
          ],
          "data": "0x",
          "blockHash": "0xeda38a7bbc365267f0c055e6db5028bb58d2f240df8c6f1b3c58a86a697f282f",
          "blockNumber": "0x2eba9a",
          "transactionHash": "0x724c8164f9878d82c5c588571dd29ad9253a80cbac3c82117073cf7c064d98cc",
          "transactionIndex": "0x0",
          "logIndex": "0x12",
          "removed": false
        },
        {
          "address": "0x24757E4b5AD64e6b48d78Dc800D45b4061698757",
          "topics": [
            "0xddf252ad1be2c89b69c2b068fc378daa952ba7f163c4a11628f55a4df523b3ef",
            "0x0000000000000000000000000000000000000000000000000000000000000000",
            "0x00000000000000000000000027f8602e403b6ea18f8711a7858fa4a94ef3269b",
            "0x0000000000000000000000000000000000000000000000000000000000000013"
          ],
          "data": "0x",
          "blockHash": "0xeda38a7bbc365267f0c055e6db5028bb58d2f240df8c6f1b3c58a86a697f282f",
          "blockNumber": "0x2eba9a",
          "transactionHash": "0x724c8164f9878d82c5c588571dd29ad9253a80cbac3c82117073cf7c064d98cc",
          "transactionIndex": "0x0",
          "logIndex": "0x13",
          "removed": false
        },
        {
          "address": "0x24757E4b5AD64e6b48d78Dc800D45b4061698757",
          "topics": [
            "0xddf252ad1be2c89b69c2b068fc378daa952ba7f163c4a11628f55a4df523b3ef",
            "0x0000000000000000000000000000000000000000000000000000000000000000",
            "0x0000000000000000000000002808370606f07a16442a77ba45b9994beec6aed2",
            "0x0000000000000000000000000000000000000000000000000000000000000014"
          ],
          "data": "0x",
          "blockHash": "0xeda38a7bbc365267f0c055e6db5028bb58d2f240df8c6f1b3c58a86a697f282f",
          "blockNumber": "0x2eba9a",
          "transactionHash": "0x724c8164f9878d82c5c588571dd29ad9253a80cbac3c82117073cf7c064d98cc",
          "transactionIndex": "0x0",
          "logIndex": "0x14",
          "removed": false
        },
        {
          "address": "0x24757E4b5AD64e6b48d78Dc800D45b4061698757",
          "topics": [
            "0xddf252ad1be2c89b69c2b068fc378daa952ba7f163c4a11628f55a4df523b3ef",
            "0x0000000000000000000000000000000000000000000000000000000000000000",
            "0x0000000000000000000000002844a1f5c5164b9adae211df8931838a2d33b5ed",
            "0x0000000000000000000000000000000000000000000000000000000000000015"
          ],
          "data": "0x",
          "blockHash": "0xeda38a7bbc365267f0c055e6db5028bb58d2f240df8c6f1b3c58a86a697f282f",
          "blockNumber": "0x2eba9a",
          "transactionHash": "0x724c8164f9878d82c5c588571dd29ad9253a80cbac3c82117073cf7c064d98cc",
          "transactionIndex": "0x0",
          "logIndex": "0x15",
          "removed": false
        },
        {
          "address": "0x24757E4b5AD64e6b48d78Dc800D45b4061698757",
          "topics": [
            "0xddf252ad1be2c89b69c2b068fc378daa952ba7f163c4a11628f55a4df523b3ef",
            "0x0000000000000000000000000000000000000000000000000000000000000000",
            "0x0000000000000000000000002856cf9905d923469bb749e9787fc953b0a321e8",
            "0x0000000000000000000000000000000000000000000000000000000000000016"
          ],
          "data": "0x",
          "blockHash": "0xeda38a7bbc365267f0c055e6db5028bb58d2f240df8c6f1b3c58a86a697f282f",
          "blockNumber": "0x2eba9a",
          "transactionHash": "0x724c8164f9878d82c5c588571dd29ad9253a80cbac3c82117073cf7c064d98cc",
          "transactionIndex": "0x0",
          "logIndex": "0x16",
          "removed": false
        },
        {
          "address": "0x24757E4b5AD64e6b48d78Dc800D45b4061698757",
          "topics": [
            "0xddf252ad1be2c89b69c2b068fc378daa952ba7f163c4a11628f55a4df523b3ef",
            "0x0000000000000000000000000000000000000000000000000000000000000000",
            "0x0000000000000000000000002891f651ffb4706a3acfe3d9c889ea83e2bd6582",
            "0x0000000000000000000000000000000000000000000000000000000000000017"
          ],
          "data": "0x",
          "blockHash": "0xeda38a7bbc365267f0c055e6db5028bb58d2f240df8c6f1b3c58a86a697f282f",
          "blockNumber": "0x2eba9a",
          "transactionHash": "0x724c8164f9878d82c5c588571dd29ad9253a80cbac3c82117073cf7c064d98cc",
          "transactionIndex": "0x0",
          "logIndex": "0x17",
          "removed": false
        },
        {
          "address": "0x24757E4b5AD64e6b48d78Dc800D45b4061698757",
          "topics": [
            "0xddf252ad1be2c89b69c2b068fc378daa952ba7f163c4a11628f55a4df523b3ef",
            "0x0000000000000000000000000000000000000000000000000000000000000000",
            "0x0000000000000000000000002a7051d7cbbef7b6889f8e14774020b1653b94c1",
            "0x0000000000000000000000000000000000000000000000000000000000000018"
          ],
          "data": "0x",
          "blockHash": "0xeda38a7bbc365267f0c055e6db5028bb58d2f240df8c6f1b3c58a86a697f282f",
          "blockNumber": "0x2eba9a",
          "transactionHash": "0x724c8164f9878d82c5c588571dd29ad9253a80cbac3c82117073cf7c064d98cc",
          "transactionIndex": "0x0",
          "logIndex": "0x18",
          "removed": false
        },
        {
          "address": "0x24757E4b5AD64e6b48d78Dc800D45b4061698757",
          "topics": [
            "0xddf252ad1be2c89b69c2b068fc378daa952ba7f163c4a11628f55a4df523b3ef",
            "0x0000000000000000000000000000000000000000000000000000000000000000",
            "0x0000000000000000000000002df8063c53ebd6270acde4e996a925c531fcfdfe",
            "0x0000000000000000000000000000000000000000000000000000000000000019"
          ],
          "data": "0x",
          "blockHash": "0xeda38a7bbc365267f0c055e6db5028bb58d2f240df8c6f1b3c58a86a697f282f",
          "blockNumber": "0x2eba9a",
          "transactionHash": "0x724c8164f9878d82c5c588571dd29ad9253a80cbac3c82117073cf7c064d98cc",
          "transactionIndex": "0x0",
          "logIndex": "0x19",
          "removed": false
        },
        {
          "address": "0x24757E4b5AD64e6b48d78Dc800D45b4061698757",
          "topics": [
            "0xddf252ad1be2c89b69c2b068fc378daa952ba7f163c4a11628f55a4df523b3ef",
            "0x0000000000000000000000000000000000000000000000000000000000000000",
            "0x000000000000000000000000304f380c57ff3df85578a06e81b89fb210bdce71",
            "0x000000000000000000000000000000000000000000000000000000000000001a"
          ],
          "data": "0x",
          "blockHash": "0xeda38a7bbc365267f0c055e6db5028bb58d2f240df8c6f1b3c58a86a697f282f",
          "blockNumber": "0x2eba9a",
          "transactionHash": "0x724c8164f9878d82c5c588571dd29ad9253a80cbac3c82117073cf7c064d98cc",
          "transactionIndex": "0x0",
          "logIndex": "0x1a",
          "removed": false
        },
        {
          "address": "0x24757E4b5AD64e6b48d78Dc800D45b4061698757",
          "topics": [
            "0xddf252ad1be2c89b69c2b068fc378daa952ba7f163c4a11628f55a4df523b3ef",
            "0x0000000000000000000000000000000000000000000000000000000000000000",
            "0x00000000000000000000000031ae2c2caec2bc9211cc6e55d73dc3e874babdbb",
            "0x000000000000000000000000000000000000000000000000000000000000001b"
          ],
          "data": "0x",
          "blockHash": "0xeda38a7bbc365267f0c055e6db5028bb58d2f240df8c6f1b3c58a86a697f282f",
          "blockNumber": "0x2eba9a",
          "transactionHash": "0x724c8164f9878d82c5c588571dd29ad9253a80cbac3c82117073cf7c064d98cc",
          "transactionIndex": "0x0",
          "logIndex": "0x1b",
          "removed": false
        },
        {
          "address": "0x24757E4b5AD64e6b48d78Dc800D45b4061698757",
          "topics": [
            "0xddf252ad1be2c89b69c2b068fc378daa952ba7f163c4a11628f55a4df523b3ef",
            "0x0000000000000000000000000000000000000000000000000000000000000000",
            "0x00000000000000000000000032cb4d6093b854061c63c1d3f243347a45a17e0b",
            "0x000000000000000000000000000000000000000000000000000000000000001c"
          ],
          "data": "0x",
          "blockHash": "0xeda38a7bbc365267f0c055e6db5028bb58d2f240df8c6f1b3c58a86a697f282f",
          "blockNumber": "0x2eba9a",
          "transactionHash": "0x724c8164f9878d82c5c588571dd29ad9253a80cbac3c82117073cf7c064d98cc",
          "transactionIndex": "0x0",
          "logIndex": "0x1c",
          "removed": false
        },
        {
          "address": "0x24757E4b5AD64e6b48d78Dc800D45b4061698757",
          "topics": [
            "0xddf252ad1be2c89b69c2b068fc378daa952ba7f163c4a11628f55a4df523b3ef",
            "0x0000000000000000000000000000000000000000000000000000000000000000",
            "0x00000000000000000000000038ef64162b682703ceb0e425827958e9f5db02c1",
            "0x000000000000000000000000000000000000000000000000000000000000001d"
          ],
          "data": "0x",
          "blockHash": "0xeda38a7bbc365267f0c055e6db5028bb58d2f240df8c6f1b3c58a86a697f282f",
          "blockNumber": "0x2eba9a",
          "transactionHash": "0x724c8164f9878d82c5c588571dd29ad9253a80cbac3c82117073cf7c064d98cc",
          "transactionIndex": "0x0",
          "logIndex": "0x1d",
          "removed": false
        },
        {
          "address": "0x24757E4b5AD64e6b48d78Dc800D45b4061698757",
          "topics": [
            "0xddf252ad1be2c89b69c2b068fc378daa952ba7f163c4a11628f55a4df523b3ef",
            "0x0000000000000000000000000000000000000000000000000000000000000000",
            "0x00000000000000000000000038fd9e0966dfab3cb59d6d5e5ccc7c05aabef8ae",
            "0x000000000000000000000000000000000000000000000000000000000000001e"
          ],
          "data": "0x",
          "blockHash": "0xeda38a7bbc365267f0c055e6db5028bb58d2f240df8c6f1b3c58a86a697f282f",
          "blockNumber": "0x2eba9a",
          "transactionHash": "0x724c8164f9878d82c5c588571dd29ad9253a80cbac3c82117073cf7c064d98cc",
          "transactionIndex": "0x0",
          "logIndex": "0x1e",
          "removed": false
        },
        {
          "address": "0x24757E4b5AD64e6b48d78Dc800D45b4061698757",
          "topics": [
            "0xddf252ad1be2c89b69c2b068fc378daa952ba7f163c4a11628f55a4df523b3ef",
            "0x0000000000000000000000000000000000000000000000000000000000000000",
            "0x0000000000000000000000003a021ba306d8e595d120bbb1a0dc05dd9f2af5d9",
            "0x000000000000000000000000000000000000000000000000000000000000001f"
          ],
          "data": "0x",
          "blockHash": "0xeda38a7bbc365267f0c055e6db5028bb58d2f240df8c6f1b3c58a86a697f282f",
          "blockNumber": "0x2eba9a",
          "transactionHash": "0x724c8164f9878d82c5c588571dd29ad9253a80cbac3c82117073cf7c064d98cc",
          "transactionIndex": "0x0",
          "logIndex": "0x1f",
          "removed": false
        },
        {
          "address": "0x24757E4b5AD64e6b48d78Dc800D45b4061698757",
          "topics": [
            "0xddf252ad1be2c89b69c2b068fc378daa952ba7f163c4a11628f55a4df523b3ef",
            "0x0000000000000000000000000000000000000000000000000000000000000000",
            "0x0000000000000000000000003c2d6d7144241f1f1203c29c124585e55b58975e",
            "0x0000000000000000000000000000000000000000000000000000000000000020"
          ],
          "data": "0x",
          "blockHash": "0xeda38a7bbc365267f0c055e6db5028bb58d2f240df8c6f1b3c58a86a697f282f",
          "blockNumber": "0x2eba9a",
          "transactionHash": "0x724c8164f9878d82c5c588571dd29ad9253a80cbac3c82117073cf7c064d98cc",
          "transactionIndex": "0x0",
          "logIndex": "0x20",
          "removed": false
        },
        {
          "address": "0x24757E4b5AD64e6b48d78Dc800D45b4061698757",
          "topics": [
            "0xddf252ad1be2c89b69c2b068fc378daa952ba7f163c4a11628f55a4df523b3ef",
            "0x0000000000000000000000000000000000000000000000000000000000000000",
            "0x0000000000000000000000003eb04d134dc9f2b9111e020df1614ac53722266f",
            "0x0000000000000000000000000000000000000000000000000000000000000021"
          ],
          "data": "0x",
          "blockHash": "0xeda38a7bbc365267f0c055e6db5028bb58d2f240df8c6f1b3c58a86a697f282f",
          "blockNumber": "0x2eba9a",
          "transactionHash": "0x724c8164f9878d82c5c588571dd29ad9253a80cbac3c82117073cf7c064d98cc",
          "transactionIndex": "0x0",
          "logIndex": "0x21",
          "removed": false
        },
        {
          "address": "0x24757E4b5AD64e6b48d78Dc800D45b4061698757",
          "topics": [
            "0xddf252ad1be2c89b69c2b068fc378daa952ba7f163c4a11628f55a4df523b3ef",
            "0x0000000000000000000000000000000000000000000000000000000000000000",
            "0x0000000000000000000000003f049e5850229d18f01460dfda38c3ea6422b5a4",
            "0x0000000000000000000000000000000000000000000000000000000000000022"
          ],
          "data": "0x",
          "blockHash": "0xeda38a7bbc365267f0c055e6db5028bb58d2f240df8c6f1b3c58a86a697f282f",
          "blockNumber": "0x2eba9a",
          "transactionHash": "0x724c8164f9878d82c5c588571dd29ad9253a80cbac3c82117073cf7c064d98cc",
          "transactionIndex": "0x0",
          "logIndex": "0x22",
          "removed": false
        },
        {
          "address": "0x24757E4b5AD64e6b48d78Dc800D45b4061698757",
          "topics": [
            "0xddf252ad1be2c89b69c2b068fc378daa952ba7f163c4a11628f55a4df523b3ef",
            "0x0000000000000000000000000000000000000000000000000000000000000000",
            "0x0000000000000000000000003fa99ea896f716d0cfbe370a8f6bec32a880f6dc",
            "0x0000000000000000000000000000000000000000000000000000000000000023"
          ],
          "data": "0x",
          "blockHash": "0xeda38a7bbc365267f0c055e6db5028bb58d2f240df8c6f1b3c58a86a697f282f",
          "blockNumber": "0x2eba9a",
          "transactionHash": "0x724c8164f9878d82c5c588571dd29ad9253a80cbac3c82117073cf7c064d98cc",
          "transactionIndex": "0x0",
          "logIndex": "0x23",
          "removed": false
        },
        {
          "address": "0x24757E4b5AD64e6b48d78Dc800D45b4061698757",
          "topics": [
            "0xddf252ad1be2c89b69c2b068fc378daa952ba7f163c4a11628f55a4df523b3ef",
            "0x0000000000000000000000000000000000000000000000000000000000000000",
            "0x0000000000000000000000004129b4337d5a2f7278a02ff15bb1e4e548d8ee60",
            "0x0000000000000000000000000000000000000000000000000000000000000024"
          ],
          "data": "0x",
          "blockHash": "0xeda38a7bbc365267f0c055e6db5028bb58d2f240df8c6f1b3c58a86a697f282f",
          "blockNumber": "0x2eba9a",
          "transactionHash": "0x724c8164f9878d82c5c588571dd29ad9253a80cbac3c82117073cf7c064d98cc",
          "transactionIndex": "0x0",
          "logIndex": "0x24",
          "removed": false
        },
        {
          "address": "0x24757E4b5AD64e6b48d78Dc800D45b4061698757",
          "topics": [
            "0xddf252ad1be2c89b69c2b068fc378daa952ba7f163c4a11628f55a4df523b3ef",
            "0x0000000000000000000000000000000000000000000000000000000000000000",
            "0x0000000000000000000000004444a136b1445b1f5e4a20656854adcf6fa3d667",
            "0x0000000000000000000000000000000000000000000000000000000000000025"
          ],
          "data": "0x",
          "blockHash": "0xeda38a7bbc365267f0c055e6db5028bb58d2f240df8c6f1b3c58a86a697f282f",
          "blockNumber": "0x2eba9a",
          "transactionHash": "0x724c8164f9878d82c5c588571dd29ad9253a80cbac3c82117073cf7c064d98cc",
          "transactionIndex": "0x0",
          "logIndex": "0x25",
          "removed": false
        },
        {
          "address": "0x24757E4b5AD64e6b48d78Dc800D45b4061698757",
          "topics": [
            "0xddf252ad1be2c89b69c2b068fc378daa952ba7f163c4a11628f55a4df523b3ef",
            "0x0000000000000000000000000000000000000000000000000000000000000000",
            "0x000000000000000000000000451782b1fac3b8020309c1fa9203b01bf82deabe",
            "0x0000000000000000000000000000000000000000000000000000000000000026"
          ],
          "data": "0x",
          "blockHash": "0xeda38a7bbc365267f0c055e6db5028bb58d2f240df8c6f1b3c58a86a697f282f",
          "blockNumber": "0x2eba9a",
          "transactionHash": "0x724c8164f9878d82c5c588571dd29ad9253a80cbac3c82117073cf7c064d98cc",
          "transactionIndex": "0x0",
          "logIndex": "0x26",
          "removed": false
        },
        {
          "address": "0x24757E4b5AD64e6b48d78Dc800D45b4061698757",
          "topics": [
            "0xddf252ad1be2c89b69c2b068fc378daa952ba7f163c4a11628f55a4df523b3ef",
            "0x0000000000000000000000000000000000000000000000000000000000000000",
            "0x000000000000000000000000452a9b6432cd228410f01a1da754449c8bafc85a",
            "0x0000000000000000000000000000000000000000000000000000000000000027"
          ],
          "data": "0x",
          "blockHash": "0xeda38a7bbc365267f0c055e6db5028bb58d2f240df8c6f1b3c58a86a697f282f",
          "blockNumber": "0x2eba9a",
          "transactionHash": "0x724c8164f9878d82c5c588571dd29ad9253a80cbac3c82117073cf7c064d98cc",
          "transactionIndex": "0x0",
          "logIndex": "0x27",
          "removed": false
        },
        {
          "address": "0x24757E4b5AD64e6b48d78Dc800D45b4061698757",
          "topics": [
            "0xddf252ad1be2c89b69c2b068fc378daa952ba7f163c4a11628f55a4df523b3ef",
            "0x0000000000000000000000000000000000000000000000000000000000000000",
            "0x000000000000000000000000458aa8eb5d673d6f9bae964af2c25d64f4a19878",
            "0x0000000000000000000000000000000000000000000000000000000000000028"
          ],
          "data": "0x",
          "blockHash": "0xeda38a7bbc365267f0c055e6db5028bb58d2f240df8c6f1b3c58a86a697f282f",
          "blockNumber": "0x2eba9a",
          "transactionHash": "0x724c8164f9878d82c5c588571dd29ad9253a80cbac3c82117073cf7c064d98cc",
          "transactionIndex": "0x0",
          "logIndex": "0x28",
          "removed": false
        },
        {
          "address": "0x24757E4b5AD64e6b48d78Dc800D45b4061698757",
          "topics": [
            "0xddf252ad1be2c89b69c2b068fc378daa952ba7f163c4a11628f55a4df523b3ef",
            "0x0000000000000000000000000000000000000000000000000000000000000000",
            "0x00000000000000000000000045faddea1c17a97cf61dd605226d511fd09dff7f",
            "0x0000000000000000000000000000000000000000000000000000000000000029"
          ],
          "data": "0x",
          "blockHash": "0xeda38a7bbc365267f0c055e6db5028bb58d2f240df8c6f1b3c58a86a697f282f",
          "blockNumber": "0x2eba9a",
          "transactionHash": "0x724c8164f9878d82c5c588571dd29ad9253a80cbac3c82117073cf7c064d98cc",
          "transactionIndex": "0x0",
          "logIndex": "0x29",
          "removed": false
        },
        {
          "address": "0x24757E4b5AD64e6b48d78Dc800D45b4061698757",
          "topics": [
            "0xddf252ad1be2c89b69c2b068fc378daa952ba7f163c4a11628f55a4df523b3ef",
            "0x0000000000000000000000000000000000000000000000000000000000000000",
            "0x000000000000000000000000478aefbbade4fed8e527c98552b68404ea0a304b",
            "0x000000000000000000000000000000000000000000000000000000000000002a"
          ],
          "data": "0x",
          "blockHash": "0xeda38a7bbc365267f0c055e6db5028bb58d2f240df8c6f1b3c58a86a697f282f",
          "blockNumber": "0x2eba9a",
          "transactionHash": "0x724c8164f9878d82c5c588571dd29ad9253a80cbac3c82117073cf7c064d98cc",
          "transactionIndex": "0x0",
          "logIndex": "0x2a",
          "removed": false
        },
        {
          "address": "0x24757E4b5AD64e6b48d78Dc800D45b4061698757",
          "topics": [
            "0xddf252ad1be2c89b69c2b068fc378daa952ba7f163c4a11628f55a4df523b3ef",
            "0x0000000000000000000000000000000000000000000000000000000000000000",
            "0x00000000000000000000000048cf51dd57a69266e0b2ea463931dae3820147d4",
            "0x000000000000000000000000000000000000000000000000000000000000002b"
          ],
          "data": "0x",
          "blockHash": "0xeda38a7bbc365267f0c055e6db5028bb58d2f240df8c6f1b3c58a86a697f282f",
          "blockNumber": "0x2eba9a",
          "transactionHash": "0x724c8164f9878d82c5c588571dd29ad9253a80cbac3c82117073cf7c064d98cc",
          "transactionIndex": "0x0",
          "logIndex": "0x2b",
          "removed": false
        },
        {
          "address": "0x24757E4b5AD64e6b48d78Dc800D45b4061698757",
          "topics": [
            "0xddf252ad1be2c89b69c2b068fc378daa952ba7f163c4a11628f55a4df523b3ef",
            "0x0000000000000000000000000000000000000000000000000000000000000000",
            "0x00000000000000000000000049e3cf47606a5da7b11b270a790e2112a467485f",
            "0x000000000000000000000000000000000000000000000000000000000000002c"
          ],
          "data": "0x",
          "blockHash": "0xeda38a7bbc365267f0c055e6db5028bb58d2f240df8c6f1b3c58a86a697f282f",
          "blockNumber": "0x2eba9a",
          "transactionHash": "0x724c8164f9878d82c5c588571dd29ad9253a80cbac3c82117073cf7c064d98cc",
          "transactionIndex": "0x0",
          "logIndex": "0x2c",
          "removed": false
        },
        {
          "address": "0x24757E4b5AD64e6b48d78Dc800D45b4061698757",
          "topics": [
            "0xddf252ad1be2c89b69c2b068fc378daa952ba7f163c4a11628f55a4df523b3ef",
            "0x0000000000000000000000000000000000000000000000000000000000000000",
            "0x00000000000000000000000049f8247f494aebf1cdb5b431ee6dd780f89a98eb",
            "0x000000000000000000000000000000000000000000000000000000000000002d"
          ],
          "data": "0x",
          "blockHash": "0xeda38a7bbc365267f0c055e6db5028bb58d2f240df8c6f1b3c58a86a697f282f",
          "blockNumber": "0x2eba9a",
          "transactionHash": "0x724c8164f9878d82c5c588571dd29ad9253a80cbac3c82117073cf7c064d98cc",
          "transactionIndex": "0x0",
          "logIndex": "0x2d",
          "removed": false
        },
        {
          "address": "0x24757E4b5AD64e6b48d78Dc800D45b4061698757",
          "topics": [
            "0xddf252ad1be2c89b69c2b068fc378daa952ba7f163c4a11628f55a4df523b3ef",
            "0x0000000000000000000000000000000000000000000000000000000000000000",
            "0x0000000000000000000000004a0f8323a112944d54c4630e10eb77c198fa9e4c",
            "0x000000000000000000000000000000000000000000000000000000000000002e"
          ],
          "data": "0x",
          "blockHash": "0xeda38a7bbc365267f0c055e6db5028bb58d2f240df8c6f1b3c58a86a697f282f",
          "blockNumber": "0x2eba9a",
          "transactionHash": "0x724c8164f9878d82c5c588571dd29ad9253a80cbac3c82117073cf7c064d98cc",
          "transactionIndex": "0x0",
          "logIndex": "0x2e",
          "removed": false
        },
        {
          "address": "0x24757E4b5AD64e6b48d78Dc800D45b4061698757",
          "topics": [
            "0xddf252ad1be2c89b69c2b068fc378daa952ba7f163c4a11628f55a4df523b3ef",
            "0x0000000000000000000000000000000000000000000000000000000000000000",
            "0x0000000000000000000000004bce1d711ea4e033ad5e7d48d2f63fb24fe4b5e3",
            "0x000000000000000000000000000000000000000000000000000000000000002f"
          ],
          "data": "0x",
          "blockHash": "0xeda38a7bbc365267f0c055e6db5028bb58d2f240df8c6f1b3c58a86a697f282f",
          "blockNumber": "0x2eba9a",
          "transactionHash": "0x724c8164f9878d82c5c588571dd29ad9253a80cbac3c82117073cf7c064d98cc",
          "transactionIndex": "0x0",
          "logIndex": "0x2f",
          "removed": false
        },
        {
          "address": "0x24757E4b5AD64e6b48d78Dc800D45b4061698757",
          "topics": [
            "0xddf252ad1be2c89b69c2b068fc378daa952ba7f163c4a11628f55a4df523b3ef",
            "0x0000000000000000000000000000000000000000000000000000000000000000",
            "0x0000000000000000000000005122b4d90185958faa110a3a02b647c755b977fd",
            "0x0000000000000000000000000000000000000000000000000000000000000030"
          ],
          "data": "0x",
          "blockHash": "0xeda38a7bbc365267f0c055e6db5028bb58d2f240df8c6f1b3c58a86a697f282f",
          "blockNumber": "0x2eba9a",
          "transactionHash": "0x724c8164f9878d82c5c588571dd29ad9253a80cbac3c82117073cf7c064d98cc",
          "transactionIndex": "0x0",
          "logIndex": "0x30",
          "removed": false
        },
        {
          "address": "0x24757E4b5AD64e6b48d78Dc800D45b4061698757",
          "topics": [
            "0xddf252ad1be2c89b69c2b068fc378daa952ba7f163c4a11628f55a4df523b3ef",
            "0x0000000000000000000000000000000000000000000000000000000000000000",
            "0x00000000000000000000000053ad76dacfade8789684aebb5dc3f7e079bf8596",
            "0x0000000000000000000000000000000000000000000000000000000000000031"
          ],
          "data": "0x",
          "blockHash": "0xeda38a7bbc365267f0c055e6db5028bb58d2f240df8c6f1b3c58a86a697f282f",
          "blockNumber": "0x2eba9a",
          "transactionHash": "0x724c8164f9878d82c5c588571dd29ad9253a80cbac3c82117073cf7c064d98cc",
          "transactionIndex": "0x0",
          "logIndex": "0x31",
          "removed": false
        }
      ],
      "status": "0x1",
      "logsBloom": "0x2e00008050040010024080cc008080800000860000100000000881002008020204020002c0284200000080000600250000023100060491a0502020160124040005103001012200888090000a0000104018430000030e10110000000014424000090000002208410000020101004089022040500040000e1440041050045001800090020480000820012040000348041a1a0119000806004004800040000100000006100001a2020060000302190000000140000802808060002010082401400140921002002000500405000401042000082028008020840820008108c800603ab0104082008000008800201a00a00000088100000080040401080c8006880008",
      "effectiveGasPrice": "0xf761ef6100"
    },
    {
      "transactionHash": "0x7be72974c62c79aba2f799f4fe93fe461e9a5a32e70d54e7ca0db070af2284c1",
      "transactionIndex": "0x0",
      "blockHash": "0xeef952fa2261599349943779f0f103264135d4fd95e426ef2dbf35d4645c905e",
      "blockNumber": "0x2eba9c",
      "from": "0xb912354202419695Ae69E38aA77d56856Cc850f4",
      "to": "0x24757E4b5AD64e6b48d78Dc800D45b4061698757",
      "cumulativeGasUsed": "0x24ea27",
      "gasUsed": "0x24ea27",
      "contractAddress": null,
      "logs": [
        {
          "address": "0x24757E4b5AD64e6b48d78Dc800D45b4061698757",
          "topics": [
            "0xddf252ad1be2c89b69c2b068fc378daa952ba7f163c4a11628f55a4df523b3ef",
            "0x0000000000000000000000000000000000000000000000000000000000000000",
            "0x00000000000000000000000053e262aa44d9fd193be60ab035c41f97ef4eea2a",
            "0x0000000000000000000000000000000000000000000000000000000000000032"
          ],
          "data": "0x",
          "blockHash": "0xeef952fa2261599349943779f0f103264135d4fd95e426ef2dbf35d4645c905e",
          "blockNumber": "0x2eba9c",
          "transactionHash": "0x7be72974c62c79aba2f799f4fe93fe461e9a5a32e70d54e7ca0db070af2284c1",
          "transactionIndex": "0x0",
          "logIndex": "0x0",
          "removed": false
        },
        {
          "address": "0x24757E4b5AD64e6b48d78Dc800D45b4061698757",
          "topics": [
            "0xddf252ad1be2c89b69c2b068fc378daa952ba7f163c4a11628f55a4df523b3ef",
            "0x0000000000000000000000000000000000000000000000000000000000000000",
            "0x00000000000000000000000054a1faac5cf50040ca24c0b4b36998902c7c247a",
            "0x0000000000000000000000000000000000000000000000000000000000000033"
          ],
          "data": "0x",
          "blockHash": "0xeef952fa2261599349943779f0f103264135d4fd95e426ef2dbf35d4645c905e",
          "blockNumber": "0x2eba9c",
          "transactionHash": "0x7be72974c62c79aba2f799f4fe93fe461e9a5a32e70d54e7ca0db070af2284c1",
          "transactionIndex": "0x0",
          "logIndex": "0x1",
          "removed": false
        },
        {
          "address": "0x24757E4b5AD64e6b48d78Dc800D45b4061698757",
          "topics": [
            "0xddf252ad1be2c89b69c2b068fc378daa952ba7f163c4a11628f55a4df523b3ef",
            "0x0000000000000000000000000000000000000000000000000000000000000000",
            "0x0000000000000000000000005823443272c330e1a28cea0038e70196b785dbdd",
            "0x0000000000000000000000000000000000000000000000000000000000000034"
          ],
          "data": "0x",
          "blockHash": "0xeef952fa2261599349943779f0f103264135d4fd95e426ef2dbf35d4645c905e",
          "blockNumber": "0x2eba9c",
          "transactionHash": "0x7be72974c62c79aba2f799f4fe93fe461e9a5a32e70d54e7ca0db070af2284c1",
          "transactionIndex": "0x0",
          "logIndex": "0x2",
          "removed": false
        },
        {
          "address": "0x24757E4b5AD64e6b48d78Dc800D45b4061698757",
          "topics": [
            "0xddf252ad1be2c89b69c2b068fc378daa952ba7f163c4a11628f55a4df523b3ef",
            "0x0000000000000000000000000000000000000000000000000000000000000000",
            "0x0000000000000000000000005833869fdeb4d371b854d7474f5f84b43320fd05",
            "0x0000000000000000000000000000000000000000000000000000000000000035"
          ],
          "data": "0x",
          "blockHash": "0xeef952fa2261599349943779f0f103264135d4fd95e426ef2dbf35d4645c905e",
          "blockNumber": "0x2eba9c",
          "transactionHash": "0x7be72974c62c79aba2f799f4fe93fe461e9a5a32e70d54e7ca0db070af2284c1",
          "transactionIndex": "0x0",
          "logIndex": "0x3",
          "removed": false
        },
        {
          "address": "0x24757E4b5AD64e6b48d78Dc800D45b4061698757",
          "topics": [
            "0xddf252ad1be2c89b69c2b068fc378daa952ba7f163c4a11628f55a4df523b3ef",
            "0x0000000000000000000000000000000000000000000000000000000000000000",
            "0x00000000000000000000000059eaf2855d16affa5ee35f4a1b9f01febd450925",
            "0x0000000000000000000000000000000000000000000000000000000000000036"
          ],
          "data": "0x",
          "blockHash": "0xeef952fa2261599349943779f0f103264135d4fd95e426ef2dbf35d4645c905e",
          "blockNumber": "0x2eba9c",
          "transactionHash": "0x7be72974c62c79aba2f799f4fe93fe461e9a5a32e70d54e7ca0db070af2284c1",
          "transactionIndex": "0x0",
          "logIndex": "0x4",
          "removed": false
        },
        {
          "address": "0x24757E4b5AD64e6b48d78Dc800D45b4061698757",
          "topics": [
            "0xddf252ad1be2c89b69c2b068fc378daa952ba7f163c4a11628f55a4df523b3ef",
            "0x0000000000000000000000000000000000000000000000000000000000000000",
            "0x0000000000000000000000005a7749f83b81b301cab5f48eb8516b986daef23d",
            "0x0000000000000000000000000000000000000000000000000000000000000037"
          ],
          "data": "0x",
          "blockHash": "0xeef952fa2261599349943779f0f103264135d4fd95e426ef2dbf35d4645c905e",
          "blockNumber": "0x2eba9c",
          "transactionHash": "0x7be72974c62c79aba2f799f4fe93fe461e9a5a32e70d54e7ca0db070af2284c1",
          "transactionIndex": "0x0",
          "logIndex": "0x5",
          "removed": false
        },
        {
          "address": "0x24757E4b5AD64e6b48d78Dc800D45b4061698757",
          "topics": [
            "0xddf252ad1be2c89b69c2b068fc378daa952ba7f163c4a11628f55a4df523b3ef",
            "0x0000000000000000000000000000000000000000000000000000000000000000",
            "0x0000000000000000000000005b6dc4073fc99b4af64fe7e19868f11964f80d1a",
            "0x0000000000000000000000000000000000000000000000000000000000000038"
          ],
          "data": "0x",
          "blockHash": "0xeef952fa2261599349943779f0f103264135d4fd95e426ef2dbf35d4645c905e",
          "blockNumber": "0x2eba9c",
          "transactionHash": "0x7be72974c62c79aba2f799f4fe93fe461e9a5a32e70d54e7ca0db070af2284c1",
          "transactionIndex": "0x0",
          "logIndex": "0x6",
          "removed": false
        },
        {
          "address": "0x24757E4b5AD64e6b48d78Dc800D45b4061698757",
          "topics": [
            "0xddf252ad1be2c89b69c2b068fc378daa952ba7f163c4a11628f55a4df523b3ef",
            "0x0000000000000000000000000000000000000000000000000000000000000000",
            "0x0000000000000000000000005b7beb30a2009d1b6d388ce319572556b24861af",
            "0x0000000000000000000000000000000000000000000000000000000000000039"
          ],
          "data": "0x",
          "blockHash": "0xeef952fa2261599349943779f0f103264135d4fd95e426ef2dbf35d4645c905e",
          "blockNumber": "0x2eba9c",
          "transactionHash": "0x7be72974c62c79aba2f799f4fe93fe461e9a5a32e70d54e7ca0db070af2284c1",
          "transactionIndex": "0x0",
          "logIndex": "0x7",
          "removed": false
        },
        {
          "address": "0x24757E4b5AD64e6b48d78Dc800D45b4061698757",
          "topics": [
            "0xddf252ad1be2c89b69c2b068fc378daa952ba7f163c4a11628f55a4df523b3ef",
            "0x0000000000000000000000000000000000000000000000000000000000000000",
            "0x0000000000000000000000005c461a0c595d6b2a4b0f4a42fd55be7aaed8af80",
            "0x000000000000000000000000000000000000000000000000000000000000003a"
          ],
          "data": "0x",
          "blockHash": "0xeef952fa2261599349943779f0f103264135d4fd95e426ef2dbf35d4645c905e",
          "blockNumber": "0x2eba9c",
          "transactionHash": "0x7be72974c62c79aba2f799f4fe93fe461e9a5a32e70d54e7ca0db070af2284c1",
          "transactionIndex": "0x0",
          "logIndex": "0x8",
          "removed": false
        },
        {
          "address": "0x24757E4b5AD64e6b48d78Dc800D45b4061698757",
          "topics": [
            "0xddf252ad1be2c89b69c2b068fc378daa952ba7f163c4a11628f55a4df523b3ef",
            "0x0000000000000000000000000000000000000000000000000000000000000000",
            "0x0000000000000000000000005c49d4a6bb9a4c393a0680cedc46ec7f8d49e4a1",
            "0x000000000000000000000000000000000000000000000000000000000000003b"
          ],
          "data": "0x",
          "blockHash": "0xeef952fa2261599349943779f0f103264135d4fd95e426ef2dbf35d4645c905e",
          "blockNumber": "0x2eba9c",
          "transactionHash": "0x7be72974c62c79aba2f799f4fe93fe461e9a5a32e70d54e7ca0db070af2284c1",
          "transactionIndex": "0x0",
          "logIndex": "0x9",
          "removed": false
        },
        {
          "address": "0x24757E4b5AD64e6b48d78Dc800D45b4061698757",
          "topics": [
            "0xddf252ad1be2c89b69c2b068fc378daa952ba7f163c4a11628f55a4df523b3ef",
            "0x0000000000000000000000000000000000000000000000000000000000000000",
            "0x0000000000000000000000005cafbd5ae3ebeefeae0a1ef6ef21177df4e961a4",
            "0x000000000000000000000000000000000000000000000000000000000000003c"
          ],
          "data": "0x",
          "blockHash": "0xeef952fa2261599349943779f0f103264135d4fd95e426ef2dbf35d4645c905e",
          "blockNumber": "0x2eba9c",
          "transactionHash": "0x7be72974c62c79aba2f799f4fe93fe461e9a5a32e70d54e7ca0db070af2284c1",
          "transactionIndex": "0x0",
          "logIndex": "0xa",
          "removed": false
        },
        {
          "address": "0x24757E4b5AD64e6b48d78Dc800D45b4061698757",
          "topics": [
            "0xddf252ad1be2c89b69c2b068fc378daa952ba7f163c4a11628f55a4df523b3ef",
            "0x0000000000000000000000000000000000000000000000000000000000000000",
            "0x0000000000000000000000005d96d8f927a7bf5f342017caf70039b9e9cfc216",
            "0x000000000000000000000000000000000000000000000000000000000000003d"
          ],
          "data": "0x",
          "blockHash": "0xeef952fa2261599349943779f0f103264135d4fd95e426ef2dbf35d4645c905e",
          "blockNumber": "0x2eba9c",
          "transactionHash": "0x7be72974c62c79aba2f799f4fe93fe461e9a5a32e70d54e7ca0db070af2284c1",
          "transactionIndex": "0x0",
          "logIndex": "0xb",
          "removed": false
        },
        {
          "address": "0x24757E4b5AD64e6b48d78Dc800D45b4061698757",
          "topics": [
            "0xddf252ad1be2c89b69c2b068fc378daa952ba7f163c4a11628f55a4df523b3ef",
            "0x0000000000000000000000000000000000000000000000000000000000000000",
            "0x0000000000000000000000005e0a088942ec09c9ea98ae237625f063a3bed237",
            "0x000000000000000000000000000000000000000000000000000000000000003e"
          ],
          "data": "0x",
          "blockHash": "0xeef952fa2261599349943779f0f103264135d4fd95e426ef2dbf35d4645c905e",
          "blockNumber": "0x2eba9c",
          "transactionHash": "0x7be72974c62c79aba2f799f4fe93fe461e9a5a32e70d54e7ca0db070af2284c1",
          "transactionIndex": "0x0",
          "logIndex": "0xc",
          "removed": false
        },
        {
          "address": "0x24757E4b5AD64e6b48d78Dc800D45b4061698757",
          "topics": [
            "0xddf252ad1be2c89b69c2b068fc378daa952ba7f163c4a11628f55a4df523b3ef",
            "0x0000000000000000000000000000000000000000000000000000000000000000",
            "0x0000000000000000000000005fbe0ae423f1767028f150aa92545267507588ef",
            "0x000000000000000000000000000000000000000000000000000000000000003f"
          ],
          "data": "0x",
          "blockHash": "0xeef952fa2261599349943779f0f103264135d4fd95e426ef2dbf35d4645c905e",
          "blockNumber": "0x2eba9c",
          "transactionHash": "0x7be72974c62c79aba2f799f4fe93fe461e9a5a32e70d54e7ca0db070af2284c1",
          "transactionIndex": "0x0",
          "logIndex": "0xd",
          "removed": false
        },
        {
          "address": "0x24757E4b5AD64e6b48d78Dc800D45b4061698757",
          "topics": [
            "0xddf252ad1be2c89b69c2b068fc378daa952ba7f163c4a11628f55a4df523b3ef",
            "0x0000000000000000000000000000000000000000000000000000000000000000",
            "0x0000000000000000000000005fd2e3ba05c862e62a34b9f63c45c0df622ac112",
            "0x0000000000000000000000000000000000000000000000000000000000000040"
          ],
          "data": "0x",
          "blockHash": "0xeef952fa2261599349943779f0f103264135d4fd95e426ef2dbf35d4645c905e",
          "blockNumber": "0x2eba9c",
          "transactionHash": "0x7be72974c62c79aba2f799f4fe93fe461e9a5a32e70d54e7ca0db070af2284c1",
          "transactionIndex": "0x0",
          "logIndex": "0xe",
          "removed": false
        },
        {
          "address": "0x24757E4b5AD64e6b48d78Dc800D45b4061698757",
          "topics": [
            "0xddf252ad1be2c89b69c2b068fc378daa952ba7f163c4a11628f55a4df523b3ef",
            "0x0000000000000000000000000000000000000000000000000000000000000000",
            "0x00000000000000000000000062cfcd9b95c0fa404bcd14d6163bc6d84003904c",
            "0x0000000000000000000000000000000000000000000000000000000000000041"
          ],
          "data": "0x",
          "blockHash": "0xeef952fa2261599349943779f0f103264135d4fd95e426ef2dbf35d4645c905e",
          "blockNumber": "0x2eba9c",
          "transactionHash": "0x7be72974c62c79aba2f799f4fe93fe461e9a5a32e70d54e7ca0db070af2284c1",
          "transactionIndex": "0x0",
          "logIndex": "0xf",
          "removed": false
        },
        {
          "address": "0x24757E4b5AD64e6b48d78Dc800D45b4061698757",
          "topics": [
            "0xddf252ad1be2c89b69c2b068fc378daa952ba7f163c4a11628f55a4df523b3ef",
            "0x0000000000000000000000000000000000000000000000000000000000000000",
            "0x00000000000000000000000064dcbead3b25b94c1c07158c8a6ad6517b95513e",
            "0x0000000000000000000000000000000000000000000000000000000000000042"
          ],
          "data": "0x",
          "blockHash": "0xeef952fa2261599349943779f0f103264135d4fd95e426ef2dbf35d4645c905e",
          "blockNumber": "0x2eba9c",
          "transactionHash": "0x7be72974c62c79aba2f799f4fe93fe461e9a5a32e70d54e7ca0db070af2284c1",
          "transactionIndex": "0x0",
          "logIndex": "0x10",
          "removed": false
        },
        {
          "address": "0x24757E4b5AD64e6b48d78Dc800D45b4061698757",
          "topics": [
            "0xddf252ad1be2c89b69c2b068fc378daa952ba7f163c4a11628f55a4df523b3ef",
            "0x0000000000000000000000000000000000000000000000000000000000000000",
            "0x000000000000000000000000659e763336606a3cedf05d70baa34a5644c1affe",
            "0x0000000000000000000000000000000000000000000000000000000000000043"
          ],
          "data": "0x",
          "blockHash": "0xeef952fa2261599349943779f0f103264135d4fd95e426ef2dbf35d4645c905e",
          "blockNumber": "0x2eba9c",
          "transactionHash": "0x7be72974c62c79aba2f799f4fe93fe461e9a5a32e70d54e7ca0db070af2284c1",
          "transactionIndex": "0x0",
          "logIndex": "0x11",
          "removed": false
        },
        {
          "address": "0x24757E4b5AD64e6b48d78Dc800D45b4061698757",
          "topics": [
            "0xddf252ad1be2c89b69c2b068fc378daa952ba7f163c4a11628f55a4df523b3ef",
            "0x0000000000000000000000000000000000000000000000000000000000000000",
            "0x00000000000000000000000065a7c3cb6d1c3cef361063c57936d9d4c9d7bcab",
            "0x0000000000000000000000000000000000000000000000000000000000000044"
          ],
          "data": "0x",
          "blockHash": "0xeef952fa2261599349943779f0f103264135d4fd95e426ef2dbf35d4645c905e",
          "blockNumber": "0x2eba9c",
          "transactionHash": "0x7be72974c62c79aba2f799f4fe93fe461e9a5a32e70d54e7ca0db070af2284c1",
          "transactionIndex": "0x0",
          "logIndex": "0x12",
          "removed": false
        },
        {
          "address": "0x24757E4b5AD64e6b48d78Dc800D45b4061698757",
          "topics": [
            "0xddf252ad1be2c89b69c2b068fc378daa952ba7f163c4a11628f55a4df523b3ef",
            "0x0000000000000000000000000000000000000000000000000000000000000000",
            "0x00000000000000000000000066d4908e053f7150038b1bf3579cf384fde0ba72",
            "0x0000000000000000000000000000000000000000000000000000000000000045"
          ],
          "data": "0x",
          "blockHash": "0xeef952fa2261599349943779f0f103264135d4fd95e426ef2dbf35d4645c905e",
          "blockNumber": "0x2eba9c",
          "transactionHash": "0x7be72974c62c79aba2f799f4fe93fe461e9a5a32e70d54e7ca0db070af2284c1",
          "transactionIndex": "0x0",
          "logIndex": "0x13",
          "removed": false
        },
        {
          "address": "0x24757E4b5AD64e6b48d78Dc800D45b4061698757",
          "topics": [
            "0xddf252ad1be2c89b69c2b068fc378daa952ba7f163c4a11628f55a4df523b3ef",
            "0x0000000000000000000000000000000000000000000000000000000000000000",
            "0x00000000000000000000000067d9057494e2e1b7361251043843db3c2abf8177",
            "0x0000000000000000000000000000000000000000000000000000000000000046"
          ],
          "data": "0x",
          "blockHash": "0xeef952fa2261599349943779f0f103264135d4fd95e426ef2dbf35d4645c905e",
          "blockNumber": "0x2eba9c",
          "transactionHash": "0x7be72974c62c79aba2f799f4fe93fe461e9a5a32e70d54e7ca0db070af2284c1",
          "transactionIndex": "0x0",
          "logIndex": "0x14",
          "removed": false
        },
        {
          "address": "0x24757E4b5AD64e6b48d78Dc800D45b4061698757",
          "topics": [
            "0xddf252ad1be2c89b69c2b068fc378daa952ba7f163c4a11628f55a4df523b3ef",
            "0x0000000000000000000000000000000000000000000000000000000000000000",
            "0x000000000000000000000000691a2b9522eefcefc870ec35ee43ad8e60a0bc8f",
            "0x0000000000000000000000000000000000000000000000000000000000000047"
          ],
          "data": "0x",
          "blockHash": "0xeef952fa2261599349943779f0f103264135d4fd95e426ef2dbf35d4645c905e",
          "blockNumber": "0x2eba9c",
          "transactionHash": "0x7be72974c62c79aba2f799f4fe93fe461e9a5a32e70d54e7ca0db070af2284c1",
          "transactionIndex": "0x0",
          "logIndex": "0x15",
          "removed": false
        },
        {
          "address": "0x24757E4b5AD64e6b48d78Dc800D45b4061698757",
          "topics": [
            "0xddf252ad1be2c89b69c2b068fc378daa952ba7f163c4a11628f55a4df523b3ef",
            "0x0000000000000000000000000000000000000000000000000000000000000000",
            "0x000000000000000000000000694367ea528240fec8172581282ff171a6ec39aa",
            "0x0000000000000000000000000000000000000000000000000000000000000048"
          ],
          "data": "0x",
          "blockHash": "0xeef952fa2261599349943779f0f103264135d4fd95e426ef2dbf35d4645c905e",
          "blockNumber": "0x2eba9c",
          "transactionHash": "0x7be72974c62c79aba2f799f4fe93fe461e9a5a32e70d54e7ca0db070af2284c1",
          "transactionIndex": "0x0",
          "logIndex": "0x16",
          "removed": false
        },
        {
          "address": "0x24757E4b5AD64e6b48d78Dc800D45b4061698757",
          "topics": [
            "0xddf252ad1be2c89b69c2b068fc378daa952ba7f163c4a11628f55a4df523b3ef",
            "0x0000000000000000000000000000000000000000000000000000000000000000",
            "0x00000000000000000000000069c38c760634c23f3a3d9be441eccbd2e50e5f73",
            "0x0000000000000000000000000000000000000000000000000000000000000049"
          ],
          "data": "0x",
          "blockHash": "0xeef952fa2261599349943779f0f103264135d4fd95e426ef2dbf35d4645c905e",
          "blockNumber": "0x2eba9c",
          "transactionHash": "0x7be72974c62c79aba2f799f4fe93fe461e9a5a32e70d54e7ca0db070af2284c1",
          "transactionIndex": "0x0",
          "logIndex": "0x17",
          "removed": false
        },
        {
          "address": "0x24757E4b5AD64e6b48d78Dc800D45b4061698757",
          "topics": [
            "0xddf252ad1be2c89b69c2b068fc378daa952ba7f163c4a11628f55a4df523b3ef",
            "0x0000000000000000000000000000000000000000000000000000000000000000",
            "0x0000000000000000000000006a946845a742a80a07ce1181e68d91d3f0232ec0",
            "0x000000000000000000000000000000000000000000000000000000000000004a"
          ],
          "data": "0x",
          "blockHash": "0xeef952fa2261599349943779f0f103264135d4fd95e426ef2dbf35d4645c905e",
          "blockNumber": "0x2eba9c",
          "transactionHash": "0x7be72974c62c79aba2f799f4fe93fe461e9a5a32e70d54e7ca0db070af2284c1",
          "transactionIndex": "0x0",
          "logIndex": "0x18",
          "removed": false
        },
        {
          "address": "0x24757E4b5AD64e6b48d78Dc800D45b4061698757",
          "topics": [
            "0xddf252ad1be2c89b69c2b068fc378daa952ba7f163c4a11628f55a4df523b3ef",
            "0x0000000000000000000000000000000000000000000000000000000000000000",
            "0x0000000000000000000000006a9e6d86475a3061674abea97b1cbd9f67815ead",
            "0x000000000000000000000000000000000000000000000000000000000000004b"
          ],
          "data": "0x",
          "blockHash": "0xeef952fa2261599349943779f0f103264135d4fd95e426ef2dbf35d4645c905e",
          "blockNumber": "0x2eba9c",
          "transactionHash": "0x7be72974c62c79aba2f799f4fe93fe461e9a5a32e70d54e7ca0db070af2284c1",
          "transactionIndex": "0x0",
          "logIndex": "0x19",
          "removed": false
        },
        {
          "address": "0x24757E4b5AD64e6b48d78Dc800D45b4061698757",
          "topics": [
            "0xddf252ad1be2c89b69c2b068fc378daa952ba7f163c4a11628f55a4df523b3ef",
            "0x0000000000000000000000000000000000000000000000000000000000000000",
            "0x0000000000000000000000006b38b2f7f357cf97bd58eb5d2f94e3cdc8a7e70c",
            "0x000000000000000000000000000000000000000000000000000000000000004c"
          ],
          "data": "0x",
          "blockHash": "0xeef952fa2261599349943779f0f103264135d4fd95e426ef2dbf35d4645c905e",
          "blockNumber": "0x2eba9c",
          "transactionHash": "0x7be72974c62c79aba2f799f4fe93fe461e9a5a32e70d54e7ca0db070af2284c1",
          "transactionIndex": "0x0",
          "logIndex": "0x1a",
          "removed": false
        },
        {
          "address": "0x24757E4b5AD64e6b48d78Dc800D45b4061698757",
          "topics": [
            "0xddf252ad1be2c89b69c2b068fc378daa952ba7f163c4a11628f55a4df523b3ef",
            "0x0000000000000000000000000000000000000000000000000000000000000000",
            "0x0000000000000000000000006ca7b32902ea9dcf9e184830b85c7ba40b742811",
            "0x000000000000000000000000000000000000000000000000000000000000004d"
          ],
          "data": "0x",
          "blockHash": "0xeef952fa2261599349943779f0f103264135d4fd95e426ef2dbf35d4645c905e",
          "blockNumber": "0x2eba9c",
          "transactionHash": "0x7be72974c62c79aba2f799f4fe93fe461e9a5a32e70d54e7ca0db070af2284c1",
          "transactionIndex": "0x0",
          "logIndex": "0x1b",
          "removed": false
        },
        {
          "address": "0x24757E4b5AD64e6b48d78Dc800D45b4061698757",
          "topics": [
            "0xddf252ad1be2c89b69c2b068fc378daa952ba7f163c4a11628f55a4df523b3ef",
            "0x0000000000000000000000000000000000000000000000000000000000000000",
            "0x0000000000000000000000006d526f6b4c86fbdc8e359e6bef4cd6a42acea2d7",
            "0x000000000000000000000000000000000000000000000000000000000000004e"
          ],
          "data": "0x",
          "blockHash": "0xeef952fa2261599349943779f0f103264135d4fd95e426ef2dbf35d4645c905e",
          "blockNumber": "0x2eba9c",
          "transactionHash": "0x7be72974c62c79aba2f799f4fe93fe461e9a5a32e70d54e7ca0db070af2284c1",
          "transactionIndex": "0x0",
          "logIndex": "0x1c",
          "removed": false
        },
        {
          "address": "0x24757E4b5AD64e6b48d78Dc800D45b4061698757",
          "topics": [
            "0xddf252ad1be2c89b69c2b068fc378daa952ba7f163c4a11628f55a4df523b3ef",
            "0x0000000000000000000000000000000000000000000000000000000000000000",
            "0x0000000000000000000000006d7d0b5eda14e33bf1c1d05dd4f1b1ce4fb06581",
            "0x000000000000000000000000000000000000000000000000000000000000004f"
          ],
          "data": "0x",
          "blockHash": "0xeef952fa2261599349943779f0f103264135d4fd95e426ef2dbf35d4645c905e",
          "blockNumber": "0x2eba9c",
          "transactionHash": "0x7be72974c62c79aba2f799f4fe93fe461e9a5a32e70d54e7ca0db070af2284c1",
          "transactionIndex": "0x0",
          "logIndex": "0x1d",
          "removed": false
        },
        {
          "address": "0x24757E4b5AD64e6b48d78Dc800D45b4061698757",
          "topics": [
            "0xddf252ad1be2c89b69c2b068fc378daa952ba7f163c4a11628f55a4df523b3ef",
            "0x0000000000000000000000000000000000000000000000000000000000000000",
            "0x0000000000000000000000006da0a1784de1abdde1734ba37eca3d560bf044c0",
            "0x0000000000000000000000000000000000000000000000000000000000000050"
          ],
          "data": "0x",
          "blockHash": "0xeef952fa2261599349943779f0f103264135d4fd95e426ef2dbf35d4645c905e",
          "blockNumber": "0x2eba9c",
          "transactionHash": "0x7be72974c62c79aba2f799f4fe93fe461e9a5a32e70d54e7ca0db070af2284c1",
          "transactionIndex": "0x0",
          "logIndex": "0x1e",
          "removed": false
        },
        {
          "address": "0x24757E4b5AD64e6b48d78Dc800D45b4061698757",
          "topics": [
            "0xddf252ad1be2c89b69c2b068fc378daa952ba7f163c4a11628f55a4df523b3ef",
            "0x0000000000000000000000000000000000000000000000000000000000000000",
            "0x0000000000000000000000006de3e46cce02a39d74e55eb8d23e5b175cab882a",
            "0x0000000000000000000000000000000000000000000000000000000000000051"
          ],
          "data": "0x",
          "blockHash": "0xeef952fa2261599349943779f0f103264135d4fd95e426ef2dbf35d4645c905e",
          "blockNumber": "0x2eba9c",
          "transactionHash": "0x7be72974c62c79aba2f799f4fe93fe461e9a5a32e70d54e7ca0db070af2284c1",
          "transactionIndex": "0x0",
          "logIndex": "0x1f",
          "removed": false
        },
        {
          "address": "0x24757E4b5AD64e6b48d78Dc800D45b4061698757",
          "topics": [
            "0xddf252ad1be2c89b69c2b068fc378daa952ba7f163c4a11628f55a4df523b3ef",
            "0x0000000000000000000000000000000000000000000000000000000000000000",
            "0x00000000000000000000000070ac5fae65e0f80c737916cf2f5e36c065b74ada",
            "0x0000000000000000000000000000000000000000000000000000000000000052"
          ],
          "data": "0x",
          "blockHash": "0xeef952fa2261599349943779f0f103264135d4fd95e426ef2dbf35d4645c905e",
          "blockNumber": "0x2eba9c",
          "transactionHash": "0x7be72974c62c79aba2f799f4fe93fe461e9a5a32e70d54e7ca0db070af2284c1",
          "transactionIndex": "0x0",
          "logIndex": "0x20",
          "removed": false
        },
        {
          "address": "0x24757E4b5AD64e6b48d78Dc800D45b4061698757",
          "topics": [
            "0xddf252ad1be2c89b69c2b068fc378daa952ba7f163c4a11628f55a4df523b3ef",
            "0x0000000000000000000000000000000000000000000000000000000000000000",
            "0x000000000000000000000000716722c80757fff31da3f3c392a1736b7cfa3a3e",
            "0x0000000000000000000000000000000000000000000000000000000000000053"
          ],
          "data": "0x",
          "blockHash": "0xeef952fa2261599349943779f0f103264135d4fd95e426ef2dbf35d4645c905e",
          "blockNumber": "0x2eba9c",
          "transactionHash": "0x7be72974c62c79aba2f799f4fe93fe461e9a5a32e70d54e7ca0db070af2284c1",
          "transactionIndex": "0x0",
          "logIndex": "0x21",
          "removed": false
        },
        {
          "address": "0x24757E4b5AD64e6b48d78Dc800D45b4061698757",
          "topics": [
            "0xddf252ad1be2c89b69c2b068fc378daa952ba7f163c4a11628f55a4df523b3ef",
            "0x0000000000000000000000000000000000000000000000000000000000000000",
            "0x00000000000000000000000071b99da67fdbab5a90f0eae8581e29259a259856",
            "0x0000000000000000000000000000000000000000000000000000000000000054"
          ],
          "data": "0x",
          "blockHash": "0xeef952fa2261599349943779f0f103264135d4fd95e426ef2dbf35d4645c905e",
          "blockNumber": "0x2eba9c",
          "transactionHash": "0x7be72974c62c79aba2f799f4fe93fe461e9a5a32e70d54e7ca0db070af2284c1",
          "transactionIndex": "0x0",
          "logIndex": "0x22",
          "removed": false
        },
        {
          "address": "0x24757E4b5AD64e6b48d78Dc800D45b4061698757",
          "topics": [
            "0xddf252ad1be2c89b69c2b068fc378daa952ba7f163c4a11628f55a4df523b3ef",
            "0x0000000000000000000000000000000000000000000000000000000000000000",
            "0x00000000000000000000000071d5daa6a7dc1b94918c8768749b5f9982200660",
            "0x0000000000000000000000000000000000000000000000000000000000000055"
          ],
          "data": "0x",
          "blockHash": "0xeef952fa2261599349943779f0f103264135d4fd95e426ef2dbf35d4645c905e",
          "blockNumber": "0x2eba9c",
          "transactionHash": "0x7be72974c62c79aba2f799f4fe93fe461e9a5a32e70d54e7ca0db070af2284c1",
          "transactionIndex": "0x0",
          "logIndex": "0x23",
          "removed": false
        },
        {
          "address": "0x24757E4b5AD64e6b48d78Dc800D45b4061698757",
          "topics": [
            "0xddf252ad1be2c89b69c2b068fc378daa952ba7f163c4a11628f55a4df523b3ef",
            "0x0000000000000000000000000000000000000000000000000000000000000000",
            "0x0000000000000000000000007310943e6a4ca96f56cf627d20b50b575bd2d97f",
            "0x0000000000000000000000000000000000000000000000000000000000000056"
          ],
          "data": "0x",
          "blockHash": "0xeef952fa2261599349943779f0f103264135d4fd95e426ef2dbf35d4645c905e",
          "blockNumber": "0x2eba9c",
          "transactionHash": "0x7be72974c62c79aba2f799f4fe93fe461e9a5a32e70d54e7ca0db070af2284c1",
          "transactionIndex": "0x0",
          "logIndex": "0x24",
          "removed": false
        },
        {
          "address": "0x24757E4b5AD64e6b48d78Dc800D45b4061698757",
          "topics": [
            "0xddf252ad1be2c89b69c2b068fc378daa952ba7f163c4a11628f55a4df523b3ef",
            "0x0000000000000000000000000000000000000000000000000000000000000000",
            "0x00000000000000000000000073393c2608f9aeaf15fcb2b89af777112ea12947",
            "0x0000000000000000000000000000000000000000000000000000000000000057"
          ],
          "data": "0x",
          "blockHash": "0xeef952fa2261599349943779f0f103264135d4fd95e426ef2dbf35d4645c905e",
          "blockNumber": "0x2eba9c",
          "transactionHash": "0x7be72974c62c79aba2f799f4fe93fe461e9a5a32e70d54e7ca0db070af2284c1",
          "transactionIndex": "0x0",
          "logIndex": "0x25",
          "removed": false
        },
        {
          "address": "0x24757E4b5AD64e6b48d78Dc800D45b4061698757",
          "topics": [
            "0xddf252ad1be2c89b69c2b068fc378daa952ba7f163c4a11628f55a4df523b3ef",
            "0x0000000000000000000000000000000000000000000000000000000000000000",
            "0x00000000000000000000000074df3f79e48220af12c8da4737be2de223836c99",
            "0x0000000000000000000000000000000000000000000000000000000000000058"
          ],
          "data": "0x",
          "blockHash": "0xeef952fa2261599349943779f0f103264135d4fd95e426ef2dbf35d4645c905e",
          "blockNumber": "0x2eba9c",
          "transactionHash": "0x7be72974c62c79aba2f799f4fe93fe461e9a5a32e70d54e7ca0db070af2284c1",
          "transactionIndex": "0x0",
          "logIndex": "0x26",
          "removed": false
        },
        {
          "address": "0x24757E4b5AD64e6b48d78Dc800D45b4061698757",
          "topics": [
            "0xddf252ad1be2c89b69c2b068fc378daa952ba7f163c4a11628f55a4df523b3ef",
            "0x0000000000000000000000000000000000000000000000000000000000000000",
            "0x0000000000000000000000007848e1d2d6046c5e75a98268afbec4e0c5b2bbe0",
            "0x0000000000000000000000000000000000000000000000000000000000000059"
          ],
          "data": "0x",
          "blockHash": "0xeef952fa2261599349943779f0f103264135d4fd95e426ef2dbf35d4645c905e",
          "blockNumber": "0x2eba9c",
          "transactionHash": "0x7be72974c62c79aba2f799f4fe93fe461e9a5a32e70d54e7ca0db070af2284c1",
          "transactionIndex": "0x0",
          "logIndex": "0x27",
          "removed": false
        },
        {
          "address": "0x24757E4b5AD64e6b48d78Dc800D45b4061698757",
          "topics": [
            "0xddf252ad1be2c89b69c2b068fc378daa952ba7f163c4a11628f55a4df523b3ef",
            "0x0000000000000000000000000000000000000000000000000000000000000000",
            "0x00000000000000000000000079077adad716e1351dfc7e386fd5d19cb130c779",
            "0x000000000000000000000000000000000000000000000000000000000000005a"
          ],
          "data": "0x",
          "blockHash": "0xeef952fa2261599349943779f0f103264135d4fd95e426ef2dbf35d4645c905e",
          "blockNumber": "0x2eba9c",
          "transactionHash": "0x7be72974c62c79aba2f799f4fe93fe461e9a5a32e70d54e7ca0db070af2284c1",
          "transactionIndex": "0x0",
          "logIndex": "0x28",
          "removed": false
        },
        {
          "address": "0x24757E4b5AD64e6b48d78Dc800D45b4061698757",
          "topics": [
            "0xddf252ad1be2c89b69c2b068fc378daa952ba7f163c4a11628f55a4df523b3ef",
            "0x0000000000000000000000000000000000000000000000000000000000000000",
            "0x0000000000000000000000007c09c4155901ca623e2f9fe9205d5621a821a5dd",
            "0x000000000000000000000000000000000000000000000000000000000000005b"
          ],
          "data": "0x",
          "blockHash": "0xeef952fa2261599349943779f0f103264135d4fd95e426ef2dbf35d4645c905e",
          "blockNumber": "0x2eba9c",
          "transactionHash": "0x7be72974c62c79aba2f799f4fe93fe461e9a5a32e70d54e7ca0db070af2284c1",
          "transactionIndex": "0x0",
          "logIndex": "0x29",
          "removed": false
        },
        {
          "address": "0x24757E4b5AD64e6b48d78Dc800D45b4061698757",
          "topics": [
            "0xddf252ad1be2c89b69c2b068fc378daa952ba7f163c4a11628f55a4df523b3ef",
            "0x0000000000000000000000000000000000000000000000000000000000000000",
            "0x00000000000000000000000081d042efe63a578188b258ce02f2ea78510f00a6",
            "0x000000000000000000000000000000000000000000000000000000000000005c"
          ],
          "data": "0x",
          "blockHash": "0xeef952fa2261599349943779f0f103264135d4fd95e426ef2dbf35d4645c905e",
          "blockNumber": "0x2eba9c",
          "transactionHash": "0x7be72974c62c79aba2f799f4fe93fe461e9a5a32e70d54e7ca0db070af2284c1",
          "transactionIndex": "0x0",
          "logIndex": "0x2a",
          "removed": false
        },
        {
          "address": "0x24757E4b5AD64e6b48d78Dc800D45b4061698757",
          "topics": [
            "0xddf252ad1be2c89b69c2b068fc378daa952ba7f163c4a11628f55a4df523b3ef",
            "0x0000000000000000000000000000000000000000000000000000000000000000",
            "0x00000000000000000000000082e8e8565aff16a68e31972755c55df22b2e3938",
            "0x000000000000000000000000000000000000000000000000000000000000005d"
          ],
          "data": "0x",
          "blockHash": "0xeef952fa2261599349943779f0f103264135d4fd95e426ef2dbf35d4645c905e",
          "blockNumber": "0x2eba9c",
          "transactionHash": "0x7be72974c62c79aba2f799f4fe93fe461e9a5a32e70d54e7ca0db070af2284c1",
          "transactionIndex": "0x0",
          "logIndex": "0x2b",
          "removed": false
        },
        {
          "address": "0x24757E4b5AD64e6b48d78Dc800D45b4061698757",
          "topics": [
            "0xddf252ad1be2c89b69c2b068fc378daa952ba7f163c4a11628f55a4df523b3ef",
            "0x0000000000000000000000000000000000000000000000000000000000000000",
            "0x00000000000000000000000082f659531def6e3893aa584ca242ccd338ae1f0e",
            "0x000000000000000000000000000000000000000000000000000000000000005e"
          ],
          "data": "0x",
          "blockHash": "0xeef952fa2261599349943779f0f103264135d4fd95e426ef2dbf35d4645c905e",
          "blockNumber": "0x2eba9c",
          "transactionHash": "0x7be72974c62c79aba2f799f4fe93fe461e9a5a32e70d54e7ca0db070af2284c1",
          "transactionIndex": "0x0",
          "logIndex": "0x2c",
          "removed": false
        },
        {
          "address": "0x24757E4b5AD64e6b48d78Dc800D45b4061698757",
          "topics": [
            "0xddf252ad1be2c89b69c2b068fc378daa952ba7f163c4a11628f55a4df523b3ef",
            "0x0000000000000000000000000000000000000000000000000000000000000000",
            "0x000000000000000000000000835fae1cdcf149d0c6b73b04ca82e9376e924a0c",
            "0x000000000000000000000000000000000000000000000000000000000000005f"
          ],
          "data": "0x",
          "blockHash": "0xeef952fa2261599349943779f0f103264135d4fd95e426ef2dbf35d4645c905e",
          "blockNumber": "0x2eba9c",
          "transactionHash": "0x7be72974c62c79aba2f799f4fe93fe461e9a5a32e70d54e7ca0db070af2284c1",
          "transactionIndex": "0x0",
          "logIndex": "0x2d",
          "removed": false
        },
        {
          "address": "0x24757E4b5AD64e6b48d78Dc800D45b4061698757",
          "topics": [
            "0xddf252ad1be2c89b69c2b068fc378daa952ba7f163c4a11628f55a4df523b3ef",
            "0x0000000000000000000000000000000000000000000000000000000000000000",
            "0x00000000000000000000000084641137bac4db68de94ec3d2ed89ace0aa88f20",
            "0x0000000000000000000000000000000000000000000000000000000000000060"
          ],
          "data": "0x",
          "blockHash": "0xeef952fa2261599349943779f0f103264135d4fd95e426ef2dbf35d4645c905e",
          "blockNumber": "0x2eba9c",
          "transactionHash": "0x7be72974c62c79aba2f799f4fe93fe461e9a5a32e70d54e7ca0db070af2284c1",
          "transactionIndex": "0x0",
          "logIndex": "0x2e",
          "removed": false
        },
        {
          "address": "0x24757E4b5AD64e6b48d78Dc800D45b4061698757",
          "topics": [
            "0xddf252ad1be2c89b69c2b068fc378daa952ba7f163c4a11628f55a4df523b3ef",
            "0x0000000000000000000000000000000000000000000000000000000000000000",
            "0x0000000000000000000000008625afdbf3744d433d850c681ba881d028253c8a",
            "0x0000000000000000000000000000000000000000000000000000000000000061"
          ],
          "data": "0x",
          "blockHash": "0xeef952fa2261599349943779f0f103264135d4fd95e426ef2dbf35d4645c905e",
          "blockNumber": "0x2eba9c",
          "transactionHash": "0x7be72974c62c79aba2f799f4fe93fe461e9a5a32e70d54e7ca0db070af2284c1",
          "transactionIndex": "0x0",
          "logIndex": "0x2f",
          "removed": false
        },
        {
          "address": "0x24757E4b5AD64e6b48d78Dc800D45b4061698757",
          "topics": [
            "0xddf252ad1be2c89b69c2b068fc378daa952ba7f163c4a11628f55a4df523b3ef",
            "0x0000000000000000000000000000000000000000000000000000000000000000",
            "0x0000000000000000000000008bf64312be1d4e502dcc0533d5cadf0a4f8d551e",
            "0x0000000000000000000000000000000000000000000000000000000000000062"
          ],
          "data": "0x",
          "blockHash": "0xeef952fa2261599349943779f0f103264135d4fd95e426ef2dbf35d4645c905e",
          "blockNumber": "0x2eba9c",
          "transactionHash": "0x7be72974c62c79aba2f799f4fe93fe461e9a5a32e70d54e7ca0db070af2284c1",
          "transactionIndex": "0x0",
          "logIndex": "0x30",
          "removed": false
        },
        {
          "address": "0x24757E4b5AD64e6b48d78Dc800D45b4061698757",
          "topics": [
            "0xddf252ad1be2c89b69c2b068fc378daa952ba7f163c4a11628f55a4df523b3ef",
            "0x0000000000000000000000000000000000000000000000000000000000000000",
            "0x0000000000000000000000008f99b0b48b23908da9f727b5083052d5099e6aea",
            "0x0000000000000000000000000000000000000000000000000000000000000063"
          ],
          "data": "0x",
          "blockHash": "0xeef952fa2261599349943779f0f103264135d4fd95e426ef2dbf35d4645c905e",
          "blockNumber": "0x2eba9c",
          "transactionHash": "0x7be72974c62c79aba2f799f4fe93fe461e9a5a32e70d54e7ca0db070af2284c1",
          "transactionIndex": "0x0",
          "logIndex": "0x31",
          "removed": false
        }
      ],
      "status": "0x1",
      "logsBloom": "0x002200102c001000040900100024208000408200200600080e4025810021200022820581000249022a00200200a1044610280420100001102000001212808096010049000020004000080008060084030009004000008200804092041000009021004a4802280120000020008081a83c4008132820000000100000113050880882000028505020000000000000104400000000a0000c500010c08284022200a00020010018054040801080c5021430600010000040200488810010200407400540200012a0004280402112000008090400c40080225054201400002200bc2200100012e480505248400422000008000040002000100000200619248010002400",
      "effectiveGasPrice": "0xf761ef6100"
    },
    {
      "transactionHash": "0x0f3aa0d634bc0305146d85bb6413932db10ca54926f6e05b7c01a4e4ba7e3b48",
      "transactionIndex": "0x0",
      "blockHash": "0x67e6687cd247ec1bd7bf4ad6e29e9595a4ff34058c228438758b7b29af7047ea",
      "blockNumber": "0x2eba9d",
      "from": "0xb912354202419695Ae69E38aA77d56856Cc850f4",
      "to": "0x24757E4b5AD64e6b48d78Dc800D45b4061698757",
      "cumulativeGasUsed": "0x24ea4b",
      "gasUsed": "0x24ea4b",
      "contractAddress": null,
      "logs": [
        {
          "address": "0x24757E4b5AD64e6b48d78Dc800D45b4061698757",
          "topics": [
            "0xddf252ad1be2c89b69c2b068fc378daa952ba7f163c4a11628f55a4df523b3ef",
            "0x0000000000000000000000000000000000000000000000000000000000000000",
            "0x000000000000000000000000911bb65a13af3f83cd0b60bf113b644b53d7e438",
            "0x0000000000000000000000000000000000000000000000000000000000000064"
          ],
          "data": "0x",
          "blockHash": "0x67e6687cd247ec1bd7bf4ad6e29e9595a4ff34058c228438758b7b29af7047ea",
          "blockNumber": "0x2eba9d",
          "transactionHash": "0x0f3aa0d634bc0305146d85bb6413932db10ca54926f6e05b7c01a4e4ba7e3b48",
          "transactionIndex": "0x0",
          "logIndex": "0x0",
          "removed": false
        },
        {
          "address": "0x24757E4b5AD64e6b48d78Dc800D45b4061698757",
          "topics": [
            "0xddf252ad1be2c89b69c2b068fc378daa952ba7f163c4a11628f55a4df523b3ef",
            "0x0000000000000000000000000000000000000000000000000000000000000000",
            "0x000000000000000000000000917cf39cff45328cd63fb25312861b3bcc0b2626",
            "0x0000000000000000000000000000000000000000000000000000000000000065"
          ],
          "data": "0x",
          "blockHash": "0x67e6687cd247ec1bd7bf4ad6e29e9595a4ff34058c228438758b7b29af7047ea",
          "blockNumber": "0x2eba9d",
          "transactionHash": "0x0f3aa0d634bc0305146d85bb6413932db10ca54926f6e05b7c01a4e4ba7e3b48",
          "transactionIndex": "0x0",
          "logIndex": "0x1",
          "removed": false
        },
        {
          "address": "0x24757E4b5AD64e6b48d78Dc800D45b4061698757",
          "topics": [
            "0xddf252ad1be2c89b69c2b068fc378daa952ba7f163c4a11628f55a4df523b3ef",
            "0x0000000000000000000000000000000000000000000000000000000000000000",
            "0x00000000000000000000000094f5a2c492a0ab1c3da2187bb2ed6fad696920ec",
            "0x0000000000000000000000000000000000000000000000000000000000000066"
          ],
          "data": "0x",
          "blockHash": "0x67e6687cd247ec1bd7bf4ad6e29e9595a4ff34058c228438758b7b29af7047ea",
          "blockNumber": "0x2eba9d",
          "transactionHash": "0x0f3aa0d634bc0305146d85bb6413932db10ca54926f6e05b7c01a4e4ba7e3b48",
          "transactionIndex": "0x0",
          "logIndex": "0x2",
          "removed": false
        },
        {
          "address": "0x24757E4b5AD64e6b48d78Dc800D45b4061698757",
          "topics": [
            "0xddf252ad1be2c89b69c2b068fc378daa952ba7f163c4a11628f55a4df523b3ef",
            "0x0000000000000000000000000000000000000000000000000000000000000000",
            "0x000000000000000000000000967b073201215cabbbc0f1c1f2b258683b495cb4",
            "0x0000000000000000000000000000000000000000000000000000000000000067"
          ],
          "data": "0x",
          "blockHash": "0x67e6687cd247ec1bd7bf4ad6e29e9595a4ff34058c228438758b7b29af7047ea",
          "blockNumber": "0x2eba9d",
          "transactionHash": "0x0f3aa0d634bc0305146d85bb6413932db10ca54926f6e05b7c01a4e4ba7e3b48",
          "transactionIndex": "0x0",
          "logIndex": "0x3",
          "removed": false
        },
        {
          "address": "0x24757E4b5AD64e6b48d78Dc800D45b4061698757",
          "topics": [
            "0xddf252ad1be2c89b69c2b068fc378daa952ba7f163c4a11628f55a4df523b3ef",
            "0x0000000000000000000000000000000000000000000000000000000000000000",
            "0x00000000000000000000000096a77560146501eaeb5e6d5b7d8dd1ed23defa23",
            "0x0000000000000000000000000000000000000000000000000000000000000068"
          ],
          "data": "0x",
          "blockHash": "0x67e6687cd247ec1bd7bf4ad6e29e9595a4ff34058c228438758b7b29af7047ea",
          "blockNumber": "0x2eba9d",
          "transactionHash": "0x0f3aa0d634bc0305146d85bb6413932db10ca54926f6e05b7c01a4e4ba7e3b48",
          "transactionIndex": "0x0",
          "logIndex": "0x4",
          "removed": false
        },
        {
          "address": "0x24757E4b5AD64e6b48d78Dc800D45b4061698757",
          "topics": [
            "0xddf252ad1be2c89b69c2b068fc378daa952ba7f163c4a11628f55a4df523b3ef",
            "0x0000000000000000000000000000000000000000000000000000000000000000",
            "0x00000000000000000000000098ccf605c43a0bf9d6795c3cf3b5fed836330511",
            "0x0000000000000000000000000000000000000000000000000000000000000069"
          ],
          "data": "0x",
          "blockHash": "0x67e6687cd247ec1bd7bf4ad6e29e9595a4ff34058c228438758b7b29af7047ea",
          "blockNumber": "0x2eba9d",
          "transactionHash": "0x0f3aa0d634bc0305146d85bb6413932db10ca54926f6e05b7c01a4e4ba7e3b48",
          "transactionIndex": "0x0",
          "logIndex": "0x5",
          "removed": false
        },
        {
          "address": "0x24757E4b5AD64e6b48d78Dc800D45b4061698757",
          "topics": [
            "0xddf252ad1be2c89b69c2b068fc378daa952ba7f163c4a11628f55a4df523b3ef",
            "0x0000000000000000000000000000000000000000000000000000000000000000",
            "0x0000000000000000000000009935eabef41c6f9932579f2eb86bdb77ffd63327",
            "0x000000000000000000000000000000000000000000000000000000000000006a"
          ],
          "data": "0x",
          "blockHash": "0x67e6687cd247ec1bd7bf4ad6e29e9595a4ff34058c228438758b7b29af7047ea",
          "blockNumber": "0x2eba9d",
          "transactionHash": "0x0f3aa0d634bc0305146d85bb6413932db10ca54926f6e05b7c01a4e4ba7e3b48",
          "transactionIndex": "0x0",
          "logIndex": "0x6",
          "removed": false
        },
        {
          "address": "0x24757E4b5AD64e6b48d78Dc800D45b4061698757",
          "topics": [
            "0xddf252ad1be2c89b69c2b068fc378daa952ba7f163c4a11628f55a4df523b3ef",
            "0x0000000000000000000000000000000000000000000000000000000000000000",
            "0x0000000000000000000000009a15235379cf1111ea102850d442b743bf586fc5",
            "0x000000000000000000000000000000000000000000000000000000000000006b"
          ],
          "data": "0x",
          "blockHash": "0x67e6687cd247ec1bd7bf4ad6e29e9595a4ff34058c228438758b7b29af7047ea",
          "blockNumber": "0x2eba9d",
          "transactionHash": "0x0f3aa0d634bc0305146d85bb6413932db10ca54926f6e05b7c01a4e4ba7e3b48",
          "transactionIndex": "0x0",
          "logIndex": "0x7",
          "removed": false
        },
        {
          "address": "0x24757E4b5AD64e6b48d78Dc800D45b4061698757",
          "topics": [
            "0xddf252ad1be2c89b69c2b068fc378daa952ba7f163c4a11628f55a4df523b3ef",
            "0x0000000000000000000000000000000000000000000000000000000000000000",
            "0x0000000000000000000000009a7d2514f0c404707a378e07d47e2cffb065ab81",
            "0x000000000000000000000000000000000000000000000000000000000000006c"
          ],
          "data": "0x",
          "blockHash": "0x67e6687cd247ec1bd7bf4ad6e29e9595a4ff34058c228438758b7b29af7047ea",
          "blockNumber": "0x2eba9d",
          "transactionHash": "0x0f3aa0d634bc0305146d85bb6413932db10ca54926f6e05b7c01a4e4ba7e3b48",
          "transactionIndex": "0x0",
          "logIndex": "0x8",
          "removed": false
        },
        {
          "address": "0x24757E4b5AD64e6b48d78Dc800D45b4061698757",
          "topics": [
            "0xddf252ad1be2c89b69c2b068fc378daa952ba7f163c4a11628f55a4df523b3ef",
            "0x0000000000000000000000000000000000000000000000000000000000000000",
            "0x0000000000000000000000009af481276b075e036bc23e887a8bd275e69ef74c",
            "0x000000000000000000000000000000000000000000000000000000000000006d"
          ],
          "data": "0x",
          "blockHash": "0x67e6687cd247ec1bd7bf4ad6e29e9595a4ff34058c228438758b7b29af7047ea",
          "blockNumber": "0x2eba9d",
          "transactionHash": "0x0f3aa0d634bc0305146d85bb6413932db10ca54926f6e05b7c01a4e4ba7e3b48",
          "transactionIndex": "0x0",
          "logIndex": "0x9",
          "removed": false
        },
        {
          "address": "0x24757E4b5AD64e6b48d78Dc800D45b4061698757",
          "topics": [
            "0xddf252ad1be2c89b69c2b068fc378daa952ba7f163c4a11628f55a4df523b3ef",
            "0x0000000000000000000000000000000000000000000000000000000000000000",
            "0x0000000000000000000000009afdbc669f83f2eb81f5cb3c12d26454cb9c0e27",
            "0x000000000000000000000000000000000000000000000000000000000000006e"
          ],
          "data": "0x",
          "blockHash": "0x67e6687cd247ec1bd7bf4ad6e29e9595a4ff34058c228438758b7b29af7047ea",
          "blockNumber": "0x2eba9d",
          "transactionHash": "0x0f3aa0d634bc0305146d85bb6413932db10ca54926f6e05b7c01a4e4ba7e3b48",
          "transactionIndex": "0x0",
          "logIndex": "0xa",
          "removed": false
        },
        {
          "address": "0x24757E4b5AD64e6b48d78Dc800D45b4061698757",
          "topics": [
            "0xddf252ad1be2c89b69c2b068fc378daa952ba7f163c4a11628f55a4df523b3ef",
            "0x0000000000000000000000000000000000000000000000000000000000000000",
            "0x0000000000000000000000009bb5173c7615f12892c64eab2a60059e785b8cde",
            "0x000000000000000000000000000000000000000000000000000000000000006f"
          ],
          "data": "0x",
          "blockHash": "0x67e6687cd247ec1bd7bf4ad6e29e9595a4ff34058c228438758b7b29af7047ea",
          "blockNumber": "0x2eba9d",
          "transactionHash": "0x0f3aa0d634bc0305146d85bb6413932db10ca54926f6e05b7c01a4e4ba7e3b48",
          "transactionIndex": "0x0",
          "logIndex": "0xb",
          "removed": false
        },
        {
          "address": "0x24757E4b5AD64e6b48d78Dc800D45b4061698757",
          "topics": [
            "0xddf252ad1be2c89b69c2b068fc378daa952ba7f163c4a11628f55a4df523b3ef",
            "0x0000000000000000000000000000000000000000000000000000000000000000",
            "0x0000000000000000000000009be8e4e9d4a68bbdaa8decae9f728ed50599be7c",
            "0x0000000000000000000000000000000000000000000000000000000000000070"
          ],
          "data": "0x",
          "blockHash": "0x67e6687cd247ec1bd7bf4ad6e29e9595a4ff34058c228438758b7b29af7047ea",
          "blockNumber": "0x2eba9d",
          "transactionHash": "0x0f3aa0d634bc0305146d85bb6413932db10ca54926f6e05b7c01a4e4ba7e3b48",
          "transactionIndex": "0x0",
          "logIndex": "0xc",
          "removed": false
        },
        {
          "address": "0x24757E4b5AD64e6b48d78Dc800D45b4061698757",
          "topics": [
            "0xddf252ad1be2c89b69c2b068fc378daa952ba7f163c4a11628f55a4df523b3ef",
            "0x0000000000000000000000000000000000000000000000000000000000000000",
            "0x0000000000000000000000009c0790eb0f96b16ea1806e20b0d0e21a31dc93bc",
            "0x0000000000000000000000000000000000000000000000000000000000000071"
          ],
          "data": "0x",
          "blockHash": "0x67e6687cd247ec1bd7bf4ad6e29e9595a4ff34058c228438758b7b29af7047ea",
          "blockNumber": "0x2eba9d",
          "transactionHash": "0x0f3aa0d634bc0305146d85bb6413932db10ca54926f6e05b7c01a4e4ba7e3b48",
          "transactionIndex": "0x0",
          "logIndex": "0xd",
          "removed": false
        },
        {
          "address": "0x24757E4b5AD64e6b48d78Dc800D45b4061698757",
          "topics": [
            "0xddf252ad1be2c89b69c2b068fc378daa952ba7f163c4a11628f55a4df523b3ef",
            "0x0000000000000000000000000000000000000000000000000000000000000000",
            "0x0000000000000000000000009d0f63a1f277f96fa7361af622b0d719b22a37f5",
            "0x0000000000000000000000000000000000000000000000000000000000000072"
          ],
          "data": "0x",
          "blockHash": "0x67e6687cd247ec1bd7bf4ad6e29e9595a4ff34058c228438758b7b29af7047ea",
          "blockNumber": "0x2eba9d",
          "transactionHash": "0x0f3aa0d634bc0305146d85bb6413932db10ca54926f6e05b7c01a4e4ba7e3b48",
          "transactionIndex": "0x0",
          "logIndex": "0xe",
          "removed": false
        },
        {
          "address": "0x24757E4b5AD64e6b48d78Dc800D45b4061698757",
          "topics": [
            "0xddf252ad1be2c89b69c2b068fc378daa952ba7f163c4a11628f55a4df523b3ef",
            "0x0000000000000000000000000000000000000000000000000000000000000000",
            "0x0000000000000000000000009e7a5b836da4d55d681eed4495370e96295c785f",
            "0x0000000000000000000000000000000000000000000000000000000000000073"
          ],
          "data": "0x",
          "blockHash": "0x67e6687cd247ec1bd7bf4ad6e29e9595a4ff34058c228438758b7b29af7047ea",
          "blockNumber": "0x2eba9d",
          "transactionHash": "0x0f3aa0d634bc0305146d85bb6413932db10ca54926f6e05b7c01a4e4ba7e3b48",
          "transactionIndex": "0x0",
          "logIndex": "0xf",
          "removed": false
        },
        {
          "address": "0x24757E4b5AD64e6b48d78Dc800D45b4061698757",
          "topics": [
            "0xddf252ad1be2c89b69c2b068fc378daa952ba7f163c4a11628f55a4df523b3ef",
            "0x0000000000000000000000000000000000000000000000000000000000000000",
            "0x0000000000000000000000009ebd10b46b43351097cab2d3c03ccf440957a2a9",
            "0x0000000000000000000000000000000000000000000000000000000000000074"
          ],
          "data": "0x",
          "blockHash": "0x67e6687cd247ec1bd7bf4ad6e29e9595a4ff34058c228438758b7b29af7047ea",
          "blockNumber": "0x2eba9d",
          "transactionHash": "0x0f3aa0d634bc0305146d85bb6413932db10ca54926f6e05b7c01a4e4ba7e3b48",
          "transactionIndex": "0x0",
          "logIndex": "0x10",
          "removed": false
        },
        {
          "address": "0x24757E4b5AD64e6b48d78Dc800D45b4061698757",
          "topics": [
            "0xddf252ad1be2c89b69c2b068fc378daa952ba7f163c4a11628f55a4df523b3ef",
            "0x0000000000000000000000000000000000000000000000000000000000000000",
            "0x0000000000000000000000009ee498513b382cce8be6586f1eb617799ef27073",
            "0x0000000000000000000000000000000000000000000000000000000000000075"
          ],
          "data": "0x",
          "blockHash": "0x67e6687cd247ec1bd7bf4ad6e29e9595a4ff34058c228438758b7b29af7047ea",
          "blockNumber": "0x2eba9d",
          "transactionHash": "0x0f3aa0d634bc0305146d85bb6413932db10ca54926f6e05b7c01a4e4ba7e3b48",
          "transactionIndex": "0x0",
          "logIndex": "0x11",
          "removed": false
        },
        {
          "address": "0x24757E4b5AD64e6b48d78Dc800D45b4061698757",
          "topics": [
            "0xddf252ad1be2c89b69c2b068fc378daa952ba7f163c4a11628f55a4df523b3ef",
            "0x0000000000000000000000000000000000000000000000000000000000000000",
            "0x0000000000000000000000009ee73ec148b8f68da65598ebb497f1e7e9957219",
            "0x0000000000000000000000000000000000000000000000000000000000000076"
          ],
          "data": "0x",
          "blockHash": "0x67e6687cd247ec1bd7bf4ad6e29e9595a4ff34058c228438758b7b29af7047ea",
          "blockNumber": "0x2eba9d",
          "transactionHash": "0x0f3aa0d634bc0305146d85bb6413932db10ca54926f6e05b7c01a4e4ba7e3b48",
          "transactionIndex": "0x0",
          "logIndex": "0x12",
          "removed": false
        },
        {
          "address": "0x24757E4b5AD64e6b48d78Dc800D45b4061698757",
          "topics": [
            "0xddf252ad1be2c89b69c2b068fc378daa952ba7f163c4a11628f55a4df523b3ef",
            "0x0000000000000000000000000000000000000000000000000000000000000000",
            "0x0000000000000000000000009eec0b5bd8a48047f0dcc61e98b4b92951480f98",
            "0x0000000000000000000000000000000000000000000000000000000000000077"
          ],
          "data": "0x",
          "blockHash": "0x67e6687cd247ec1bd7bf4ad6e29e9595a4ff34058c228438758b7b29af7047ea",
          "blockNumber": "0x2eba9d",
          "transactionHash": "0x0f3aa0d634bc0305146d85bb6413932db10ca54926f6e05b7c01a4e4ba7e3b48",
          "transactionIndex": "0x0",
          "logIndex": "0x13",
          "removed": false
        },
        {
          "address": "0x24757E4b5AD64e6b48d78Dc800D45b4061698757",
          "topics": [
            "0xddf252ad1be2c89b69c2b068fc378daa952ba7f163c4a11628f55a4df523b3ef",
            "0x0000000000000000000000000000000000000000000000000000000000000000",
            "0x0000000000000000000000009f7064dfe6ca5856b3afd7a3b3974686a35bdab5",
            "0x0000000000000000000000000000000000000000000000000000000000000078"
          ],
          "data": "0x",
          "blockHash": "0x67e6687cd247ec1bd7bf4ad6e29e9595a4ff34058c228438758b7b29af7047ea",
          "blockNumber": "0x2eba9d",
          "transactionHash": "0x0f3aa0d634bc0305146d85bb6413932db10ca54926f6e05b7c01a4e4ba7e3b48",
          "transactionIndex": "0x0",
          "logIndex": "0x14",
          "removed": false
        },
        {
          "address": "0x24757E4b5AD64e6b48d78Dc800D45b4061698757",
          "topics": [
            "0xddf252ad1be2c89b69c2b068fc378daa952ba7f163c4a11628f55a4df523b3ef",
            "0x0000000000000000000000000000000000000000000000000000000000000000",
            "0x0000000000000000000000009fecf056375a973308bb3d6fb6b1c230cfd21456",
            "0x0000000000000000000000000000000000000000000000000000000000000079"
          ],
          "data": "0x",
          "blockHash": "0x67e6687cd247ec1bd7bf4ad6e29e9595a4ff34058c228438758b7b29af7047ea",
          "blockNumber": "0x2eba9d",
          "transactionHash": "0x0f3aa0d634bc0305146d85bb6413932db10ca54926f6e05b7c01a4e4ba7e3b48",
          "transactionIndex": "0x0",
          "logIndex": "0x15",
          "removed": false
        },
        {
          "address": "0x24757E4b5AD64e6b48d78Dc800D45b4061698757",
          "topics": [
            "0xddf252ad1be2c89b69c2b068fc378daa952ba7f163c4a11628f55a4df523b3ef",
            "0x0000000000000000000000000000000000000000000000000000000000000000",
            "0x000000000000000000000000a05b981b6ff59ab94f6c4c589428c7e85b49e257",
            "0x000000000000000000000000000000000000000000000000000000000000007a"
          ],
          "data": "0x",
          "blockHash": "0x67e6687cd247ec1bd7bf4ad6e29e9595a4ff34058c228438758b7b29af7047ea",
          "blockNumber": "0x2eba9d",
          "transactionHash": "0x0f3aa0d634bc0305146d85bb6413932db10ca54926f6e05b7c01a4e4ba7e3b48",
          "transactionIndex": "0x0",
          "logIndex": "0x16",
          "removed": false
        },
        {
          "address": "0x24757E4b5AD64e6b48d78Dc800D45b4061698757",
          "topics": [
            "0xddf252ad1be2c89b69c2b068fc378daa952ba7f163c4a11628f55a4df523b3ef",
            "0x0000000000000000000000000000000000000000000000000000000000000000",
            "0x000000000000000000000000a2e9ec27b948d85b11f7935728cb68e11d73d8fd",
            "0x000000000000000000000000000000000000000000000000000000000000007b"
          ],
          "data": "0x",
          "blockHash": "0x67e6687cd247ec1bd7bf4ad6e29e9595a4ff34058c228438758b7b29af7047ea",
          "blockNumber": "0x2eba9d",
          "transactionHash": "0x0f3aa0d634bc0305146d85bb6413932db10ca54926f6e05b7c01a4e4ba7e3b48",
          "transactionIndex": "0x0",
          "logIndex": "0x17",
          "removed": false
        },
        {
          "address": "0x24757E4b5AD64e6b48d78Dc800D45b4061698757",
          "topics": [
            "0xddf252ad1be2c89b69c2b068fc378daa952ba7f163c4a11628f55a4df523b3ef",
            "0x0000000000000000000000000000000000000000000000000000000000000000",
            "0x000000000000000000000000a3e51498579db0f7bb1ec9e3093b2f44158e25a5",
            "0x000000000000000000000000000000000000000000000000000000000000007c"
          ],
          "data": "0x",
          "blockHash": "0x67e6687cd247ec1bd7bf4ad6e29e9595a4ff34058c228438758b7b29af7047ea",
          "blockNumber": "0x2eba9d",
          "transactionHash": "0x0f3aa0d634bc0305146d85bb6413932db10ca54926f6e05b7c01a4e4ba7e3b48",
          "transactionIndex": "0x0",
          "logIndex": "0x18",
          "removed": false
        },
        {
          "address": "0x24757E4b5AD64e6b48d78Dc800D45b4061698757",
          "topics": [
            "0xddf252ad1be2c89b69c2b068fc378daa952ba7f163c4a11628f55a4df523b3ef",
            "0x0000000000000000000000000000000000000000000000000000000000000000",
            "0x000000000000000000000000a6a2b356718faf8cce70e78f06712f1ce5917d04",
            "0x000000000000000000000000000000000000000000000000000000000000007d"
          ],
          "data": "0x",
          "blockHash": "0x67e6687cd247ec1bd7bf4ad6e29e9595a4ff34058c228438758b7b29af7047ea",
          "blockNumber": "0x2eba9d",
          "transactionHash": "0x0f3aa0d634bc0305146d85bb6413932db10ca54926f6e05b7c01a4e4ba7e3b48",
          "transactionIndex": "0x0",
          "logIndex": "0x19",
          "removed": false
        },
        {
          "address": "0x24757E4b5AD64e6b48d78Dc800D45b4061698757",
          "topics": [
            "0xddf252ad1be2c89b69c2b068fc378daa952ba7f163c4a11628f55a4df523b3ef",
            "0x0000000000000000000000000000000000000000000000000000000000000000",
            "0x000000000000000000000000a7269c74294e399d700a58be9f035b652dd67e48",
            "0x000000000000000000000000000000000000000000000000000000000000007e"
          ],
          "data": "0x",
          "blockHash": "0x67e6687cd247ec1bd7bf4ad6e29e9595a4ff34058c228438758b7b29af7047ea",
          "blockNumber": "0x2eba9d",
          "transactionHash": "0x0f3aa0d634bc0305146d85bb6413932db10ca54926f6e05b7c01a4e4ba7e3b48",
          "transactionIndex": "0x0",
          "logIndex": "0x1a",
          "removed": false
        },
        {
          "address": "0x24757E4b5AD64e6b48d78Dc800D45b4061698757",
          "topics": [
            "0xddf252ad1be2c89b69c2b068fc378daa952ba7f163c4a11628f55a4df523b3ef",
            "0x0000000000000000000000000000000000000000000000000000000000000000",
            "0x000000000000000000000000a796d2204261770cb4045b00462a1ede3ff485ef",
            "0x000000000000000000000000000000000000000000000000000000000000007f"
          ],
          "data": "0x",
          "blockHash": "0x67e6687cd247ec1bd7bf4ad6e29e9595a4ff34058c228438758b7b29af7047ea",
          "blockNumber": "0x2eba9d",
          "transactionHash": "0x0f3aa0d634bc0305146d85bb6413932db10ca54926f6e05b7c01a4e4ba7e3b48",
          "transactionIndex": "0x0",
          "logIndex": "0x1b",
          "removed": false
        },
        {
          "address": "0x24757E4b5AD64e6b48d78Dc800D45b4061698757",
          "topics": [
            "0xddf252ad1be2c89b69c2b068fc378daa952ba7f163c4a11628f55a4df523b3ef",
            "0x0000000000000000000000000000000000000000000000000000000000000000",
            "0x000000000000000000000000ac9ba72fb61aa7c31a95df0a8b6eba6f41ef875e",
            "0x0000000000000000000000000000000000000000000000000000000000000080"
          ],
          "data": "0x",
          "blockHash": "0x67e6687cd247ec1bd7bf4ad6e29e9595a4ff34058c228438758b7b29af7047ea",
          "blockNumber": "0x2eba9d",
          "transactionHash": "0x0f3aa0d634bc0305146d85bb6413932db10ca54926f6e05b7c01a4e4ba7e3b48",
          "transactionIndex": "0x0",
          "logIndex": "0x1c",
          "removed": false
        },
        {
          "address": "0x24757E4b5AD64e6b48d78Dc800D45b4061698757",
          "topics": [
            "0xddf252ad1be2c89b69c2b068fc378daa952ba7f163c4a11628f55a4df523b3ef",
            "0x0000000000000000000000000000000000000000000000000000000000000000",
            "0x000000000000000000000000af0f0b5c4110df25ab46dd9f025084229a9f8352",
            "0x0000000000000000000000000000000000000000000000000000000000000081"
          ],
          "data": "0x",
          "blockHash": "0x67e6687cd247ec1bd7bf4ad6e29e9595a4ff34058c228438758b7b29af7047ea",
          "blockNumber": "0x2eba9d",
          "transactionHash": "0x0f3aa0d634bc0305146d85bb6413932db10ca54926f6e05b7c01a4e4ba7e3b48",
          "transactionIndex": "0x0",
          "logIndex": "0x1d",
          "removed": false
        },
        {
          "address": "0x24757E4b5AD64e6b48d78Dc800D45b4061698757",
          "topics": [
            "0xddf252ad1be2c89b69c2b068fc378daa952ba7f163c4a11628f55a4df523b3ef",
            "0x0000000000000000000000000000000000000000000000000000000000000000",
            "0x000000000000000000000000b012a1bdca34e1d0c2267bb50e6c53c8042eb4b6",
            "0x0000000000000000000000000000000000000000000000000000000000000082"
          ],
          "data": "0x",
          "blockHash": "0x67e6687cd247ec1bd7bf4ad6e29e9595a4ff34058c228438758b7b29af7047ea",
          "blockNumber": "0x2eba9d",
          "transactionHash": "0x0f3aa0d634bc0305146d85bb6413932db10ca54926f6e05b7c01a4e4ba7e3b48",
          "transactionIndex": "0x0",
          "logIndex": "0x1e",
          "removed": false
        },
        {
          "address": "0x24757E4b5AD64e6b48d78Dc800D45b4061698757",
          "topics": [
            "0xddf252ad1be2c89b69c2b068fc378daa952ba7f163c4a11628f55a4df523b3ef",
            "0x0000000000000000000000000000000000000000000000000000000000000000",
            "0x000000000000000000000000b09a022d4114696324a54a80e6a62a24f8e38599",
            "0x0000000000000000000000000000000000000000000000000000000000000083"
          ],
          "data": "0x",
          "blockHash": "0x67e6687cd247ec1bd7bf4ad6e29e9595a4ff34058c228438758b7b29af7047ea",
          "blockNumber": "0x2eba9d",
          "transactionHash": "0x0f3aa0d634bc0305146d85bb6413932db10ca54926f6e05b7c01a4e4ba7e3b48",
          "transactionIndex": "0x0",
          "logIndex": "0x1f",
          "removed": false
        },
        {
          "address": "0x24757E4b5AD64e6b48d78Dc800D45b4061698757",
          "topics": [
            "0xddf252ad1be2c89b69c2b068fc378daa952ba7f163c4a11628f55a4df523b3ef",
            "0x0000000000000000000000000000000000000000000000000000000000000000",
            "0x000000000000000000000000b109e15bb4f808e8cb64aad7d1e4588e0a1f4608",
            "0x0000000000000000000000000000000000000000000000000000000000000084"
          ],
          "data": "0x",
          "blockHash": "0x67e6687cd247ec1bd7bf4ad6e29e9595a4ff34058c228438758b7b29af7047ea",
          "blockNumber": "0x2eba9d",
          "transactionHash": "0x0f3aa0d634bc0305146d85bb6413932db10ca54926f6e05b7c01a4e4ba7e3b48",
          "transactionIndex": "0x0",
          "logIndex": "0x20",
          "removed": false
        },
        {
          "address": "0x24757E4b5AD64e6b48d78Dc800D45b4061698757",
          "topics": [
            "0xddf252ad1be2c89b69c2b068fc378daa952ba7f163c4a11628f55a4df523b3ef",
            "0x0000000000000000000000000000000000000000000000000000000000000000",
            "0x000000000000000000000000b26000e692c74fc0e83534403624d3af7a188f1f",
            "0x0000000000000000000000000000000000000000000000000000000000000085"
          ],
          "data": "0x",
          "blockHash": "0x67e6687cd247ec1bd7bf4ad6e29e9595a4ff34058c228438758b7b29af7047ea",
          "blockNumber": "0x2eba9d",
          "transactionHash": "0x0f3aa0d634bc0305146d85bb6413932db10ca54926f6e05b7c01a4e4ba7e3b48",
          "transactionIndex": "0x0",
          "logIndex": "0x21",
          "removed": false
        },
        {
          "address": "0x24757E4b5AD64e6b48d78Dc800D45b4061698757",
          "topics": [
            "0xddf252ad1be2c89b69c2b068fc378daa952ba7f163c4a11628f55a4df523b3ef",
            "0x0000000000000000000000000000000000000000000000000000000000000000",
            "0x000000000000000000000000b4d372d55fd82efd734f91813c0ebe1e77493f75",
            "0x0000000000000000000000000000000000000000000000000000000000000086"
          ],
          "data": "0x",
          "blockHash": "0x67e6687cd247ec1bd7bf4ad6e29e9595a4ff34058c228438758b7b29af7047ea",
          "blockNumber": "0x2eba9d",
          "transactionHash": "0x0f3aa0d634bc0305146d85bb6413932db10ca54926f6e05b7c01a4e4ba7e3b48",
          "transactionIndex": "0x0",
          "logIndex": "0x22",
          "removed": false
        },
        {
          "address": "0x24757E4b5AD64e6b48d78Dc800D45b4061698757",
          "topics": [
            "0xddf252ad1be2c89b69c2b068fc378daa952ba7f163c4a11628f55a4df523b3ef",
            "0x0000000000000000000000000000000000000000000000000000000000000000",
            "0x000000000000000000000000b57aae22f8ce7524cae1704dcc68efdedf1a4b8d",
            "0x0000000000000000000000000000000000000000000000000000000000000087"
          ],
          "data": "0x",
          "blockHash": "0x67e6687cd247ec1bd7bf4ad6e29e9595a4ff34058c228438758b7b29af7047ea",
          "blockNumber": "0x2eba9d",
          "transactionHash": "0x0f3aa0d634bc0305146d85bb6413932db10ca54926f6e05b7c01a4e4ba7e3b48",
          "transactionIndex": "0x0",
          "logIndex": "0x23",
          "removed": false
        },
        {
          "address": "0x24757E4b5AD64e6b48d78Dc800D45b4061698757",
          "topics": [
            "0xddf252ad1be2c89b69c2b068fc378daa952ba7f163c4a11628f55a4df523b3ef",
            "0x0000000000000000000000000000000000000000000000000000000000000000",
            "0x000000000000000000000000b618aacb9dcdc21ca69d310a6fc04674d293a193",
            "0x0000000000000000000000000000000000000000000000000000000000000088"
          ],
          "data": "0x",
          "blockHash": "0x67e6687cd247ec1bd7bf4ad6e29e9595a4ff34058c228438758b7b29af7047ea",
          "blockNumber": "0x2eba9d",
          "transactionHash": "0x0f3aa0d634bc0305146d85bb6413932db10ca54926f6e05b7c01a4e4ba7e3b48",
          "transactionIndex": "0x0",
          "logIndex": "0x24",
          "removed": false
        },
        {
          "address": "0x24757E4b5AD64e6b48d78Dc800D45b4061698757",
          "topics": [
            "0xddf252ad1be2c89b69c2b068fc378daa952ba7f163c4a11628f55a4df523b3ef",
            "0x0000000000000000000000000000000000000000000000000000000000000000",
            "0x000000000000000000000000b7a31346433430d92846f0181c55fc506b9b22d8",
            "0x0000000000000000000000000000000000000000000000000000000000000089"
          ],
          "data": "0x",
          "blockHash": "0x67e6687cd247ec1bd7bf4ad6e29e9595a4ff34058c228438758b7b29af7047ea",
          "blockNumber": "0x2eba9d",
          "transactionHash": "0x0f3aa0d634bc0305146d85bb6413932db10ca54926f6e05b7c01a4e4ba7e3b48",
          "transactionIndex": "0x0",
          "logIndex": "0x25",
          "removed": false
        },
        {
          "address": "0x24757E4b5AD64e6b48d78Dc800D45b4061698757",
          "topics": [
            "0xddf252ad1be2c89b69c2b068fc378daa952ba7f163c4a11628f55a4df523b3ef",
            "0x0000000000000000000000000000000000000000000000000000000000000000",
            "0x000000000000000000000000b909d06c30c63cc9229b64c28f65d6caa3012bac",
            "0x000000000000000000000000000000000000000000000000000000000000008a"
          ],
          "data": "0x",
          "blockHash": "0x67e6687cd247ec1bd7bf4ad6e29e9595a4ff34058c228438758b7b29af7047ea",
          "blockNumber": "0x2eba9d",
          "transactionHash": "0x0f3aa0d634bc0305146d85bb6413932db10ca54926f6e05b7c01a4e4ba7e3b48",
          "transactionIndex": "0x0",
          "logIndex": "0x26",
          "removed": false
        },
        {
          "address": "0x24757E4b5AD64e6b48d78Dc800D45b4061698757",
          "topics": [
            "0xddf252ad1be2c89b69c2b068fc378daa952ba7f163c4a11628f55a4df523b3ef",
            "0x0000000000000000000000000000000000000000000000000000000000000000",
            "0x000000000000000000000000b96a4bc4ae0bad1043feb96147fc18b17176b138",
            "0x000000000000000000000000000000000000000000000000000000000000008b"
          ],
          "data": "0x",
          "blockHash": "0x67e6687cd247ec1bd7bf4ad6e29e9595a4ff34058c228438758b7b29af7047ea",
          "blockNumber": "0x2eba9d",
          "transactionHash": "0x0f3aa0d634bc0305146d85bb6413932db10ca54926f6e05b7c01a4e4ba7e3b48",
          "transactionIndex": "0x0",
          "logIndex": "0x27",
          "removed": false
        },
        {
          "address": "0x24757E4b5AD64e6b48d78Dc800D45b4061698757",
          "topics": [
            "0xddf252ad1be2c89b69c2b068fc378daa952ba7f163c4a11628f55a4df523b3ef",
            "0x0000000000000000000000000000000000000000000000000000000000000000",
            "0x000000000000000000000000bc9a9fe486e471f33d68b442e699add34a8d1689",
            "0x000000000000000000000000000000000000000000000000000000000000008c"
          ],
          "data": "0x",
          "blockHash": "0x67e6687cd247ec1bd7bf4ad6e29e9595a4ff34058c228438758b7b29af7047ea",
          "blockNumber": "0x2eba9d",
          "transactionHash": "0x0f3aa0d634bc0305146d85bb6413932db10ca54926f6e05b7c01a4e4ba7e3b48",
          "transactionIndex": "0x0",
          "logIndex": "0x28",
          "removed": false
        },
        {
          "address": "0x24757E4b5AD64e6b48d78Dc800D45b4061698757",
          "topics": [
            "0xddf252ad1be2c89b69c2b068fc378daa952ba7f163c4a11628f55a4df523b3ef",
            "0x0000000000000000000000000000000000000000000000000000000000000000",
            "0x000000000000000000000000bd72d021d3cb334deb3151db905ee073b8eee518",
            "0x000000000000000000000000000000000000000000000000000000000000008d"
          ],
          "data": "0x",
          "blockHash": "0x67e6687cd247ec1bd7bf4ad6e29e9595a4ff34058c228438758b7b29af7047ea",
          "blockNumber": "0x2eba9d",
          "transactionHash": "0x0f3aa0d634bc0305146d85bb6413932db10ca54926f6e05b7c01a4e4ba7e3b48",
          "transactionIndex": "0x0",
          "logIndex": "0x29",
          "removed": false
        },
        {
          "address": "0x24757E4b5AD64e6b48d78Dc800D45b4061698757",
          "topics": [
            "0xddf252ad1be2c89b69c2b068fc378daa952ba7f163c4a11628f55a4df523b3ef",
            "0x0000000000000000000000000000000000000000000000000000000000000000",
            "0x000000000000000000000000bf6516ba27f3a26b90e11712a04767222e977fd7",
            "0x000000000000000000000000000000000000000000000000000000000000008e"
          ],
          "data": "0x",
          "blockHash": "0x67e6687cd247ec1bd7bf4ad6e29e9595a4ff34058c228438758b7b29af7047ea",
          "blockNumber": "0x2eba9d",
          "transactionHash": "0x0f3aa0d634bc0305146d85bb6413932db10ca54926f6e05b7c01a4e4ba7e3b48",
          "transactionIndex": "0x0",
          "logIndex": "0x2a",
          "removed": false
        },
        {
          "address": "0x24757E4b5AD64e6b48d78Dc800D45b4061698757",
          "topics": [
            "0xddf252ad1be2c89b69c2b068fc378daa952ba7f163c4a11628f55a4df523b3ef",
            "0x0000000000000000000000000000000000000000000000000000000000000000",
            "0x000000000000000000000000bfc9f6c46715755e2ee8b01f20ab36d22cb4ad4f",
            "0x000000000000000000000000000000000000000000000000000000000000008f"
          ],
          "data": "0x",
          "blockHash": "0x67e6687cd247ec1bd7bf4ad6e29e9595a4ff34058c228438758b7b29af7047ea",
          "blockNumber": "0x2eba9d",
          "transactionHash": "0x0f3aa0d634bc0305146d85bb6413932db10ca54926f6e05b7c01a4e4ba7e3b48",
          "transactionIndex": "0x0",
          "logIndex": "0x2b",
          "removed": false
        },
        {
          "address": "0x24757E4b5AD64e6b48d78Dc800D45b4061698757",
          "topics": [
            "0xddf252ad1be2c89b69c2b068fc378daa952ba7f163c4a11628f55a4df523b3ef",
            "0x0000000000000000000000000000000000000000000000000000000000000000",
            "0x000000000000000000000000c1bd21ecd832ef3c3b1a393a0d66dd2b92c0a944",
            "0x0000000000000000000000000000000000000000000000000000000000000090"
          ],
          "data": "0x",
          "blockHash": "0x67e6687cd247ec1bd7bf4ad6e29e9595a4ff34058c228438758b7b29af7047ea",
          "blockNumber": "0x2eba9d",
          "transactionHash": "0x0f3aa0d634bc0305146d85bb6413932db10ca54926f6e05b7c01a4e4ba7e3b48",
          "transactionIndex": "0x0",
          "logIndex": "0x2c",
          "removed": false
        },
        {
          "address": "0x24757E4b5AD64e6b48d78Dc800D45b4061698757",
          "topics": [
            "0xddf252ad1be2c89b69c2b068fc378daa952ba7f163c4a11628f55a4df523b3ef",
            "0x0000000000000000000000000000000000000000000000000000000000000000",
            "0x000000000000000000000000c24d5b145c21f570a38cbb95cfd8ebb923182732",
            "0x0000000000000000000000000000000000000000000000000000000000000091"
          ],
          "data": "0x",
          "blockHash": "0x67e6687cd247ec1bd7bf4ad6e29e9595a4ff34058c228438758b7b29af7047ea",
          "blockNumber": "0x2eba9d",
          "transactionHash": "0x0f3aa0d634bc0305146d85bb6413932db10ca54926f6e05b7c01a4e4ba7e3b48",
          "transactionIndex": "0x0",
          "logIndex": "0x2d",
          "removed": false
        },
        {
          "address": "0x24757E4b5AD64e6b48d78Dc800D45b4061698757",
          "topics": [
            "0xddf252ad1be2c89b69c2b068fc378daa952ba7f163c4a11628f55a4df523b3ef",
            "0x0000000000000000000000000000000000000000000000000000000000000000",
            "0x000000000000000000000000c2edf07f6823506a386e82aa595a2b5ebb9bdce6",
            "0x0000000000000000000000000000000000000000000000000000000000000092"
          ],
          "data": "0x",
          "blockHash": "0x67e6687cd247ec1bd7bf4ad6e29e9595a4ff34058c228438758b7b29af7047ea",
          "blockNumber": "0x2eba9d",
          "transactionHash": "0x0f3aa0d634bc0305146d85bb6413932db10ca54926f6e05b7c01a4e4ba7e3b48",
          "transactionIndex": "0x0",
          "logIndex": "0x2e",
          "removed": false
        },
        {
          "address": "0x24757E4b5AD64e6b48d78Dc800D45b4061698757",
          "topics": [
            "0xddf252ad1be2c89b69c2b068fc378daa952ba7f163c4a11628f55a4df523b3ef",
            "0x0000000000000000000000000000000000000000000000000000000000000000",
            "0x000000000000000000000000c316f415096223561e2077c30a26043499d579ad",
            "0x0000000000000000000000000000000000000000000000000000000000000093"
          ],
          "data": "0x",
          "blockHash": "0x67e6687cd247ec1bd7bf4ad6e29e9595a4ff34058c228438758b7b29af7047ea",
          "blockNumber": "0x2eba9d",
          "transactionHash": "0x0f3aa0d634bc0305146d85bb6413932db10ca54926f6e05b7c01a4e4ba7e3b48",
          "transactionIndex": "0x0",
          "logIndex": "0x2f",
          "removed": false
        },
        {
          "address": "0x24757E4b5AD64e6b48d78Dc800D45b4061698757",
          "topics": [
            "0xddf252ad1be2c89b69c2b068fc378daa952ba7f163c4a11628f55a4df523b3ef",
            "0x0000000000000000000000000000000000000000000000000000000000000000",
            "0x000000000000000000000000c3de4f9c763ec015deb165d0a96fbafa390286bc",
            "0x0000000000000000000000000000000000000000000000000000000000000094"
          ],
          "data": "0x",
          "blockHash": "0x67e6687cd247ec1bd7bf4ad6e29e9595a4ff34058c228438758b7b29af7047ea",
          "blockNumber": "0x2eba9d",
          "transactionHash": "0x0f3aa0d634bc0305146d85bb6413932db10ca54926f6e05b7c01a4e4ba7e3b48",
          "transactionIndex": "0x0",
          "logIndex": "0x30",
          "removed": false
        },
        {
          "address": "0x24757E4b5AD64e6b48d78Dc800D45b4061698757",
          "topics": [
            "0xddf252ad1be2c89b69c2b068fc378daa952ba7f163c4a11628f55a4df523b3ef",
            "0x0000000000000000000000000000000000000000000000000000000000000000",
            "0x000000000000000000000000c438e5d32f9381b59072b9a0c730cbac41575a4e",
            "0x0000000000000000000000000000000000000000000000000000000000000095"
          ],
          "data": "0x",
          "blockHash": "0x67e6687cd247ec1bd7bf4ad6e29e9595a4ff34058c228438758b7b29af7047ea",
          "blockNumber": "0x2eba9d",
          "transactionHash": "0x0f3aa0d634bc0305146d85bb6413932db10ca54926f6e05b7c01a4e4ba7e3b48",
          "transactionIndex": "0x0",
          "logIndex": "0x31",
          "removed": false
        }
      ],
      "status": "0x1",
      "logsBloom": "0x0a00004800000002101000120800088040420800000000029180840014080830101160002440005082800200200e10201401401820a1102080000400000c000000004206000814c084405008002040000c080b08008000080800201000808000d000140002008082c000810011388c00000518800082008408002011020044028620000204085008000403000582400080002a0104040408000000352020002081000000001140004006c0004100209008c06001460c408000280016c0280000904c020200027040c001081308802000080080018000200000010408800820020200081024040480000234000100820012000220800249928104402180000040",
      "effectiveGasPrice": "0xf761ef6100"
    },
    {
      "transactionHash": "0x6e9dac9ec26d0dca05138417a051abe25345d08e8192eebc74d727a8181c957b",
      "transactionIndex": "0x0",
      "blockHash": "0xadc017c1fcff763b477e470b7717a851bc0bb25edfc8d247983c35e131b6b22a",
      "blockNumber": "0x2eba9e",
      "from": "0xb912354202419695Ae69E38aA77d56856Cc850f4",
      "to": "0x24757E4b5AD64e6b48d78Dc800D45b4061698757",
      "cumulativeGasUsed": "0x20899b",
      "gasUsed": "0x20899b",
      "contractAddress": null,
      "logs": [
        {
          "address": "0x24757E4b5AD64e6b48d78Dc800D45b4061698757",
          "topics": [
            "0xddf252ad1be2c89b69c2b068fc378daa952ba7f163c4a11628f55a4df523b3ef",
            "0x0000000000000000000000000000000000000000000000000000000000000000",
            "0x000000000000000000000000c46aa1c8ecd21eced811ec5b93bef4af3b54597d",
            "0x0000000000000000000000000000000000000000000000000000000000000096"
          ],
          "data": "0x",
          "blockHash": "0xadc017c1fcff763b477e470b7717a851bc0bb25edfc8d247983c35e131b6b22a",
          "blockNumber": "0x2eba9e",
          "transactionHash": "0x6e9dac9ec26d0dca05138417a051abe25345d08e8192eebc74d727a8181c957b",
          "transactionIndex": "0x0",
          "logIndex": "0x0",
          "removed": false
        },
        {
          "address": "0x24757E4b5AD64e6b48d78Dc800D45b4061698757",
          "topics": [
            "0xddf252ad1be2c89b69c2b068fc378daa952ba7f163c4a11628f55a4df523b3ef",
            "0x0000000000000000000000000000000000000000000000000000000000000000",
            "0x000000000000000000000000c864b0ab18b0ed0beab72f915bacb12971fdb73a",
            "0x0000000000000000000000000000000000000000000000000000000000000097"
          ],
          "data": "0x",
          "blockHash": "0xadc017c1fcff763b477e470b7717a851bc0bb25edfc8d247983c35e131b6b22a",
          "blockNumber": "0x2eba9e",
          "transactionHash": "0x6e9dac9ec26d0dca05138417a051abe25345d08e8192eebc74d727a8181c957b",
          "transactionIndex": "0x0",
          "logIndex": "0x1",
          "removed": false
        },
        {
          "address": "0x24757E4b5AD64e6b48d78Dc800D45b4061698757",
          "topics": [
            "0xddf252ad1be2c89b69c2b068fc378daa952ba7f163c4a11628f55a4df523b3ef",
            "0x0000000000000000000000000000000000000000000000000000000000000000",
            "0x000000000000000000000000c93c7f71581dfeaab59bed908888dac5689f312a",
            "0x0000000000000000000000000000000000000000000000000000000000000098"
          ],
          "data": "0x",
          "blockHash": "0xadc017c1fcff763b477e470b7717a851bc0bb25edfc8d247983c35e131b6b22a",
          "blockNumber": "0x2eba9e",
          "transactionHash": "0x6e9dac9ec26d0dca05138417a051abe25345d08e8192eebc74d727a8181c957b",
          "transactionIndex": "0x0",
          "logIndex": "0x2",
          "removed": false
        },
        {
          "address": "0x24757E4b5AD64e6b48d78Dc800D45b4061698757",
          "topics": [
            "0xddf252ad1be2c89b69c2b068fc378daa952ba7f163c4a11628f55a4df523b3ef",
            "0x0000000000000000000000000000000000000000000000000000000000000000",
            "0x000000000000000000000000ca6f3defbc6041299837725f6430f33b0f24e5c0",
            "0x0000000000000000000000000000000000000000000000000000000000000099"
          ],
          "data": "0x",
          "blockHash": "0xadc017c1fcff763b477e470b7717a851bc0bb25edfc8d247983c35e131b6b22a",
          "blockNumber": "0x2eba9e",
          "transactionHash": "0x6e9dac9ec26d0dca05138417a051abe25345d08e8192eebc74d727a8181c957b",
          "transactionIndex": "0x0",
          "logIndex": "0x3",
          "removed": false
        },
        {
          "address": "0x24757E4b5AD64e6b48d78Dc800D45b4061698757",
          "topics": [
            "0xddf252ad1be2c89b69c2b068fc378daa952ba7f163c4a11628f55a4df523b3ef",
            "0x0000000000000000000000000000000000000000000000000000000000000000",
            "0x000000000000000000000000cb5d4b21fed74edc68782fe07d084759c9c54151",
            "0x000000000000000000000000000000000000000000000000000000000000009a"
          ],
          "data": "0x",
          "blockHash": "0xadc017c1fcff763b477e470b7717a851bc0bb25edfc8d247983c35e131b6b22a",
          "blockNumber": "0x2eba9e",
          "transactionHash": "0x6e9dac9ec26d0dca05138417a051abe25345d08e8192eebc74d727a8181c957b",
          "transactionIndex": "0x0",
          "logIndex": "0x4",
          "removed": false
        },
        {
          "address": "0x24757E4b5AD64e6b48d78Dc800D45b4061698757",
          "topics": [
            "0xddf252ad1be2c89b69c2b068fc378daa952ba7f163c4a11628f55a4df523b3ef",
            "0x0000000000000000000000000000000000000000000000000000000000000000",
            "0x000000000000000000000000cbdccb3e11777da45a2f2c9b3ae323d90b1f8a87",
            "0x000000000000000000000000000000000000000000000000000000000000009b"
          ],
          "data": "0x",
          "blockHash": "0xadc017c1fcff763b477e470b7717a851bc0bb25edfc8d247983c35e131b6b22a",
          "blockNumber": "0x2eba9e",
          "transactionHash": "0x6e9dac9ec26d0dca05138417a051abe25345d08e8192eebc74d727a8181c957b",
          "transactionIndex": "0x0",
          "logIndex": "0x5",
          "removed": false
        },
        {
          "address": "0x24757E4b5AD64e6b48d78Dc800D45b4061698757",
          "topics": [
            "0xddf252ad1be2c89b69c2b068fc378daa952ba7f163c4a11628f55a4df523b3ef",
            "0x0000000000000000000000000000000000000000000000000000000000000000",
            "0x000000000000000000000000cca178a04d83af193330c7927fb9a42212fb1c25",
            "0x000000000000000000000000000000000000000000000000000000000000009c"
          ],
          "data": "0x",
          "blockHash": "0xadc017c1fcff763b477e470b7717a851bc0bb25edfc8d247983c35e131b6b22a",
          "blockNumber": "0x2eba9e",
          "transactionHash": "0x6e9dac9ec26d0dca05138417a051abe25345d08e8192eebc74d727a8181c957b",
          "transactionIndex": "0x0",
          "logIndex": "0x6",
          "removed": false
        },
        {
          "address": "0x24757E4b5AD64e6b48d78Dc800D45b4061698757",
          "topics": [
            "0xddf252ad1be2c89b69c2b068fc378daa952ba7f163c4a11628f55a4df523b3ef",
            "0x0000000000000000000000000000000000000000000000000000000000000000",
            "0x000000000000000000000000d0a2fe011342c2e59a81866ae5bbd6e13c6c572f",
            "0x000000000000000000000000000000000000000000000000000000000000009d"
          ],
          "data": "0x",
          "blockHash": "0xadc017c1fcff763b477e470b7717a851bc0bb25edfc8d247983c35e131b6b22a",
          "blockNumber": "0x2eba9e",
          "transactionHash": "0x6e9dac9ec26d0dca05138417a051abe25345d08e8192eebc74d727a8181c957b",
          "transactionIndex": "0x0",
          "logIndex": "0x7",
          "removed": false
        },
        {
          "address": "0x24757E4b5AD64e6b48d78Dc800D45b4061698757",
          "topics": [
            "0xddf252ad1be2c89b69c2b068fc378daa952ba7f163c4a11628f55a4df523b3ef",
            "0x0000000000000000000000000000000000000000000000000000000000000000",
            "0x000000000000000000000000d319f112bf73eae5e3cf06bf8d4076cc5f8b1cd5",
            "0x000000000000000000000000000000000000000000000000000000000000009e"
          ],
          "data": "0x",
          "blockHash": "0xadc017c1fcff763b477e470b7717a851bc0bb25edfc8d247983c35e131b6b22a",
          "blockNumber": "0x2eba9e",
          "transactionHash": "0x6e9dac9ec26d0dca05138417a051abe25345d08e8192eebc74d727a8181c957b",
          "transactionIndex": "0x0",
          "logIndex": "0x8",
          "removed": false
        },
        {
          "address": "0x24757E4b5AD64e6b48d78Dc800D45b4061698757",
          "topics": [
            "0xddf252ad1be2c89b69c2b068fc378daa952ba7f163c4a11628f55a4df523b3ef",
            "0x0000000000000000000000000000000000000000000000000000000000000000",
            "0x000000000000000000000000d35fc346e15ba5b446917c9fd23a9471d6144701",
            "0x000000000000000000000000000000000000000000000000000000000000009f"
          ],
          "data": "0x",
          "blockHash": "0xadc017c1fcff763b477e470b7717a851bc0bb25edfc8d247983c35e131b6b22a",
          "blockNumber": "0x2eba9e",
          "transactionHash": "0x6e9dac9ec26d0dca05138417a051abe25345d08e8192eebc74d727a8181c957b",
          "transactionIndex": "0x0",
          "logIndex": "0x9",
          "removed": false
        },
        {
          "address": "0x24757E4b5AD64e6b48d78Dc800D45b4061698757",
          "topics": [
            "0xddf252ad1be2c89b69c2b068fc378daa952ba7f163c4a11628f55a4df523b3ef",
            "0x0000000000000000000000000000000000000000000000000000000000000000",
            "0x000000000000000000000000d5781432f72b4a63127eb2046703a208bc6271d0",
            "0x00000000000000000000000000000000000000000000000000000000000000a0"
          ],
          "data": "0x",
          "blockHash": "0xadc017c1fcff763b477e470b7717a851bc0bb25edfc8d247983c35e131b6b22a",
          "blockNumber": "0x2eba9e",
          "transactionHash": "0x6e9dac9ec26d0dca05138417a051abe25345d08e8192eebc74d727a8181c957b",
          "transactionIndex": "0x0",
          "logIndex": "0xa",
          "removed": false
        },
        {
          "address": "0x24757E4b5AD64e6b48d78Dc800D45b4061698757",
          "topics": [
            "0xddf252ad1be2c89b69c2b068fc378daa952ba7f163c4a11628f55a4df523b3ef",
            "0x0000000000000000000000000000000000000000000000000000000000000000",
            "0x000000000000000000000000d674d9dbea02b7457408ed2cd21051498ec8d13c",
            "0x00000000000000000000000000000000000000000000000000000000000000a1"
          ],
          "data": "0x",
          "blockHash": "0xadc017c1fcff763b477e470b7717a851bc0bb25edfc8d247983c35e131b6b22a",
          "blockNumber": "0x2eba9e",
          "transactionHash": "0x6e9dac9ec26d0dca05138417a051abe25345d08e8192eebc74d727a8181c957b",
          "transactionIndex": "0x0",
          "logIndex": "0xb",
          "removed": false
        },
        {
          "address": "0x24757E4b5AD64e6b48d78Dc800D45b4061698757",
          "topics": [
            "0xddf252ad1be2c89b69c2b068fc378daa952ba7f163c4a11628f55a4df523b3ef",
            "0x0000000000000000000000000000000000000000000000000000000000000000",
            "0x000000000000000000000000d8404763bce69672b42d9409f3ac9b4b2e684cfb",
            "0x00000000000000000000000000000000000000000000000000000000000000a2"
          ],
          "data": "0x",
          "blockHash": "0xadc017c1fcff763b477e470b7717a851bc0bb25edfc8d247983c35e131b6b22a",
          "blockNumber": "0x2eba9e",
          "transactionHash": "0x6e9dac9ec26d0dca05138417a051abe25345d08e8192eebc74d727a8181c957b",
          "transactionIndex": "0x0",
          "logIndex": "0xc",
          "removed": false
        },
        {
          "address": "0x24757E4b5AD64e6b48d78Dc800D45b4061698757",
          "topics": [
            "0xddf252ad1be2c89b69c2b068fc378daa952ba7f163c4a11628f55a4df523b3ef",
            "0x0000000000000000000000000000000000000000000000000000000000000000",
            "0x000000000000000000000000dadb0d23f30ea579256c224f7319acae8a61a993",
            "0x00000000000000000000000000000000000000000000000000000000000000a3"
          ],
          "data": "0x",
          "blockHash": "0xadc017c1fcff763b477e470b7717a851bc0bb25edfc8d247983c35e131b6b22a",
          "blockNumber": "0x2eba9e",
          "transactionHash": "0x6e9dac9ec26d0dca05138417a051abe25345d08e8192eebc74d727a8181c957b",
          "transactionIndex": "0x0",
          "logIndex": "0xd",
          "removed": false
        },
        {
          "address": "0x24757E4b5AD64e6b48d78Dc800D45b4061698757",
          "topics": [
            "0xddf252ad1be2c89b69c2b068fc378daa952ba7f163c4a11628f55a4df523b3ef",
            "0x0000000000000000000000000000000000000000000000000000000000000000",
            "0x000000000000000000000000daf6f334d49abf1065e6d1dbf5ea04f563d424c2",
            "0x00000000000000000000000000000000000000000000000000000000000000a4"
          ],
          "data": "0x",
          "blockHash": "0xadc017c1fcff763b477e470b7717a851bc0bb25edfc8d247983c35e131b6b22a",
          "blockNumber": "0x2eba9e",
          "transactionHash": "0x6e9dac9ec26d0dca05138417a051abe25345d08e8192eebc74d727a8181c957b",
          "transactionIndex": "0x0",
          "logIndex": "0xe",
          "removed": false
        },
        {
          "address": "0x24757E4b5AD64e6b48d78Dc800D45b4061698757",
          "topics": [
            "0xddf252ad1be2c89b69c2b068fc378daa952ba7f163c4a11628f55a4df523b3ef",
            "0x0000000000000000000000000000000000000000000000000000000000000000",
            "0x000000000000000000000000dbf12da73b3fa72835ace6c943a0a59fda69e48a",
            "0x00000000000000000000000000000000000000000000000000000000000000a5"
          ],
          "data": "0x",
          "blockHash": "0xadc017c1fcff763b477e470b7717a851bc0bb25edfc8d247983c35e131b6b22a",
          "blockNumber": "0x2eba9e",
          "transactionHash": "0x6e9dac9ec26d0dca05138417a051abe25345d08e8192eebc74d727a8181c957b",
          "transactionIndex": "0x0",
          "logIndex": "0xf",
          "removed": false
        },
        {
          "address": "0x24757E4b5AD64e6b48d78Dc800D45b4061698757",
          "topics": [
            "0xddf252ad1be2c89b69c2b068fc378daa952ba7f163c4a11628f55a4df523b3ef",
            "0x0000000000000000000000000000000000000000000000000000000000000000",
            "0x000000000000000000000000e2b424053b9ebfcedf89ecb8bf2972974e98700c",
            "0x00000000000000000000000000000000000000000000000000000000000000a6"
          ],
          "data": "0x",
          "blockHash": "0xadc017c1fcff763b477e470b7717a851bc0bb25edfc8d247983c35e131b6b22a",
          "blockNumber": "0x2eba9e",
          "transactionHash": "0x6e9dac9ec26d0dca05138417a051abe25345d08e8192eebc74d727a8181c957b",
          "transactionIndex": "0x0",
          "logIndex": "0x10",
          "removed": false
        },
        {
          "address": "0x24757E4b5AD64e6b48d78Dc800D45b4061698757",
          "topics": [
            "0xddf252ad1be2c89b69c2b068fc378daa952ba7f163c4a11628f55a4df523b3ef",
            "0x0000000000000000000000000000000000000000000000000000000000000000",
            "0x000000000000000000000000e66ae95575349194bb1621e2adc09975d240c784",
            "0x00000000000000000000000000000000000000000000000000000000000000a7"
          ],
          "data": "0x",
          "blockHash": "0xadc017c1fcff763b477e470b7717a851bc0bb25edfc8d247983c35e131b6b22a",
          "blockNumber": "0x2eba9e",
          "transactionHash": "0x6e9dac9ec26d0dca05138417a051abe25345d08e8192eebc74d727a8181c957b",
          "transactionIndex": "0x0",
          "logIndex": "0x11",
          "removed": false
        },
        {
          "address": "0x24757E4b5AD64e6b48d78Dc800D45b4061698757",
          "topics": [
            "0xddf252ad1be2c89b69c2b068fc378daa952ba7f163c4a11628f55a4df523b3ef",
            "0x0000000000000000000000000000000000000000000000000000000000000000",
            "0x000000000000000000000000e9eddde6af419faab642921e24f68349ec5b9071",
            "0x00000000000000000000000000000000000000000000000000000000000000a8"
          ],
          "data": "0x",
          "blockHash": "0xadc017c1fcff763b477e470b7717a851bc0bb25edfc8d247983c35e131b6b22a",
          "blockNumber": "0x2eba9e",
          "transactionHash": "0x6e9dac9ec26d0dca05138417a051abe25345d08e8192eebc74d727a8181c957b",
          "transactionIndex": "0x0",
          "logIndex": "0x12",
          "removed": false
        },
        {
          "address": "0x24757E4b5AD64e6b48d78Dc800D45b4061698757",
          "topics": [
            "0xddf252ad1be2c89b69c2b068fc378daa952ba7f163c4a11628f55a4df523b3ef",
            "0x0000000000000000000000000000000000000000000000000000000000000000",
            "0x000000000000000000000000ea310c966d3ff5e09c65487f1763b21361eb71ef",
            "0x00000000000000000000000000000000000000000000000000000000000000a9"
          ],
          "data": "0x",
          "blockHash": "0xadc017c1fcff763b477e470b7717a851bc0bb25edfc8d247983c35e131b6b22a",
          "blockNumber": "0x2eba9e",
          "transactionHash": "0x6e9dac9ec26d0dca05138417a051abe25345d08e8192eebc74d727a8181c957b",
          "transactionIndex": "0x0",
          "logIndex": "0x13",
          "removed": false
        },
        {
          "address": "0x24757E4b5AD64e6b48d78Dc800D45b4061698757",
          "topics": [
            "0xddf252ad1be2c89b69c2b068fc378daa952ba7f163c4a11628f55a4df523b3ef",
            "0x0000000000000000000000000000000000000000000000000000000000000000",
            "0x000000000000000000000000ec7eaf1f54a1b8080ec7026c0e09f5f6bed2604c",
            "0x00000000000000000000000000000000000000000000000000000000000000aa"
          ],
          "data": "0x",
          "blockHash": "0xadc017c1fcff763b477e470b7717a851bc0bb25edfc8d247983c35e131b6b22a",
          "blockNumber": "0x2eba9e",
          "transactionHash": "0x6e9dac9ec26d0dca05138417a051abe25345d08e8192eebc74d727a8181c957b",
          "transactionIndex": "0x0",
          "logIndex": "0x14",
          "removed": false
        },
        {
          "address": "0x24757E4b5AD64e6b48d78Dc800D45b4061698757",
          "topics": [
            "0xddf252ad1be2c89b69c2b068fc378daa952ba7f163c4a11628f55a4df523b3ef",
            "0x0000000000000000000000000000000000000000000000000000000000000000",
            "0x000000000000000000000000ee4e40b6c014aea60da6d095b3f1aedd2574410f",
            "0x00000000000000000000000000000000000000000000000000000000000000ab"
          ],
          "data": "0x",
          "blockHash": "0xadc017c1fcff763b477e470b7717a851bc0bb25edfc8d247983c35e131b6b22a",
          "blockNumber": "0x2eba9e",
          "transactionHash": "0x6e9dac9ec26d0dca05138417a051abe25345d08e8192eebc74d727a8181c957b",
          "transactionIndex": "0x0",
          "logIndex": "0x15",
          "removed": false
        },
        {
          "address": "0x24757E4b5AD64e6b48d78Dc800D45b4061698757",
          "topics": [
            "0xddf252ad1be2c89b69c2b068fc378daa952ba7f163c4a11628f55a4df523b3ef",
            "0x0000000000000000000000000000000000000000000000000000000000000000",
            "0x000000000000000000000000ef0429b038740d98598427980ad78399b8ca0ba2",
            "0x00000000000000000000000000000000000000000000000000000000000000ac"
          ],
          "data": "0x",
          "blockHash": "0xadc017c1fcff763b477e470b7717a851bc0bb25edfc8d247983c35e131b6b22a",
          "blockNumber": "0x2eba9e",
          "transactionHash": "0x6e9dac9ec26d0dca05138417a051abe25345d08e8192eebc74d727a8181c957b",
          "transactionIndex": "0x0",
          "logIndex": "0x16",
          "removed": false
        },
        {
          "address": "0x24757E4b5AD64e6b48d78Dc800D45b4061698757",
          "topics": [
            "0xddf252ad1be2c89b69c2b068fc378daa952ba7f163c4a11628f55a4df523b3ef",
            "0x0000000000000000000000000000000000000000000000000000000000000000",
            "0x000000000000000000000000f1d7e1856a75374b5965a1aa10c5da8da5d16567",
            "0x00000000000000000000000000000000000000000000000000000000000000ad"
          ],
          "data": "0x",
          "blockHash": "0xadc017c1fcff763b477e470b7717a851bc0bb25edfc8d247983c35e131b6b22a",
          "blockNumber": "0x2eba9e",
          "transactionHash": "0x6e9dac9ec26d0dca05138417a051abe25345d08e8192eebc74d727a8181c957b",
          "transactionIndex": "0x0",
          "logIndex": "0x17",
          "removed": false
        },
        {
          "address": "0x24757E4b5AD64e6b48d78Dc800D45b4061698757",
          "topics": [
            "0xddf252ad1be2c89b69c2b068fc378daa952ba7f163c4a11628f55a4df523b3ef",
            "0x0000000000000000000000000000000000000000000000000000000000000000",
            "0x000000000000000000000000f396923a852cb675aa52604ecd6489385da4b9cf",
            "0x00000000000000000000000000000000000000000000000000000000000000ae"
          ],
          "data": "0x",
          "blockHash": "0xadc017c1fcff763b477e470b7717a851bc0bb25edfc8d247983c35e131b6b22a",
          "blockNumber": "0x2eba9e",
          "transactionHash": "0x6e9dac9ec26d0dca05138417a051abe25345d08e8192eebc74d727a8181c957b",
          "transactionIndex": "0x0",
          "logIndex": "0x18",
          "removed": false
        },
        {
          "address": "0x24757E4b5AD64e6b48d78Dc800D45b4061698757",
          "topics": [
            "0xddf252ad1be2c89b69c2b068fc378daa952ba7f163c4a11628f55a4df523b3ef",
            "0x0000000000000000000000000000000000000000000000000000000000000000",
            "0x000000000000000000000000f3d9281fa183b74f32b96e1c5244596045f4ede8",
            "0x00000000000000000000000000000000000000000000000000000000000000af"
          ],
          "data": "0x",
          "blockHash": "0xadc017c1fcff763b477e470b7717a851bc0bb25edfc8d247983c35e131b6b22a",
          "blockNumber": "0x2eba9e",
          "transactionHash": "0x6e9dac9ec26d0dca05138417a051abe25345d08e8192eebc74d727a8181c957b",
          "transactionIndex": "0x0",
          "logIndex": "0x19",
          "removed": false
        },
        {
          "address": "0x24757E4b5AD64e6b48d78Dc800D45b4061698757",
          "topics": [
            "0xddf252ad1be2c89b69c2b068fc378daa952ba7f163c4a11628f55a4df523b3ef",
            "0x0000000000000000000000000000000000000000000000000000000000000000",
            "0x000000000000000000000000f76432b894e8f44bf154859662f6eba60394d70d",
            "0x00000000000000000000000000000000000000000000000000000000000000b0"
          ],
          "data": "0x",
          "blockHash": "0xadc017c1fcff763b477e470b7717a851bc0bb25edfc8d247983c35e131b6b22a",
          "blockNumber": "0x2eba9e",
          "transactionHash": "0x6e9dac9ec26d0dca05138417a051abe25345d08e8192eebc74d727a8181c957b",
          "transactionIndex": "0x0",
          "logIndex": "0x1a",
          "removed": false
        },
        {
          "address": "0x24757E4b5AD64e6b48d78Dc800D45b4061698757",
          "topics": [
            "0xddf252ad1be2c89b69c2b068fc378daa952ba7f163c4a11628f55a4df523b3ef",
            "0x0000000000000000000000000000000000000000000000000000000000000000",
            "0x000000000000000000000000f88f0343791260ed716de416c3bb03219ab54b90",
            "0x00000000000000000000000000000000000000000000000000000000000000b1"
          ],
          "data": "0x",
          "blockHash": "0xadc017c1fcff763b477e470b7717a851bc0bb25edfc8d247983c35e131b6b22a",
          "blockNumber": "0x2eba9e",
          "transactionHash": "0x6e9dac9ec26d0dca05138417a051abe25345d08e8192eebc74d727a8181c957b",
          "transactionIndex": "0x0",
          "logIndex": "0x1b",
          "removed": false
        },
        {
          "address": "0x24757E4b5AD64e6b48d78Dc800D45b4061698757",
          "topics": [
            "0xddf252ad1be2c89b69c2b068fc378daa952ba7f163c4a11628f55a4df523b3ef",
            "0x0000000000000000000000000000000000000000000000000000000000000000",
            "0x000000000000000000000000f8e07d60d9b7651a319eda851d9579590bde12e3",
            "0x00000000000000000000000000000000000000000000000000000000000000b2"
          ],
          "data": "0x",
          "blockHash": "0xadc017c1fcff763b477e470b7717a851bc0bb25edfc8d247983c35e131b6b22a",
          "blockNumber": "0x2eba9e",
          "transactionHash": "0x6e9dac9ec26d0dca05138417a051abe25345d08e8192eebc74d727a8181c957b",
          "transactionIndex": "0x0",
          "logIndex": "0x1c",
          "removed": false
        },
        {
          "address": "0x24757E4b5AD64e6b48d78Dc800D45b4061698757",
          "topics": [
            "0xddf252ad1be2c89b69c2b068fc378daa952ba7f163c4a11628f55a4df523b3ef",
            "0x0000000000000000000000000000000000000000000000000000000000000000",
            "0x000000000000000000000000fb40034905b34753b7d74223e496518d43548336",
            "0x00000000000000000000000000000000000000000000000000000000000000b3"
          ],
          "data": "0x",
          "blockHash": "0xadc017c1fcff763b477e470b7717a851bc0bb25edfc8d247983c35e131b6b22a",
          "blockNumber": "0x2eba9e",
          "transactionHash": "0x6e9dac9ec26d0dca05138417a051abe25345d08e8192eebc74d727a8181c957b",
          "transactionIndex": "0x0",
          "logIndex": "0x1d",
          "removed": false
        },
        {
          "address": "0x24757E4b5AD64e6b48d78Dc800D45b4061698757",
          "topics": [
            "0xddf252ad1be2c89b69c2b068fc378daa952ba7f163c4a11628f55a4df523b3ef",
            "0x0000000000000000000000000000000000000000000000000000000000000000",
            "0x000000000000000000000000fbe66ee60fbf7b4b1659604472c8a251ec7aab64",
            "0x00000000000000000000000000000000000000000000000000000000000000b4"
          ],
          "data": "0x",
          "blockHash": "0xadc017c1fcff763b477e470b7717a851bc0bb25edfc8d247983c35e131b6b22a",
          "blockNumber": "0x2eba9e",
          "transactionHash": "0x6e9dac9ec26d0dca05138417a051abe25345d08e8192eebc74d727a8181c957b",
          "transactionIndex": "0x0",
          "logIndex": "0x1e",
          "removed": false
        },
        {
          "address": "0x24757E4b5AD64e6b48d78Dc800D45b4061698757",
          "topics": [
            "0xddf252ad1be2c89b69c2b068fc378daa952ba7f163c4a11628f55a4df523b3ef",
            "0x0000000000000000000000000000000000000000000000000000000000000000",
            "0x000000000000000000000000fc61cc811c53c7a71b1806a1eab14fe13e0dbb32",
            "0x00000000000000000000000000000000000000000000000000000000000000b5"
          ],
          "data": "0x",
          "blockHash": "0xadc017c1fcff763b477e470b7717a851bc0bb25edfc8d247983c35e131b6b22a",
          "blockNumber": "0x2eba9e",
          "transactionHash": "0x6e9dac9ec26d0dca05138417a051abe25345d08e8192eebc74d727a8181c957b",
          "transactionIndex": "0x0",
          "logIndex": "0x1f",
          "removed": false
        },
        {
          "address": "0x24757E4b5AD64e6b48d78Dc800D45b4061698757",
          "topics": [
            "0xddf252ad1be2c89b69c2b068fc378daa952ba7f163c4a11628f55a4df523b3ef",
            "0x0000000000000000000000000000000000000000000000000000000000000000",
            "0x000000000000000000000000fcb33fbe33e1f0f066b41c24d91e994d8fd8e526",
            "0x00000000000000000000000000000000000000000000000000000000000000b6"
          ],
          "data": "0x",
          "blockHash": "0xadc017c1fcff763b477e470b7717a851bc0bb25edfc8d247983c35e131b6b22a",
          "blockNumber": "0x2eba9e",
          "transactionHash": "0x6e9dac9ec26d0dca05138417a051abe25345d08e8192eebc74d727a8181c957b",
          "transactionIndex": "0x0",
          "logIndex": "0x20",
          "removed": false
        },
        {
          "address": "0x24757E4b5AD64e6b48d78Dc800D45b4061698757",
          "topics": [
            "0xddf252ad1be2c89b69c2b068fc378daa952ba7f163c4a11628f55a4df523b3ef",
            "0x0000000000000000000000000000000000000000000000000000000000000000",
            "0x000000000000000000000000ff79b76adcaf2d31bc58152d7e4de5509dc43a39",
            "0x00000000000000000000000000000000000000000000000000000000000000b7"
          ],
          "data": "0x",
          "blockHash": "0xadc017c1fcff763b477e470b7717a851bc0bb25edfc8d247983c35e131b6b22a",
          "blockNumber": "0x2eba9e",
          "transactionHash": "0x6e9dac9ec26d0dca05138417a051abe25345d08e8192eebc74d727a8181c957b",
          "transactionIndex": "0x0",
          "logIndex": "0x21",
          "removed": false
        },
        {
          "address": "0x24757E4b5AD64e6b48d78Dc800D45b4061698757",
          "topics": [
            "0xddf252ad1be2c89b69c2b068fc378daa952ba7f163c4a11628f55a4df523b3ef",
            "0x0000000000000000000000000000000000000000000000000000000000000000",
            "0x00000000000000000000000000f1403069dc9459e897b74cd3eda1b6236445f6",
            "0x00000000000000000000000000000000000000000000000000000000000000b8"
          ],
          "data": "0x",
          "blockHash": "0xadc017c1fcff763b477e470b7717a851bc0bb25edfc8d247983c35e131b6b22a",
          "blockNumber": "0x2eba9e",
          "transactionHash": "0x6e9dac9ec26d0dca05138417a051abe25345d08e8192eebc74d727a8181c957b",
          "transactionIndex": "0x0",
          "logIndex": "0x22",
          "removed": false
        },
        {
          "address": "0x24757E4b5AD64e6b48d78Dc800D45b4061698757",
          "topics": [
            "0xddf252ad1be2c89b69c2b068fc378daa952ba7f163c4a11628f55a4df523b3ef",
            "0x0000000000000000000000000000000000000000000000000000000000000000",
            "0x00000000000000000000000002f910d5b36dcdd9ddd96e3c7f1292b8ff9fd68b",
            "0x00000000000000000000000000000000000000000000000000000000000000b9"
          ],
          "data": "0x",
          "blockHash": "0xadc017c1fcff763b477e470b7717a851bc0bb25edfc8d247983c35e131b6b22a",
          "blockNumber": "0x2eba9e",
          "transactionHash": "0x6e9dac9ec26d0dca05138417a051abe25345d08e8192eebc74d727a8181c957b",
          "transactionIndex": "0x0",
          "logIndex": "0x23",
          "removed": false
        },
        {
          "address": "0x24757E4b5AD64e6b48d78Dc800D45b4061698757",
          "topics": [
            "0xddf252ad1be2c89b69c2b068fc378daa952ba7f163c4a11628f55a4df523b3ef",
            "0x0000000000000000000000000000000000000000000000000000000000000000",
            "0x000000000000000000000000037dfd569defbc08ae28001159b4c49f6d006cff",
            "0x00000000000000000000000000000000000000000000000000000000000000ba"
          ],
          "data": "0x",
          "blockHash": "0xadc017c1fcff763b477e470b7717a851bc0bb25edfc8d247983c35e131b6b22a",
          "blockNumber": "0x2eba9e",
          "transactionHash": "0x6e9dac9ec26d0dca05138417a051abe25345d08e8192eebc74d727a8181c957b",
          "transactionIndex": "0x0",
          "logIndex": "0x24",
          "removed": false
        },
        {
          "address": "0x24757E4b5AD64e6b48d78Dc800D45b4061698757",
          "topics": [
            "0xddf252ad1be2c89b69c2b068fc378daa952ba7f163c4a11628f55a4df523b3ef",
            "0x0000000000000000000000000000000000000000000000000000000000000000",
            "0x000000000000000000000000047c4d7af709ae19d3bbbd5f9e10461d2554da00",
            "0x00000000000000000000000000000000000000000000000000000000000000bb"
          ],
          "data": "0x",
          "blockHash": "0xadc017c1fcff763b477e470b7717a851bc0bb25edfc8d247983c35e131b6b22a",
          "blockNumber": "0x2eba9e",
          "transactionHash": "0x6e9dac9ec26d0dca05138417a051abe25345d08e8192eebc74d727a8181c957b",
          "transactionIndex": "0x0",
          "logIndex": "0x25",
          "removed": false
        },
        {
          "address": "0x24757E4b5AD64e6b48d78Dc800D45b4061698757",
          "topics": [
            "0xddf252ad1be2c89b69c2b068fc378daa952ba7f163c4a11628f55a4df523b3ef",
            "0x0000000000000000000000000000000000000000000000000000000000000000",
            "0x00000000000000000000000005d340ef6f07f8a5d676b6f019a3b4ebcdf8f959",
            "0x00000000000000000000000000000000000000000000000000000000000000bc"
          ],
          "data": "0x",
          "blockHash": "0xadc017c1fcff763b477e470b7717a851bc0bb25edfc8d247983c35e131b6b22a",
          "blockNumber": "0x2eba9e",
          "transactionHash": "0x6e9dac9ec26d0dca05138417a051abe25345d08e8192eebc74d727a8181c957b",
          "transactionIndex": "0x0",
          "logIndex": "0x26",
          "removed": false
        },
        {
          "address": "0x24757E4b5AD64e6b48d78Dc800D45b4061698757",
          "topics": [
            "0xddf252ad1be2c89b69c2b068fc378daa952ba7f163c4a11628f55a4df523b3ef",
            "0x0000000000000000000000000000000000000000000000000000000000000000",
            "0x0000000000000000000000000aa0bc25769c52e623d09a9764e079a221bea2a1",
            "0x00000000000000000000000000000000000000000000000000000000000000bd"
          ],
          "data": "0x",
          "blockHash": "0xadc017c1fcff763b477e470b7717a851bc0bb25edfc8d247983c35e131b6b22a",
          "blockNumber": "0x2eba9e",
          "transactionHash": "0x6e9dac9ec26d0dca05138417a051abe25345d08e8192eebc74d727a8181c957b",
          "transactionIndex": "0x0",
          "logIndex": "0x27",
          "removed": false
        },
        {
          "address": "0x24757E4b5AD64e6b48d78Dc800D45b4061698757",
          "topics": [
            "0xddf252ad1be2c89b69c2b068fc378daa952ba7f163c4a11628f55a4df523b3ef",
            "0x0000000000000000000000000000000000000000000000000000000000000000",
            "0x0000000000000000000000000af80d3fe4babebcbc991100b5ed5f7e6364d37f",
            "0x00000000000000000000000000000000000000000000000000000000000000be"
          ],
          "data": "0x",
          "blockHash": "0xadc017c1fcff763b477e470b7717a851bc0bb25edfc8d247983c35e131b6b22a",
          "blockNumber": "0x2eba9e",
          "transactionHash": "0x6e9dac9ec26d0dca05138417a051abe25345d08e8192eebc74d727a8181c957b",
          "transactionIndex": "0x0",
          "logIndex": "0x28",
          "removed": false
        },
        {
          "address": "0x24757E4b5AD64e6b48d78Dc800D45b4061698757",
          "topics": [
            "0xddf252ad1be2c89b69c2b068fc378daa952ba7f163c4a11628f55a4df523b3ef",
            "0x0000000000000000000000000000000000000000000000000000000000000000",
            "0x0000000000000000000000000bb75bef057da63a0ae4b25fe9adafd35cd92b87",
            "0x00000000000000000000000000000000000000000000000000000000000000bf"
          ],
          "data": "0x",
          "blockHash": "0xadc017c1fcff763b477e470b7717a851bc0bb25edfc8d247983c35e131b6b22a",
          "blockNumber": "0x2eba9e",
          "transactionHash": "0x6e9dac9ec26d0dca05138417a051abe25345d08e8192eebc74d727a8181c957b",
          "transactionIndex": "0x0",
          "logIndex": "0x29",
          "removed": false
        },
        {
          "address": "0x24757E4b5AD64e6b48d78Dc800D45b4061698757",
          "topics": [
            "0xddf252ad1be2c89b69c2b068fc378daa952ba7f163c4a11628f55a4df523b3ef",
            "0x0000000000000000000000000000000000000000000000000000000000000000",
            "0x0000000000000000000000000dd399a7ed92283e4983c2974fe377070d67f4eb",
            "0x00000000000000000000000000000000000000000000000000000000000000c0"
          ],
          "data": "0x",
          "blockHash": "0xadc017c1fcff763b477e470b7717a851bc0bb25edfc8d247983c35e131b6b22a",
          "blockNumber": "0x2eba9e",
          "transactionHash": "0x6e9dac9ec26d0dca05138417a051abe25345d08e8192eebc74d727a8181c957b",
          "transactionIndex": "0x0",
          "logIndex": "0x2a",
          "removed": false
        },
        {
          "address": "0x24757E4b5AD64e6b48d78Dc800D45b4061698757",
          "topics": [
            "0xddf252ad1be2c89b69c2b068fc378daa952ba7f163c4a11628f55a4df523b3ef",
            "0x0000000000000000000000000000000000000000000000000000000000000000",
            "0x0000000000000000000000000ef004c406374cda5115422a218c45f4b22cf290",
            "0x00000000000000000000000000000000000000000000000000000000000000c1"
          ],
          "data": "0x",
          "blockHash": "0xadc017c1fcff763b477e470b7717a851bc0bb25edfc8d247983c35e131b6b22a",
          "blockNumber": "0x2eba9e",
          "transactionHash": "0x6e9dac9ec26d0dca05138417a051abe25345d08e8192eebc74d727a8181c957b",
          "transactionIndex": "0x0",
          "logIndex": "0x2b",
          "removed": false
        }
      ],
      "status": "0x1",
      "logsBloom": "0x4000100470005160010000000020002044040000201020000000c440800000020a040584010000000204220004c0088000b44100000100a004200228080c00000410020502200000c080022c80412820005000000000040000001000000020000200004006004b000004408000008c0e001010008100049100b002100000000800042403000004021200024844004800001080000101141008098c14114430000010888038000092818002ca044a00148200424110c000000080010000008d2804000052400004000200c240000801008041080000008240090000003222248020001202001100000200a4c00000052401100048000088331010800200228141",
      "effectiveGasPrice": "0xf761ef6100"
    }
  ],
  "libraries": [],
  "pending": [],
  "path": "/home/cgp/dev/_projects/IW/broadcast/IW.s.sol/7700/run-latest.json",
  "returns": {},
  "timestamp": 1677077015,
  "chain": 7700,
  "multi": false,
  "commit": "1699b4f"
}