{
  "transactions": [
    {
      "hash": "0x37105c6a469ab3a2461c6f30e95f6e4bbede1826ad436d4d0ee7f1309bdfbed8",
      "transactionType": "CREATE",
      "contractName": "IW",
      "contractAddress": "0x1FF9dc7334Ced66fb5dC4a8D39f2354Cb327BCDf",
      "function": null,
      "arguments": null,
      "rpc": "https://rpc2.alto.build",
      "transaction": {
        "type": "0x02",
        "from": "0xb912354202419695ae69e38aa77d56856cc850f4",
        "gas": "0x1a1b83",
        "value": "0x0",
        "data": "0x60806040523480156200001157600080fd5b50604080518082018252600280825261495760f01b60208084018290528451808601909552918452908301529060006200004c8382620001fe565b5060016200005b8282620001fe565b50505062000078620000726200010360201b60201c565b62000107565b46611e1403620000fd57604051630981022760e31b8152603c600482015273ecf044c5b4b867cfda001101c617ecd347095b4490634c081138906024016020604051808303816000875af1158015620000d5573d6000803e3d6000fd5b505050506040513d601f19601f82011682018060405250810190620000fb9190620002ca565b505b620002e4565b3390565b600680546001600160a01b038381166001600160a01b0319831681179093556040519116919082907f8be0079c531659141344cd1fd0a4f28419497f9722a3daafe3b4186f6b6457e090600090a35050565b634e487b7160e01b600052604160045260246000fd5b600181811c908216806200018457607f821691505b602082108103620001a557634e487b7160e01b600052602260045260246000fd5b50919050565b601f821115620001f957600081815260208120601f850160051c81016020861015620001d45750805b601f850160051c820191505b81811015620001f557828155600101620001e0565b5050505b505050565b81516001600160401b038111156200021a576200021a62000159565b62000232816200022b84546200016f565b84620001ab565b602080601f8311600181146200026a5760008415620002515750858301515b600019600386901b1c1916600185901b178555620001f5565b600085815260208120601f198616915b828110156200029b578886015182559484019460019091019084016200027a565b5085821015620002ba5787850151600019600388901b60f8161c191681555b5050505050600190811b01905550565b600060208284031215620002dd57600080fd5b5051919050565b61147480620002f46000396000f3fe608060405234801561001057600080fd5b50600436106101215760003560e01c806370a08231116100ad578063b88d4fde11610071578063b88d4fde1461024d578063c87b56dd14610260578063dbddb26a14610273578063e985e9c51461027b578063f2fde38b1461028e57600080fd5b806370a0823114610206578063715018a6146102195780638da5cb5b1461022157806395d89b4114610232578063a22cb4651461023a57600080fd5b806323b872dd116100f457806323b872dd146101a35780633771aaa1146101b657806342842e0e146101c957806361b8ce8c146101dc5780636352211e146101f357600080fd5b806301ffc9a71461012657806306fdde031461014e578063081812fc14610163578063095ea7b31461018e575b600080fd5b610139610134366004610f29565b6102a1565b60405190151581526020015b60405180910390f35b6101566102f3565b6040516101459190610f93565b610176610171366004610fa6565b610385565b6040516001600160a01b039091168152602001610145565b6101a161019c366004610fdb565b6103ac565b005b6101a16101b1366004611005565b6104c6565b6101a16101c4366004611041565b6104f7565b6101a16101d7366004611005565b610555565b6101e560075481565b604051908152602001610145565b610176610201366004610fa6565b610570565b6101e56102143660046110b6565b6105d0565b6101a1610656565b6006546001600160a01b0316610176565b61015661066a565b6101a16102483660046110d1565b610679565b6101a161025b366004611123565b610688565b61015661026e366004610fa6565b6106ba565b6101566106e4565b6101396102893660046111ff565b610700565b6101a161029c3660046110b6565b61072e565b60006001600160e01b031982166380ac58cd60e01b14806102d257506001600160e01b03198216635b5e139f60e01b145b806102ed57506301ffc9a760e01b6001600160e01b03198316145b92915050565b60606000805461030290611232565b80601f016020809104026020016040519081016040528092919081815260200182805461032e90611232565b801561037b5780601f106103505761010080835404028352916020019161037b565b820191906000526020600020905b81548152906001019060200180831161035e57829003601f168201915b5050505050905090565b6000610390826107a7565b506000908152600460205260409020546001600160a01b031690565b60006103b782610570565b9050806001600160a01b0316836001600160a01b0316036104295760405162461bcd60e51b815260206004820152602160248201527f4552433732313a20617070726f76616c20746f2063757272656e74206f776e656044820152603960f91b60648201526084015b60405180910390fd5b336001600160a01b038216148061044557506104458133610700565b6104b75760405162461bcd60e51b815260206004820152603d60248201527f4552433732313a20617070726f76652063616c6c6572206973206e6f7420746f60448201527f6b656e206f776e6572206f7220617070726f76656420666f7220616c6c0000006064820152608401610420565b6104c18383610806565b505050565b6104d03382610874565b6104ec5760405162461bcd60e51b81526004016104209061126c565b6104c18383836108d3565b6104ff610a44565b8060005b8181101561054f5761053d848483818110610520576105206112b9565b905060200201602081019061053591906110b6565b600754610a9e565b60078054600190810190915501610503565b50505050565b6104c183838360405180602001604052806000815250610688565b6000818152600260205260408120546001600160a01b0316806102ed5760405162461bcd60e51b8152602060048201526018602482015277115490cdcc8c4e881a5b9d985b1a59081d1bdad95b88125160421b6044820152606401610420565b60006001600160a01b03821661063a5760405162461bcd60e51b815260206004820152602960248201527f4552433732313a2061646472657373207a65726f206973206e6f7420612076616044820152683634b21037bbb732b960b91b6064820152608401610420565b506001600160a01b031660009081526003602052604090205490565b61065e610a44565b6106686000610c37565b565b60606001805461030290611232565b610684338383610c89565b5050565b6106923383610874565b6106ae5760405162461bcd60e51b81526004016104209061126c565b61054f84848484610d57565b60606106c5826107a7565b6040518060800160405280604281526020016113fd6042913992915050565b6040518060800160405280604281526020016113fd6042913981565b6001600160a01b03918216600090815260056020908152604080832093909416825291909152205460ff1690565b610736610a44565b6001600160a01b03811661079b5760405162461bcd60e51b815260206004820152602660248201527f4f776e61626c653a206e6577206f776e657220697320746865207a65726f206160448201526564647265737360d01b6064820152608401610420565b6107a481610c37565b50565b6000818152600260205260409020546001600160a01b03166107a45760405162461bcd60e51b8152602060048201526018602482015277115490cdcc8c4e881a5b9d985b1a59081d1bdad95b88125160421b6044820152606401610420565b600081815260046020526040902080546001600160a01b0319166001600160a01b038416908117909155819061083b82610570565b6001600160a01b03167f8c5be1e5ebec7d5bd14f71427d1e84f3dd0314c0f7b2291e5b200ac8c7c3b92560405160405180910390a45050565b60008061088083610570565b9050806001600160a01b0316846001600160a01b031614806108a757506108a78185610700565b806108cb5750836001600160a01b03166108c084610385565b6001600160a01b0316145b949350505050565b826001600160a01b03166108e682610570565b6001600160a01b03161461090c5760405162461bcd60e51b8152600401610420906112cf565b6001600160a01b03821661096e5760405162461bcd60e51b8152602060048201526024808201527f4552433732313a207472616e7366657220746f20746865207a65726f206164646044820152637265737360e01b6064820152608401610420565b61097b8383836001610d8a565b826001600160a01b031661098e82610570565b6001600160a01b0316146109b45760405162461bcd60e51b8152600401610420906112cf565b600081815260046020908152604080832080546001600160a01b03199081169091556001600160a01b0387811680865260038552838620805460001901905590871680865283862080546001019055868652600290945282852080549092168417909155905184937fddf252ad1be2c89b69c2b068fc378daa952ba7f163c4a11628f55a4df523b3ef91a4505050565b6006546001600160a01b031633146106685760405162461bcd60e51b815260206004820181905260248201527f4f776e61626c653a2063616c6c6572206973206e6f7420746865206f776e65726044820152606401610420565b6001600160a01b038216610af45760405162461bcd60e51b815260206004820181905260248201527f4552433732313a206d696e7420746f20746865207a65726f20616464726573736044820152606401610420565b6000818152600260205260409020546001600160a01b031615610b595760405162461bcd60e51b815260206004820152601c60248201527f4552433732313a20746f6b656e20616c7265616479206d696e746564000000006044820152606401610420565b610b67600083836001610d8a565b6000818152600260205260409020546001600160a01b031615610bcc5760405162461bcd60e51b815260206004820152601c60248201527f4552433732313a20746f6b656e20616c7265616479206d696e746564000000006044820152606401610420565b6001600160a01b038216600081815260036020908152604080832080546001019055848352600290915280822080546001600160a01b0319168417905551839291907fddf252ad1be2c89b69c2b068fc378daa952ba7f163c4a11628f55a4df523b3ef908290a45050565b600680546001600160a01b038381166001600160a01b0319831681179093556040519116919082907f8be0079c531659141344cd1fd0a4f28419497f9722a3daafe3b4186f6b6457e090600090a35050565b816001600160a01b0316836001600160a01b031603610cea5760405162461bcd60e51b815260206004820152601960248201527f4552433732313a20617070726f766520746f2063616c6c6572000000000000006044820152606401610420565b6001600160a01b03838116600081815260056020908152604080832094871680845294825291829020805460ff191686151590811790915591519182527f17307eab39ab6107e8899845ad3d59bd9653f200f220920489ca2b5937696c31910160405180910390a3505050565b610d628484846108d3565b610d6e84848484610e12565b61054f5760405162461bcd60e51b815260040161042090611314565b600181111561054f576001600160a01b03841615610dd0576001600160a01b03841660009081526003602052604081208054839290610dca90849061137c565b90915550505b6001600160a01b0383161561054f576001600160a01b03831660009081526003602052604081208054839290610e0790849061138f565b909155505050505050565b60006001600160a01b0384163b15610f0857604051630a85bd0160e11b81526001600160a01b0385169063150b7a0290610e569033908990889088906004016113a2565b6020604051808303816000875af1925050508015610e91575060408051601f3d908101601f19168201909252610e8e918101906113df565b60015b610eee573d808015610ebf576040519150601f19603f3d011682016040523d82523d6000602084013e610ec4565b606091505b508051600003610ee65760405162461bcd60e51b815260040161042090611314565b805181602001fd5b6001600160e01b031916630a85bd0160e11b1490506108cb565b506001949350505050565b6001600160e01b0319811681146107a457600080fd5b600060208284031215610f3b57600080fd5b8135610f4681610f13565b9392505050565b6000815180845260005b81811015610f7357602081850181015186830182015201610f57565b506000602082860101526020601f19601f83011685010191505092915050565b602081526000610f466020830184610f4d565b600060208284031215610fb857600080fd5b5035919050565b80356001600160a01b0381168114610fd657600080fd5b919050565b60008060408385031215610fee57600080fd5b610ff783610fbf565b946020939093013593505050565b60008060006060848603121561101a57600080fd5b61102384610fbf565b925061103160208501610fbf565b9150604084013590509250925092565b6000806020838503121561105457600080fd5b823567ffffffffffffffff8082111561106c57600080fd5b818501915085601f83011261108057600080fd5b81358181111561108f57600080fd5b8660208260051b85010111156110a457600080fd5b60209290920196919550909350505050565b6000602082840312156110c857600080fd5b610f4682610fbf565b600080604083850312156110e457600080fd5b6110ed83610fbf565b91506020830135801515811461110257600080fd5b809150509250929050565b634e487b7160e01b600052604160045260246000fd5b6000806000806080858703121561113957600080fd5b61114285610fbf565b935061115060208601610fbf565b925060408501359150606085013567ffffffffffffffff8082111561117457600080fd5b818701915087601f83011261118857600080fd5b81358181111561119a5761119a61110d565b604051601f8201601f19908116603f011681019083821181831017156111c2576111c261110d565b816040528281528a60208487010111156111db57600080fd5b82602086016020830137600060208483010152809550505050505092959194509250565b6000806040838503121561121257600080fd5b61121b83610fbf565b915061122960208401610fbf565b90509250929050565b600181811c9082168061124657607f821691505b60208210810361126657634e487b7160e01b600052602260045260246000fd5b50919050565b6020808252602d908201527f4552433732313a2063616c6c6572206973206e6f7420746f6b656e206f776e6560408201526c1c881bdc88185c1c1c9bdd9959609a1b606082015260800190565b634e487b7160e01b600052603260045260246000fd5b60208082526025908201527f4552433732313a207472616e736665722066726f6d20696e636f72726563742060408201526437bbb732b960d91b606082015260800190565b60208082526032908201527f4552433732313a207472616e7366657220746f206e6f6e20455243373231526560408201527131b2b4bb32b91034b6b83632b6b2b73a32b960711b606082015260800190565b634e487b7160e01b600052601160045260246000fd5b818103818111156102ed576102ed611366565b808201808211156102ed576102ed611366565b6001600160a01b03858116825284166020820152604081018390526080606082018190526000906113d590830184610f4d565b9695505050505050565b6000602082840312156113f157600080fd5b8151610f4681610f1356fe697066733a2f2f6261666b726569616c64726e34716532747337756769367935647177376468336773796f6b656479716d736861643379797a6a66686c7979766975a2646970667358221220ba3c294bcadc98ce2daf36503695ba6664546f958aecb197381ec7ba3ae4399964736f6c63430008110033",
        "nonce": "0x6",
        "accessList": []
      },
      "additionalContracts": []
    },
    {
      "hash": "0x3dbbdbfaa546b2f4435c7db6cd210b81047d3b961564c33fc57c1a9b27ea63e7",
      "transactionType": "CALL",
      "contractName": "IW",
      "contractAddress": "0x1FF9dc7334Ced66fb5dC4a8D39f2354Cb327BCDf",
      "function": "bulkMint(address[])",
      "arguments": [
        "[0x00f1403069DC9459E897b74CD3eda1b6236445f6, 0x02F910d5B36dCDD9Ddd96e3c7F1292B8ff9Fd68B, 0x037dFD569DeFBC08aE28001159b4c49f6d006cfF, 0x047C4d7Af709ae19D3BBbD5F9E10461d2554dA00, 0x05d340eF6f07F8A5D676B6f019A3b4EBcdf8f959, 0x0aa0Bc25769C52e623D09A9764e079A221BeA2a1, 0x0af80D3FE4BAbEbCBC991100b5Ed5f7e6364d37f, 0x0Bb75bEf057da63a0ae4B25fe9aDaFd35cd92B87, 0x0DD399a7ED92283e4983C2974FE377070D67f4eB, 0x0ef004C406374Cda5115422a218c45f4b22Cf290]"
      ],
      "rpc": "https://rpc2.alto.build",
      "transaction": {
        "type": "0x02",
        "from": "0xb912354202419695ae69e38aa77d56856cc850f4",
        "to": "0x1ff9dc7334ced66fb5dc4a8d39f2354cb327bcdf",
        "gas": "0xbb134",
        "value": "0x0",
        "data": "0x3771aaa10000000000000000000000000000000000000000000000000000000000000020000000000000000000000000000000000000000000000000000000000000000a00000000000000000000000000f1403069dc9459e897b74cd3eda1b6236445f600000000000000000000000002f910d5b36dcdd9ddd96e3c7f1292b8ff9fd68b000000000000000000000000037dfd569defbc08ae28001159b4c49f6d006cff000000000000000000000000047c4d7af709ae19d3bbbd5f9e10461d2554da0000000000000000000000000005d340ef6f07f8a5d676b6f019a3b4ebcdf8f9590000000000000000000000000aa0bc25769c52e623d09a9764e079a221bea2a10000000000000000000000000af80d3fe4babebcbc991100b5ed5f7e6364d37f0000000000000000000000000bb75bef057da63a0ae4b25fe9adafd35cd92b870000000000000000000000000dd399a7ed92283e4983c2974fe377070d67f4eb0000000000000000000000000ef004c406374cda5115422a218c45f4b22cf290",
        "nonce": "0x7",
        "accessList": []
      },
      "additionalContracts": []
    }
  ],
  "receipts": [
    {
      "transactionHash": "0x37105c6a469ab3a2461c6f30e95f6e4bbede1826ad436d4d0ee7f1309bdfbed8",
      "transactionIndex": "0x1",
      "blockHash": "0x7be8494d382971fa8156f7ac773551cad0df74db6f57c9c79336bda1eed64888",
      "blockNumber": "0x2eb966",
      "from": "0xb912354202419695Ae69E38aA77d56856Cc850f4",
      "to": null,
      "cumulativeGasUsed": "0x1959a2",
      "gasUsed": "0x14152a",
      "contractAddress": "0x1FF9dc7334Ced66fb5dC4a8D39f2354Cb327BCDf",
      "logs": [
        {
          "address": "0x1FF9dc7334Ced66fb5dC4a8D39f2354Cb327BCDf",
          "topics": [
            "0x8be0079c531659141344cd1fd0a4f28419497f9722a3daafe3b4186f6b6457e0",
            "0x0000000000000000000000000000000000000000000000000000000000000000",
            "0x000000000000000000000000b912354202419695ae69e38aa77d56856cc850f4"
          ],
          "data": "0x",
          "blockHash": "0x7be8494d382971fa8156f7ac773551cad0df74db6f57c9c79336bda1eed64888",
          "blockNumber": "0x2eb966",
          "transactionHash": "0x37105c6a469ab3a2461c6f30e95f6e4bbede1826ad436d4d0ee7f1309bdfbed8",
          "transactionIndex": "0x1",
          "logIndex": "0xb",
          "removed": false
        },
        {
          "address": "0xEcf044C5B4b867CFda001101c617eCd347095B44",
          "topics": [
            "0x8a0e37b73a0d9c82e205d4d1a3ff3d0b57ce5f4d7bccf6bac03336dc101cb7ba"
          ],
          "data": "0x0000000000000000000000001ff9dc7334ced66fb5dc4a8d39f2354cb327bcdf000000000000000000000000000000000000000000000000000000000000003c",
          "blockHash": "0x7be8494d382971fa8156f7ac773551cad0df74db6f57c9c79336bda1eed64888",
          "blockNumber": "0x2eb966",
          "transactionHash": "0x37105c6a469ab3a2461c6f30e95f6e4bbede1826ad436d4d0ee7f1309bdfbed8",
          "transactionIndex": "0x1",
          "logIndex": "0xc",
          "removed": false
        }
      ],
      "status": "0x1",
      "logsBloom": "0x02000000000000010000000000000000000000000000000000800000000000000000000000000000000000000000000000000000000000000000000000000040000000000000000000000000000000000001000000000000000000000000000000000000020000000000000000000800000000000400000000000040000000400000000000000000000100800000000000000000000000000000000000000080000000000004000000000000000000000000000000000000000000000000000000000000000000000000000000000000000000000000000000000000000020000000000000000000002000000000000000000000000000000040000000000002",
      "effectiveGasPrice": "0xf9db3c0340"
    },
    {
      "transactionHash": "0x3dbbdbfaa546b2f4435c7db6cd210b81047d3b961564c33fc57c1a9b27ea63e7",
      "transactionIndex": "0x0",
      "blockHash": "0x06bca70f8ae261f38b651631075494a004e3a1eb2b0fff18e6436697d15a8cd3",
      "blockNumber": "0x2eb968",
      "from": "0xb912354202419695Ae69E38aA77d56856Cc850f4",
      "to": "0x1FF9dc7334Ced66fb5dC4a8D39f2354Cb327BCDf",
      "cumulativeGasUsed": "0x7fea3",
      "gasUsed": "0x7fea3",
      "contractAddress": null,
      "logs": [
        {
          "address": "0x1FF9dc7334Ced66fb5dC4a8D39f2354Cb327BCDf",
          "topics": [
            "0xddf252ad1be2c89b69c2b068fc378daa952ba7f163c4a11628f55a4df523b3ef",
            "0x0000000000000000000000000000000000000000000000000000000000000000",
            "0x00000000000000000000000000f1403069dc9459e897b74cd3eda1b6236445f6",
            "0x0000000000000000000000000000000000000000000000000000000000000000"
          ],
          "data": "0x",
          "blockHash": "0x06bca70f8ae261f38b651631075494a004e3a1eb2b0fff18e6436697d15a8cd3",
          "blockNumber": "0x2eb968",
          "transactionHash": "0x3dbbdbfaa546b2f4435c7db6cd210b81047d3b961564c33fc57c1a9b27ea63e7",
          "transactionIndex": "0x0",
          "logIndex": "0x0",
          "removed": false
        },
        {
          "address": "0x1FF9dc7334Ced66fb5dC4a8D39f2354Cb327BCDf",
          "topics": [
            "0xddf252ad1be2c89b69c2b068fc378daa952ba7f163c4a11628f55a4df523b3ef",
            "0x0000000000000000000000000000000000000000000000000000000000000000",
            "0x00000000000000000000000002f910d5b36dcdd9ddd96e3c7f1292b8ff9fd68b",
            "0x0000000000000000000000000000000000000000000000000000000000000001"
          ],
          "data": "0x",
          "blockHash": "0x06bca70f8ae261f38b651631075494a004e3a1eb2b0fff18e6436697d15a8cd3",
          "blockNumber": "0x2eb968",
          "transactionHash": "0x3dbbdbfaa546b2f4435c7db6cd210b81047d3b961564c33fc57c1a9b27ea63e7",
          "transactionIndex": "0x0",
          "logIndex": "0x1",
          "removed": false
        },
        {
          "address": "0x1FF9dc7334Ced66fb5dC4a8D39f2354Cb327BCDf",
          "topics": [
            "0xddf252ad1be2c89b69c2b068fc378daa952ba7f163c4a11628f55a4df523b3ef",
            "0x0000000000000000000000000000000000000000000000000000000000000000",
            "0x000000000000000000000000037dfd569defbc08ae28001159b4c49f6d006cff",
            "0x0000000000000000000000000000000000000000000000000000000000000002"
          ],
          "data": "0x",
          "blockHash": "0x06bca70f8ae261f38b651631075494a004e3a1eb2b0fff18e6436697d15a8cd3",
          "blockNumber": "0x2eb968",
          "transactionHash": "0x3dbbdbfaa546b2f4435c7db6cd210b81047d3b961564c33fc57c1a9b27ea63e7",
          "transactionIndex": "0x0",
          "logIndex": "0x2",
          "removed": false
        },
        {
          "address": "0x1FF9dc7334Ced66fb5dC4a8D39f2354Cb327BCDf",
          "topics": [
            "0xddf252ad1be2c89b69c2b068fc378daa952ba7f163c4a11628f55a4df523b3ef",
            "0x0000000000000000000000000000000000000000000000000000000000000000",
            "0x000000000000000000000000047c4d7af709ae19d3bbbd5f9e10461d2554da00",
            "0x0000000000000000000000000000000000000000000000000000000000000003"
          ],
          "data": "0x",
          "blockHash": "0x06bca70f8ae261f38b651631075494a004e3a1eb2b0fff18e6436697d15a8cd3",
          "blockNumber": "0x2eb968",
          "transactionHash": "0x3dbbdbfaa546b2f4435c7db6cd210b81047d3b961564c33fc57c1a9b27ea63e7",
          "transactionIndex": "0x0",
          "logIndex": "0x3",
          "removed": false
        },
        {
          "address": "0x1FF9dc7334Ced66fb5dC4a8D39f2354Cb327BCDf",
          "topics": [
            "0xddf252ad1be2c89b69c2b068fc378daa952ba7f163c4a11628f55a4df523b3ef",
            "0x0000000000000000000000000000000000000000000000000000000000000000",
            "0x00000000000000000000000005d340ef6f07f8a5d676b6f019a3b4ebcdf8f959",
            "0x0000000000000000000000000000000000000000000000000000000000000004"
          ],
          "data": "0x",
          "blockHash": "0x06bca70f8ae261f38b651631075494a004e3a1eb2b0fff18e6436697d15a8cd3",
          "blockNumber": "0x2eb968",
          "transactionHash": "0x3dbbdbfaa546b2f4435c7db6cd210b81047d3b961564c33fc57c1a9b27ea63e7",
          "transactionIndex": "0x0",
          "logIndex": "0x4",
          "removed": false
        },
        {
          "address": "0x1FF9dc7334Ced66fb5dC4a8D39f2354Cb327BCDf",
          "topics": [
            "0xddf252ad1be2c89b69c2b068fc378daa952ba7f163c4a11628f55a4df523b3ef",
            "0x0000000000000000000000000000000000000000000000000000000000000000",
            "0x0000000000000000000000000aa0bc25769c52e623d09a9764e079a221bea2a1",
            "0x0000000000000000000000000000000000000000000000000000000000000005"
          ],
          "data": "0x",
          "blockHash": "0x06bca70f8ae261f38b651631075494a004e3a1eb2b0fff18e6436697d15a8cd3",
          "blockNumber": "0x2eb968",
          "transactionHash": "0x3dbbdbfaa546b2f4435c7db6cd210b81047d3b961564c33fc57c1a9b27ea63e7",
          "transactionIndex": "0x0",
          "logIndex": "0x5",
          "removed": false
        },
        {
          "address": "0x1FF9dc7334Ced66fb5dC4a8D39f2354Cb327BCDf",
          "topics": [
            "0xddf252ad1be2c89b69c2b068fc378daa952ba7f163c4a11628f55a4df523b3ef",
            "0x0000000000000000000000000000000000000000000000000000000000000000",
            "0x0000000000000000000000000af80d3fe4babebcbc991100b5ed5f7e6364d37f",
            "0x0000000000000000000000000000000000000000000000000000000000000006"
          ],
          "data": "0x",
          "blockHash": "0x06bca70f8ae261f38b651631075494a004e3a1eb2b0fff18e6436697d15a8cd3",
          "blockNumber": "0x2eb968",
          "transactionHash": "0x3dbbdbfaa546b2f4435c7db6cd210b81047d3b961564c33fc57c1a9b27ea63e7",
          "transactionIndex": "0x0",
          "logIndex": "0x6",
          "removed": false
        },
        {
          "address": "0x1FF9dc7334Ced66fb5dC4a8D39f2354Cb327BCDf",
          "topics": [
            "0xddf252ad1be2c89b69c2b068fc378daa952ba7f163c4a11628f55a4df523b3ef",
            "0x0000000000000000000000000000000000000000000000000000000000000000",
            "0x0000000000000000000000000bb75bef057da63a0ae4b25fe9adafd35cd92b87",
            "0x0000000000000000000000000000000000000000000000000000000000000007"
          ],
          "data": "0x",
          "blockHash": "0x06bca70f8ae261f38b651631075494a004e3a1eb2b0fff18e6436697d15a8cd3",
          "blockNumber": "0x2eb968",
          "transactionHash": "0x3dbbdbfaa546b2f4435c7db6cd210b81047d3b961564c33fc57c1a9b27ea63e7",
          "transactionIndex": "0x0",
          "logIndex": "0x7",
          "removed": false
        },
        {
          "address": "0x1FF9dc7334Ced66fb5dC4a8D39f2354Cb327BCDf",
          "topics": [
            "0xddf252ad1be2c89b69c2b068fc378daa952ba7f163c4a11628f55a4df523b3ef",
            "0x0000000000000000000000000000000000000000000000000000000000000000",
            "0x0000000000000000000000000dd399a7ed92283e4983c2974fe377070d67f4eb",
            "0x0000000000000000000000000000000000000000000000000000000000000008"
          ],
          "data": "0x",
          "blockHash": "0x06bca70f8ae261f38b651631075494a004e3a1eb2b0fff18e6436697d15a8cd3",
          "blockNumber": "0x2eb968",
          "transactionHash": "0x3dbbdbfaa546b2f4435c7db6cd210b81047d3b961564c33fc57c1a9b27ea63e7",
          "transactionIndex": "0x0",
          "logIndex": "0x8",
          "removed": false
        },
        {
          "address": "0x1FF9dc7334Ced66fb5dC4a8D39f2354Cb327BCDf",
          "topics": [
            "0xddf252ad1be2c89b69c2b068fc378daa952ba7f163c4a11628f55a4df523b3ef",
            "0x0000000000000000000000000000000000000000000000000000000000000000",
            "0x0000000000000000000000000ef004c406374cda5115422a218c45f4b22cf290",
            "0x0000000000000000000000000000000000000000000000000000000000000009"
          ],
          "data": "0x",
          "blockHash": "0x06bca70f8ae261f38b651631075494a004e3a1eb2b0fff18e6436697d15a8cd3",
          "blockNumber": "0x2eb968",
          "transactionHash": "0x3dbbdbfaa546b2f4435c7db6cd210b81047d3b961564c33fc57c1a9b27ea63e7",
          "transactionIndex": "0x0",
          "logIndex": "0x9",
          "removed": false
        }
      ],
      "status": "0x1",
      "logsBloom": "0x0400000000001001000000000000000004000000000000000000000000000000000000840000000000000000000000000000100002048000002000000024004000003000000000000080000800400000000000000004000000000000000000000a00000002000000000000800000080c000000000400000000000010000000000080000400000000000000000000001000001800010000000000040400400000000000000800000000000140000000100000000000800000002001080000400040000002000004000000000000000100000100008000000000000100022060000000020000000000000000400000000000000000008000100000800000820000",
      "effectiveGasPrice": "0xf9db3c0340"
    }
  ],
  "libraries": [],
  "pending": [],
  "path": "/home/cgp/dev/_projects/IW/broadcast/IW.s.sol/7700/run-latest.json",
  "returns": {},
  "timestamp": 1677075161,
  "chain": 7700,
  "multi": false,
  "commit": "1699b4f"
}